:020000040800F2
:1000000000500020DD0B00082F0C00083B0C0008FE
:10001000410C0008470C00084D0C000800000000CF
:10002000000000000000000000000000530C000869
:100030005F0C0008000000006B0C0008770C000843
:100040002D0C00082D0C00082D0C00082D0C0008AC
:100050002D0C00082D0C00082D0C00082D0C00089C
:100060002D0C00082D0C00082D0C00082D0C00088C
:100070002D0C00082D0C00082D0C00082D0C00087C
:100080002D0C00082D0C00082D0C00082D0C00086C
:100090002D0C00082D0C00082D0C00082D0C00085C
:1000A0002D0C00082D0C00082D0C00082D0C00084C
:1000B0002D0C00082D0C00082D0C00082D0C00083C
:1000C0002D0C00082D0C00082D0C00082D0C00082C
:1000D0002D0C0008850C0008C50C00082D0C00082C
:1000E0002D0C00082D0C00082D0C0008000000004D
:1000F0000000000000000000000000000000000000
:0C01000000000000000000005FF808F1A3
:10010C0010B5054C237833B9044B13B10448AFF345
:10011C0000800123237010BD880200200000000025
:10012C00D82F000808B5034B1BB103490348AFF3A4
:10013C00008008BD000000008C020020D82F0008B1
:10014C00034613F8012B002AFBD1181A013870470B
:10015C0080B483B000AF78607B68042B06D1094A69
:10016C00084B1B6843F00403136005E0054A054B7C
:10017C001B6823F00403136000BF0C37BD4680BC22
:10018C00704700BF10E000E080B485B000AF78602D
:10019C000023FB60094B1B68FB60FB6803F0380312
:1001AC00FB60FA687B681343FB60044AFB681360CE
:1001BC0000BF1437BD4680BC704700BF0020024012
:1001CC0080B483B000AF7860084A084B1B6823F0FA
:1001DC00100313600549054B1A687B6813430B60C9
:1001EC0000BF0C37BD4680BC704700BF00200240EA
:1001FC0080B489B000AF786039600023FB610023C4
:10020C003B610023BB610023FB6000237B61002367
:10021C00BB603B68DB7803F00F03FB613B68DB786A
:10022C0003F01003002B05D03B689B781A46FB6942
:10023C001343FB613B681B88DBB2002B44D07B680B
:10024C001B687B610023BB6138E00122BB6902FAA9
:10025C0003F3FB603B681B881A46FB6813403B6149
:10026C003A69FB689A4226D1BB699B00FB600F225E
:10027C00FB6802FA03F3BB60BB68DB437A6913408B
:10028C007B61FA69FB6802FA03F37A6913437B61B9
:10029C003B68DB78282B05D10122BB699A407B682F
:1002AC005A6108E03B68DB78482B04D10122BB691A
:1002BC009A407B681A61BB690133BB61BB69072B30
:1002CC00C3D97B687A691A603B681B88FF2B46D9B7
:1002DC007B685B687B610023BB613AE0BB690833D8
:1002EC00012202FA03F3FB603B681B881A46FB6889
:1002FC0013403B613A69FB689A4227D1BB699B006A
:10030C00FB600F22FB6802FA03F3BB60BB68DB43A4
:10031C007A6913407B61FA69FB6802FA03F37A6924
:10032C0013437B613B68DB78282B05D1BB69083311
:10033C0001229A407B685A613B68DB78482B05D1D7
:10034C00BB69083301229A407B681A61BB6901338F
:10035C00BB61BB69072BC1D97B687A695A6000BF46
:10036C002437BD4680BC704780B483B000AF786042
:10037C000B467B807A887B685A6100BF0C37BD4680
:10038C0080BC704780B483B000AF7860134A134BC5
:10039C001B6823F480331360104A104B1B6823F442
:1003AC00802313607B68B3F5803F03D0B3F5802FB7
:1003BC0007D00DE0094A094B1B6843F480331360E6
:1003CC0006E0064A054B1B6843F4A023136000BFEC
:1003DC0000BF0C37BD4680BC704700BF0010024008
:1003EC0080B582B000AF00233B600023FB7100237B
:1003FC00BB71312000F0B4F90346BB713B6801338B
:10040C003B603B68B3F5A06F02D0BB79002BF0D0FA
:10041C00312000F0A5F90346002B02D00123FB711B
:10042C0001E00023FB71FB7918460837BD4680BDFF
:10043C0080B485B000AF786039600023FB600A4B54
:10044C005B68FB60FB6823F47C13FB607A683B6899
:10045C001343FA681343FB60034AFB68536000BF05
:10046C001437BD4680BC70470010024080B483B086
:10047C0000AF0346FB71044AFB79136000BF0C37D5
:10048C00BD4680BC704700BF6000424280B485B05E
:10049C0000AF78600023FB60094B5B68FB60FB6876
:1004AC0023F00303FB60FA687B681343FB60044A88
:1004BC00FB68536000BF1437BD4680BC704700BF5B
:1004CC000010024080B400AF044B5B68DBB203F059
:1004DC000C03DBB21846BD4680BC704700100240CE
:1004EC0080B485B000AF78600023FB60094B5B687B
:1004FC00FB60FB6823F0F003FB60FA687B68134336
:10050C00FB60044AFB68536000BF1437BD4680BCD7
:10051C00704700BF0010024080B485B000AF786017
:10052C000023FB60094B5B68FB60FB6823F4E06312
:10053C00FB60FA687B681343FB60044AFB685360FA
:10054C0000BF1437BD4680BC704700BF001002408E
:10055C0080B485B000AF78600023FB60094B5B680A
:10056C00FB60FB6823F46053FB607B68DB00FA687C
:10057C001343FB60034AFB68536000BF1437BD464E
:10058C0080BC70470010024080B487B000AF786028
:10059C0000237B6100233B610023FB600023BB60D5
:1005AC004C4B5B6803F00C037B617B69042B07D01D
:1005BC00082B09D0002B33D17B68474A1A6033E0F3
:1005CC007B68454A1A602FE0424B5B6803F470135A
:1005DC003B61404B5B6803F48033FB603B699B0CD5
:1005EC0002333B61FB68002B06D13B693B4A02FBA3
:1005FC0003F27B681A6017E0364B5B6803F4003338
:10060C00002B06D03B69354A02FB03F27B681A606B
:10061C000AE03B69304A02FB03F27B681A6003E094
:10062C007B682D4A1A6000BF2A4B5B6803F0F0030D
:10063C007B617B691B097B61294A7B6913441B78AD
:10064C00DBB2BB607B681A68BB68DA407B685A60B7
:10065C00204B5B6803F4E0637B617B691B0A7B6165
:10066C001F4A7B6913441B78DBB2BB607B685A68FA
:10067C00BB68DA407B689A60164B5B6803F4605386
:10068C007B617B69DB0A7B61154A7B6913441B78B0
:10069C00DBB2BB607B685A68BB68DA407B68DA60A7
:1006AC000C4B5B6803F440437B617B699B0B7B6168
:1006BC000C4A7B6913441B78DBB2BB607B68DA683D
:1006CC00BB68B2FBF3F27B681A6100BF1C37BD46F6
:1006DC0080BC70470010024000127A0000093D00F7
:1006EC00000000201000002080B483B000AF7860C0
:1006FC000B46FB70FB78002B06D00949084B9A6916
:10070C007B6813438B6106E00549054B9A697B684E
:10071C00DB4313408B6100BF0C37BD4680BC704778
:10072C000010024080B483B000AF78600B46FB70C1
:10073C00FB78002B06D00949084BDA697B68134318
:10074C00CB6106E00549054BDA697B68DB43134056
:10075C00CB6100BF0C37BD4680BC70470010024017
:10076C0080B487B000AF0346FB710023FB6000230D
:10077C007B610023FB74FB795B09DBB2FB60FB68DC
:10078C00012B03D1124B1B687B6109E0FB68022B28
:10079C0003D10F4B1B6A7B6102E00D4B5B6A7B61E3
:1007AC00FB7903F01F03FB607A69FB6822FA03F301
:1007BC0003F00103002B02D00123FB7401E00023A2
:1007CC00FB74FB7C18461C37BD4680BC704700BFD1
:1007DC000010024080B58CB000AF78603960002307
:1007EC00FB620023BB6200237B6200233B6200237D
:1007FC00FB617B68FB617B681B8A9BB2FB62FA6ABC
:10080C004CF6FF731340FB623B68DB881A46FB6AAD
:10081C001343FB62FB6A9AB27B681A827B689B89E2
:10082C009BB2FB62FA6A4EF6F3131340FB623B6811
:10083C009A883B681B8913439AB23B685B891343C4
:10084C009BB21A46FB6A1343FB62FB6A9AB27B6843
:10085C009A817B689B8A9BB2FB62FA6A4FF6FF43D4
:10086C001340FB623B689B891A46FB6A1343FB628D
:10087C00FB6A9AB27B689A8207F108031846FFF765
:10088C0083FEFB692E4A934202D17B69BB6201E075
:10089C003B69BB627B689B899BB21BB2002B0CDA59
:1008AC00BA6A13469B0013449A001A443B681B68AF
:1008BC005B00B2FBF3F37B620BE0BA6A13469B005E
:1008CC0013449A001A443B681B689B00B2FBF3F379
:1008DC007B627B6A1B4AA2FB03235B091B01FB6245
:1008EC00FB6A1B09642202FB03F37A6AD31A3B628C
:1008FC007B689B899BB21BB2002B0CDA3B6ADB003A
:10090C003233104AA2FB03235B0903F00703FA6A94
:10091C001343FB620BE03B6A1B013233094AA2FB17
:10092C0003235B0903F00F03FA6A1343FB62FB6AB0
:10093C009AB27B681A8100BF3037BD4680BD00BFBC
:10094C00003801401F85EB5180B483B000AF786054
:10095C000B46FB70FB78002B08D07B689B899BB205
:10096C0043F400539AB27B689A8107E07B689B89B9
:10097C009BB223F400539AB27B689A8100BF0C3768
:10098C00BD4680BC704780B487B000AF78600B4622
:10099C007B8013467B7000233B610023FB600023AC
:1009AC00BB6000237B617B687B617B88DBB25B096E
:1009BC00DBB23B617B8803F01F03FB600122FB6809
:1009CC0002FA03F3BB603B69012B03D17B690C3347
:1009DC007B6109E03B69022B03D17B6910337B619E
:1009EC0002E07B6914337B617B78002B06D07B693A
:1009FC007A691168BA680A431A6006E07B697A69F9
:100A0C001168BA68D2430A401A6000BF1C37BD4651
:100A1C0080BC704780B483B000AF78600B467B809D
:100A2C007B88C3F308039AB27B689A8000BF0C37AB
:100A3C00BD4680BC704780B483B000AF78607B68E3
:100A4C009B889BB2C3F308039BB218460C37BD4678
:100A5C0080BC704780B485B000AF78600B467B805B
:100A6C000023FB737B681B889AB27B8813409BB274
:100A7C00002B02D00123FB7301E00023FB73FB7BF3
:100A8C0018461437BD4680BC704780B487B000AFA1
:100A9C0078600B467B800023FB6000237B61002386
:100AAC00BB600023FB747B88DBB25B09DBB2BB60F1
:100ABC007B8803F01F037B6101227B6902FA03F33D
:100ACC007B61BB68012B07D17B689B899BB21A4663
:100ADC007B6913407B6111E0BB68022B07D17B68FB
:100AEC001B8A9BB21A467B6913407B6106E07B68CC
:100AFC009B8A9BB21A467B6913407B617B881B0ADD
:100B0C009BB2FB600122FB6802FA03F3FB607B687B
:100B1C001B889BB21A46FB681340FB607B69002B59
:100B2C0005D0FB68002B02D00123FB7401E00023ED
:100B3C00FB74FB7C18461C37BD4680BC704780B4E8
:100B4C0085B000AF78600B467B800023FB810023CF
:100B5C00BB817B881B0AFB81FB89012202FA03F310
:100B6C00BB81BB89DB439AB27B681A8000BF143708
:100B7C00BD4680BC704780B500AF00F0B5FB00F0FF
:100B8C00F1FB00F00DFC00F069FC0021002001F0ED
:100B9C0039FA0021002001F05FFE00F091FD0021E8
:100BAC00002001F029FE0021002000F00FFF00F0D2
:100BBC0021FE01F047FA01F00FFE0346002B01D095
:100BCC0000F032FF4FF47A7000F07AFBEFE7000090
:100BDC00DFF834D0002103E00C4B5B584350043158
:100BEC000B480C4B42189A42F6D30B4A02E00023F6
:100BFC0042F8043B094B9A42F9D300F07DF802F01D
:100C0C00C1F8FFF7B8FF7047005000200834000807
:100C1C000000002088020020880200201C0D00200B
:100C2C00FEE780B400AF00BFBD4680BC704780B407
:100C3C0000AFFEE780B400AFFEE780B400AFFEE784
:100C4C0080B400AFFEE780B400AF00BFBD4680BCEF
:100C5C00704780B400AF00BFBD4680BC704780B405
:100C6C0000AF00BFBD4680BC704780B500AF00F040
:100C7C0019FB00BF80BD000080B582B000AF40F210
:100C8C0025510C48FFF701FF0346002B0DD00948F6
:100C9C00FFF7D1FE0346FB71FB79184600F09AFC76
:100CAC0040F225510348FFF74AFF00BF0837BD4605
:100CBC0080BD00BF0038014080B582B000AF40F26B
:100CCC0025510C48FFF7E1FE0346002B0DD00948D7
:100CDC00FFF7B1FE0346FB71FB79184600F068FC88
:100CEC0040F225510348FFF72AFF00BF0837BD46E5
:100CFC0080BD00BF0044004080B500AF154A154BC5
:100D0C001B6843F0010313601249124B5A68124BD3
:100D1C0013404B600F4A0F4B1B6823F0847323F472
:100D2C00803313600B4A0B4B1B6823F48023136036
:100D3C00084A084B5B6823F4FE035360054B4FF4E1
:100D4C001F029A6000F078F8044B4FF000629A6032
:100D5C0000BF80BD001002400000FFF800ED00E075
:100D6C0080B485B000AF0023FB600023BB60002380
:100D7C007B602C4B5B6803F00C03FB60FB68042B63
:100D8C0007D0082B09D0002B33D1274B274A1A60E8
:100D9C0033E0254B254A1A602FE0224B5B6803F4A5
:100DAC007013BB601F4B5B6803F480337B60BB68C4
:100DBC009B0C0233BB607B68002B06D1BB681C4AC2
:100DCC0002FB03F3184A136017E0164B5B6803F43D
:100DDC000033002B06D0BB68154A02FB03F3124A02
:100DEC0013600AE0BB68114A02FB03F30E4A13605E
:100DFC0003E00D4B0D4A1A6000BF0A4B5B681B09E0
:100E0C0003F00F030B4AD35CDBB2FB60064B1A6892
:100E1C00FB6822FA03F3044A136000BF1437BD4683
:100E2C0080BC7047001002401400002000127A00B1
:100E3C0000093D001800002080B500AF00F002F85A
:100E4C0000BF80BD80B483B000AF00237B60002363
:100E5C003B603A4A394B1B6843F480331360374B81
:100E6C001B6803F400333B607B6801337B603B6899
:100E7C00002B03D17B68B3F5A06FF0D12F4B1B680F
:100E8C0003F40033002B02D001233B6001E000236C
:100E9C003B603B68012B4BD1294A294B1B6843F023
:100EAC0010031360264A264B1B6823F003031360C0
:100EBC00234A234B1B6843F0020313601F4A1F4B4A
:100ECC005B6853601D4A1D4B5B6853601B4A1B4B90
:100EDC005B6843F480635360184A184B5B6823F4D7
:100EEC007C135360154A154B5B6843F4E81353604D
:100EFC00124A124B1B6843F08073136000BF0F4BF8
:100F0C001B6803F00073002BF9D00C4A0B4B5B6889
:100F1C0023F003035360094A084B5B6843F0020358
:100F2C00536000BF054B5B6803F00C03082BF9D131
:100F3C0000BF0C37BD4680BC704700BF001002409C
:100F4C000020024080B584B000AFF860B9607A60D0
:100F5C00FB68002B05D0BB68002B02D07B68002BF4
:100F6C0001D100230BE010220021F86801F039FFB9
:100F7C00FB687A685A60FB68BA681A6001231846E5
:100F8C001037BD4680BD80B588B000AFF860B96041
:100F9C007A60BB68FB61FB68002B0DD0FB681B689B
:100FAC00002B09D0FB685B68002B05D0BB68002BBD
:100FBC0002D07B68002B01D1002347E0F86800F0D9
:100FCC00B0F8B8617A68BB69934228BF13467B605E
:100FDC007B68002B01D1002338E0FB685A68FB6862
:100FEC00DB68D21A7B68934228BF13467B61FB688F
:100FFC001A68FB68DB6813447A69F969184601F0D2
:10100C00E5FEFB68DA687B691A44FB68DA607A688B
:10101C007B69D31A7B607B68002B0BD0FB6818684C
:10102C00FA697B6913447A68194601F0CFFEFB68B4
:10103C007A68DA60FB68DA68FB685B689A4202D30C
:10104C00FB680022DA607A697B6813441846203703
:10105C00BD4680BD80B588B000AFF860B9607A60DD
:10106C00BB68FB61FB68002B0DD0FB681B68002B79
:10107C0009D0FB685B68002B05D0BB68002B02D045
:10108C007B68002B01D1002347E0F86800F07FF863
:10109C00B8617A68BB69934228BF13467B607B6852
:1010AC00002B01D1002338E0FB685A68FB689B6871
:1010BC00D21A7B68934228BF13467B61FB681A687F
:1010CC00FB689B6813447A691946F86901F07EFE47
:1010DC00FB689A687B691A44FB689A607A687B693A
:1010EC00D31A7B607B68002B0BD0FA697B69D01814
:1010FC00FB681B687A68194601F068FEFB687A6821
:10110C009A60FB689A68FB685B689A4202D3FB683A
:10111C0000229A607A697B68134418462037BD46D2
:10112C0080BD80B487B000AF78607B68002B07D09F
:10113C007B681B68002B03D07B685B68002B01D19C
:10114C0000231FE07B68DB683B617B689B68FB606E
:10115C003A69FB689A4203D17B685B687B610FE05C
:10116C00FA683B699A4204D9FA683B69D31A7B61E5
:10117C0006E07B685A68F9683B69CB1A13447B61BB
:10118C007B69013B18461C37BD4680BC704780B458
:10119C0087B000AF78607B68002B07D07B681B683A
:1011AC00002B03D07B685B68002B01D100231DE072
:1011BC007B68DB683B617B689B68FB603A69FB681A
:1011CC009A4202D100237B610FE03A69FB689A4294
:1011DC0004D93A69FB68D31A7B6106E07B685A68CC
:1011EC003969FB68CB1A13447B617B6918461C3741
:1011FC00BD4680BC7047000080B483B000AF03468E
:10120C003960FB7197F90730002B0BDA0D49FB792C
:10121C0003F00F03043B3A68D2B21201D2B20B4472
:10122C001A7609E0084997F907303A68D2B21201E8
:10123C00D2B20B4483F8002300BF0C37BD4680BCF0
:10124C00704700BF00ED00E000E100E080B582B027
:10125C0000AF78607B68B3F1807F01D3012311E08C
:10126C000A4A7B6823F07F43013B53600F214FF008
:10127C00FF30FFF7C1FF054B00229A60034B07229A
:10128C001A60002318460837BD4680BD10E000E008
:10129C0080B400AF024B1B681846BD4680BC70473B
:1012AC00A402002080B400AF044B1B680133034A36
:1012BC00136000BFBD4680BC704700BFA402002075
:1012CC0080B584B000AF7860FFF7E2FFF86000BF34
:1012DC00FFF7DEFF0246FB68D21A7B689A42F7D30F
:1012EC0000BF1037BD4680BD80B582B000AF4FF453
:1012FC008030FFF747F8FFF773F80346FB71FB7973
:10130C00012B28D11020FEF75BFF0220FEF73CFFDB
:10131C000020FFF7E5F80020FFF71AF94FF4806082
:10132C00FFF7FAF84FF4E0114FF48030FFF780F834
:10133C000120FFF79BF800BF3920FFF711FA034695
:10134C00002BF9D00220FFF7A1F800BFFFF7BAF885
:10135C000346082BFAD1FFF703FD00BF0837BD4643
:10136C0080BD000080B500AF0420FEF7F1FE0A4BF3
:10137C001B680A4AA2FB03239B091846FFF766FF6A
:10138C000346002B00D0FEE70F214FF0FF30FFF794
:10139C0033FF00BF80BD00BF14000020D34D62108E
:1013AC0080B582B000AF01210820FFF79DF9012321
:1013BC00BB800323BB711023FB713B1D19460548F1
:1013CC00FEF716FF01210348FEF7CEFF00BF0837DA
:1013DC00BD4680BD000C014080B483B000AF034615
:1013EC00FB71084997F907305B09FA7902F01F0283
:1013FC00012000FA02F241F8232000BF0C37BD4651
:10140C0080BC704700E100E080B483B000AF0346BD
:10141C003960FB7197F90730002B0BDA0D49FB791A
:10142C0003F00F03043B3A68D2B21201D2B20B4460
:10143C001A7609E0084997F907303A68D2B21201D6
:10144C00D2B20B4483F8002300BF0C37BD4680BCDE
:10145C00704700BF00ED00E000E100E080B58AB00D
:10146C0000AF01210420FFF73FF901214FF4804028
:10147C00FFF73AF901214FF40030FFF753F9042339
:10148C00BB84032387F82630182387F8273007F10D
:10149C00240319463F48FEF7ABFE0823BB84042304
:1014AC0087F8273007F1240319463A48FEF7A0FEC7
:1014BC004FF40073BB84032387F82630182387F876
:1014CC00273007F1240319463248FEF791FE4FF4FA
:1014DC008063BB84042387F8273007F12403194663
:1014EC002C48FEF785FE4FF480722B492B48FFF7F2
:1014FC0029FD4FF480722A492A48FFF723FD4FF447
:10150C00E1337B610023BB830C23FB8300237B83B0
:10151C0000233B8400233B8307F114031946224824
:10152C00FFF758F9012240F225511F48FFF72BFA1B
:10153C0001212620FFF768FF2620FFF74DFF012130
:10154C001948FFF701FA4FF4E1337B600023BB81AC
:10155C000C23FB8100237B8100233B8200233B81F6
:10156C003B1D19461148FFF735F9012240F2255170
:10157C000E48FFF708FA02212520FFF745FF25202A
:10158C00FFF72AFF01210948FFF7DEF900BF2837D2
:10159C00BD4680BD00080140A8020020A803002021
:1015AC00B8030020B804002000440040003801407B
:1015BC0080B582B000AF0346FB71FB1D01221946BA
:1015CC000348FFF7E0FC00BF0837BD4680BD00BFF5
:1015DC00A803002080B582B000AF0346FB71FB1D51
:1015EC00012219460348FFF7CEFC00BF0837BD4661
:1015FC0080BD00BFB804002080B582B000AF786019
:10160C000B467B807B881A4679680448FFF722FDDD
:10161C0003469BB218460837BD4680BDB80400206F
:10162C0080B582B000AF0346FB7100BF8021084833
:10163C00FFF710FA0346002BF8D0FB799BB2194642
:10164C000348FFF7E7F900BF0837BD4680BD00BF70
:10165C000044004080B582B000AF0346FB7100BF70
:10166C0080210848FFF7F6F90346002BF8D0FB79E8
:10167C009BB219460348FFF7CDF900BF0837BD46AA
:10168C0080BD00BF0038014080B584B000AF7860E9
:10169C000B467B800023FB8109E0FB897A681344AD
:1016AC001B781846FFF7D6FFFB890133FB81FA89BB
:1016BC007B889A42F1D300BF1037BD4680BD000035
:1016CC0080B500AF40F203520021044801F089FBC1
:1016DC00034B00221A8000BF80BD00BFC80400204D
:1016EC004C0A002080B582B000AF78601D4B93F897
:1016FC000235092B01D900232FE01A4B93F8003542
:10170C00DB01184A13447F227968184601F091FBDB
:10171C00144B93F80035134ADB0113447F3300223A
:10172C001A70104B93F800355A1C0F4B83FB0213A5
:10173C009910D317C91A0B469B000B445B00D11AA6
:10174C00CAB2084B83F80025064B93F802350133D7
:10175C00DAB2044B83F80225012318460837BD463C
:10176C0080BD00BFC80400206766666680B582B085
:10177C0000AF78600B467B801C4B93F80235002B36
:10178C0001D100232DE0194B93F80135DB01174AE9
:10179C0099187B88013B1A46786801F04AFB7B88D4
:1017AC00013B7A68134400221A70104B93F80135F0
:1017BC005A1C0F4B83FB02139910D317C91A0B46F3
:1017CC009B000B445B00D11ACAB2084B83F801256D
:1017DC00064B93F80235013BDAB2044B83F8022531
:1017EC00012318460837BD4680BD00BFC804002041
:1017FC006766666680B582B000AF40E07B793E2BB1
:10180C000DD1264B1B88002B09D1254B3E221A707B
:10181C00234B00225A702248FFF764FF2FE07B799C
:10182C000D2B02D07B790A2B10D11C4B1B88002B63
:10183C0025D01A4B1B881A46194B0021995418486D
:10184C00FFF750FF154B00221A8018E0134B1B8832
:10185C007E2B0AD8114B1B885A1C91B20F4A11804F
:10186C001A4679790E4B995409E00D4B002283F8F6
:10187C007F200B48FFF736FF084B00221A807B1D98
:10188C0001211846FFF7B8FE0346FB80FB88002BAE
:10189C00B4D100BF0837BD4680BD00BF4C0A002044
:1018AC00CC09002080B582B000AF78600B467B80FD
:1018BC007B8819467868FFF759FF034618460837A6
:1018CC00BD4680BD80B400AF034B93F8023518467B
:1018DC00BD4680BC704700BFC804002080B582B0F4
:1018EC0000AF78607868FEF72BFC03469BB2194674
:1018FC007868FFF7C9FE00BF0837BD4680BD90B5BC
:10190C0085B000AF78600023FB8109E0FB897A6821
:10191C0013441B781846FFF783FEFB890133FB81C8
:10192C00FC897868FEF70CFC03469C42EED300BFA2
:10193C001437BD4690BD80B582B000AF78600B46C1
:10194C007B807B68002B02D07B88002B01D100238D
:10195C0014E0FFF7B7FF0346002B01D100230DE085
:10196C007B8819467868FFF79DFF034683F00103D7
:10197C00DBB2002B01D0002300E00123184608370E
:10198C00BD4680BD80B582B000AF78607868FFF747
:10199C00B6FF0348FFF7B3FF00BF0837BD4680BD55
:1019AC00F02F000880B582B000AF78603960FFF787
:1019BC006FFC02467B68D21A3B689A422CBF01230B
:1019CC000023DBB218460837BD4680BD80B582B017
:1019DC0000AF78603960134B00221A75114B00224E
:1019EC0083F828200F4B002283F841200D4B002256
:1019FC005A700C4A7B68D3600A4A3B681361094BE6
:101A0C00002283F83720FFF743FC0246054B5A604F
:101A1C00044B00229A60034B00221A7000BF083757
:101A2C00BD4680BD500A002080B5B6B000AFD14B8A
:101A3C001B78642B00F2B48201A252F823F000BF91
:101A4C00E11B0008FF1B00089D1C0008BB1C0008C4
:101A5C00591D0008771D0008371E0008531E00088A
:101A6C00ED1E00080B1F0008AD1F0008AD1F00087D
:101A7C00AD1F0008AD1F0008AD1F0008AD1F00080A
:101A8C00AD1F0008AD1F0008AD1F0008AD1F0008FA
:101A9C00A51F0008AD1F0008AD1F0008AD1F0008F2
:101AAC00AD1F0008AD1F0008AD1F0008AD1F0008DA
:101ABC00AD1F0008AD1F0008AD1F0008AD1F0008CA
:101ACC00AD1F0008AD1F0008AD1F0008AD1F0008BA
:101ADC00AD1F0008AD1F0008AD1F0008AD1F0008AA
:101AEC00AD1F0008AD1F0008AD1F0008AD1F00089A
:101AFC00AD1F0008AD1F0008AD1F0008AD1F00088A
:101B0C00AD1F0008AD1F0008AD1F0008AD1F000879
:101B1C00AD1F0008AD1F0008AD1F0008AD1F000869
:101B2C00AD1F0008AD1F0008AD1F0008AD1F000859
:101B3C00AD1F0008AD1F0008AD1F0008AD1F000849
:101B4C00AD1F0008AD1F0008AD1F0008AD1F000839
:101B5C00AD1F0008AD1F0008AD1F0008AD1F000829
:101B6C00AD1F0008AD1F0008AD1F0008AD1F000819
:101B7C00AD1F0008AD1F0008AD1F0008AD1F000809
:101B8C00AD1F0008AD1F0008AD1F0008AD1F0008F9
:101B9C00AD1F0008AD1F0008AD1F0008AD1F0008E9
:101BAC00AD1F0008AD1F0008AD1F0008AD1F0008D9
:101BBC00AD1F0008AD1F0008AD1F0008AD1F0008C9
:101BCC00AD1F0008AD1F0008AD1F0008AD1F0008B9
:101BDC00AD1F00086848FFF792FE6848FFF77EFECD
:101BEC00FFF756FB0246634B5A60624B01221A7098
:101BFC00E1E1002387F8D73027E007F150031846BE
:101C0C00FFF7C0FE3A4607F150031146184600F0A4
:101C1C0055FE0346002B18D03B78002B0BD1554BAF
:101C2C0002221A70FFF734FB0246524B5A60012312
:101C3C0087F8D73012E03B78012B06D14D4B14229C
:101C4C001A70012387F8D73008E007F15003802180
:101C5C001846FFF770FE0346002BCED197F8D7300D
:101C6C0083F00103DBB2002B00F09C81414B5B68DD
:101C7C0042F210711846FFF795FE0346002B00F058
:101C8C0091813F48FFF73BFE3A4B14221A7089E1D1
:101C9C003C48FFF734FE3C48FFF720FEFFF7F8FA0C
:101CAC000246344B5A60334B03221A7083E10023F3
:101CBC0087F8D63027E007F150031846FFF762FE8D
:101CCC003A4607F150031146184600F0F7FD03465B
:101CDC00002B18D03B78002B0BD1264B04221A700A
:101CEC00FFF7D6FA0246234B5A60012387F8D63009
:101CFC0012E03B78012B06D11E4B14221A700123E3
:101D0C0087F8D63008E007F1500380211846FFF71A
:101D1C0012FE0346002BCED197F8D63083F0010388
:101D2C00DBB2002B00F04081124B5B6842F2107169
:101D3C001846FFF737FE0346002B00F0358110489C
:101D4C00FFF7DDFD0B4B14221A702DE10F48FFF746
:101D5C00D6FD0F48FFF7C2FDFFF79AFA0246054B76
:101D6C005A60044B05221A7025E1002387F8D53000
:101D7C0038E000BF500A0020F42F0008043000089F
:101D8C0014300008203000083430000858300008A7
:101D9C006C30000807F150031846FFF7F3FD3A4684
:101DAC0007F150031146184600F088FD0346002B3E
:101DBC0018D03B78002B0BD1814B06221A70FFF701
:101DCC0067FA02467E4B5A60012387F8D53012E041
:101DDC003B78012B06D17A4B14221A70012387F819
:101DEC00D53008E007F1500380211846FFF7A3FD1A
:101DFC000346002BCED197F8D53083F00103DBB22C
:101E0C00002B00F0D3806E4B5B6842F210711846C9
:101E1C00FFF7C8FD0346002B00F0C8806948FFF7A8
:101E2C006EFD674B14221A70C0E06748FFF767FD20
:101E3C006648FFF753FDFFF72BFA0246604B5A60DA
:101E4C005F4B07221A70002387F8D43027E007F184
:101E5C0050031846FFF796FD3A4607F1500311461A
:101E6C00184600F02BFD0346002B18D03B78002BB6
:101E7C000BD1534B08221A70FFF70AFA0246504B4B
:101E8C005A60012387F8D43012E03B78012B06D13D
:101E9C004B4B14221A70012387F8D43008E007F159
:101EAC00500380211846FFF746FD0346002BCED188
:101EBC0097F8D43083F00103DBB2002B78D0404B81
:101ECC005B6842F210711846FFF76CFD0346002B5D
:101EDC006ED03C48FFF713FD394B14221A7067E0A3
:101EEC003B48FFF70CFD3B48FFF7F8FCFFF7D0F938
:101EFC000246334B5A60324B09221A705BE00023C6
:101F0C0087F8D33027E007F150031846FFF73AFD66
:101F1C003A4607F150031146184600F0CFFC034631
:101F2C00002B18D03B78002B0BD1254B64221A7058
:101F3C00FFF7AEF90246224B5A60012387F8D330E3
:101F4C0012E03B78012B06D11D4B14221A70012391
:101F5C0087F8D33008E007F1500380211846FFF7CB
:101F6C00EAFC0346002BCED197F8D33083F0010363
:101F7C00DBB2002B1ED0124B5B6842F2107118467C
:101F8C00FFF710FD0346002B14D00E48FFF7B7FCEB
:101F9C000B4B14221A700DE00F48FFF7B0FC0AE04F
:101FAC0000BF08E000BF06E000BF04E000BF02E095
:101FBC0000BF00E000BF00BFD837BD4680BD00BFEA
:101FCC00500A0020143000087C30000898300008BB
:101FDC00A8300008B8300008D030000880B582B0B6
:101FEC0000AF78603960FFF753F902467B68D21A6C
:101FFC003B689A422CBF01230023DBB218460837FA
:10200C00BD4680BD80B582B000AF786039600C4BA6
:10201C0000221A700A4A7B68D360094A3B68136134
:10202C00074B00225A70FFF733F90246044B5A60F3
:10203C00034B00229A6000BF0837BD4680BD00BF2D
:10204C00940B002080B5B6B000AFD44B1B78642B3A
:10205C0000F2A68301A252F823F000BFFD21000874
:10206C0027220008C5220008E3220008812300086B
:10207C009F23000863240008812400081F25000802
:10208C003D250008DB250008F925000897260008E7
:10209C00B5260008AD270008AD270008AD270008BD
:1020AC00AD270008AD270008AD27000879270008E8
:1020BC00AD270008AD270008AD270008AD270008A4
:1020CC00AD270008AD270008AD270008AD27000894
:1020DC00AD270008AD270008AD270008AD27000884
:1020EC00AD270008AD270008AD270008AD27000874
:1020FC00AD270008AD270008AD270008AD27000864
:10210C00AD270008AD270008AD270008AD27000853
:10211C00AD270008AD270008AD270008AD27000843
:10212C00AD270008AD270008AD270008AD27000833
:10213C00AD270008AD270008AD270008AD27000823
:10214C00AD270008AD270008AD270008AD27000813
:10215C00AD270008AD270008AD270008AD27000803
:10216C00AD270008AD270008AD270008AD270008F3
:10217C00AD270008AD270008AD270008AD270008E3
:10218C00AD270008AD270008AD270008AD270008D3
:10219C00AD270008AD270008AD270008AD270008C3
:1021AC00AD270008AD270008AD270008AD270008B3
:1021BC00AD270008AD270008AD270008AD270008A3
:1021CC00AD270008AD270008AD270008AD27000893
:1021DC00AD270008AD270008AD270008AD27000883
:1021EC00AD270008AD270008AD270008AD27000873
:1021FC006A4B00225A706A48FFF781FB6948FFF767
:10220C006DFB6948FFF76AFBFFF742F80246634B28
:10221C005A60624B01221A70D1E2002387F8D73042
:10222C0028E03B461846FFF7ADFB07F180023B4622
:10223C001146184600F042FB0346002B1AD097F8C3
:10224C008030002B0BD1554B02221A70FFF720F86F
:10225C000246524B5A60012387F8D73012E097F8A8
:10226C008030012B06D14D4B14221A70012387F8B4
:10227C00D73007E03B4680211846FFF75CFB03464E
:10228C00002BCED197F8D73083F00103DBB2002BB3
:10229C0000F08882414B5B6842F210711846FFF7E0
:1022AC009DFE0346002B00F07D824048FFF727FB84
:1022BC003A4B14221A7075E23D48FFF720FB3D485B
:1022CC00FFF70CFBFEF7E4FF0246344B5A60334B2E
:1022DC0003221A7073E2002387F8D63028E03B46BD
:1022EC001846FFF74FFB07F180023B461146184694
:1022FC0000F0E4FA0346002B1AD097F88030032B39
:10230C000BD1264B04221A70FEF7C2FF0246234B58
:10231C005A60012387F8D63012E097F88030012BF1
:10232C0006D11E4B14221A70012387F8D63007E011
:10233C003B4680211846FFF7FEFA0346002BCED110
:10234C0097F8D63083F00103DBB2002B00F02C821F
:10235C00124B5B6842F210711846FFF73FFE0346C2
:10236C00002B00F021821148FFF7C9FA0B4B142205
:10237C001A7019E21048FFF7C2FA1048FFF7AEFACC
:10238C00FEF786FF0246054B5A60044B05221A7075
:10239C0015E2002387F8D5303BE000BF940B0020FA
:1023AC00D8300008F8300008003100080831000867
:1023BC0014310008303100083C3100086431000849
:1023CC003B461846FFF7DEFA07F180023B46114602
:1023DC00184600F073FA0346002B1AD097F8803099
:1023EC00042B0BD1C74B06221A70FEF751FF024685
:1023FC00C44B5A60012387F8D53012E097F880302F
:10240C00012B06D1BF4B14221A70012387F8D5304B
:10241C0007E03B4680211846FFF78DFA0346002B58
:10242C00CED197F8D53083F00103DBB2002B00F04E
:10243C00BD81B44B5B6842F210711846FFF7CEFDBC
:10244C000346002B00F0B281AF48FFF758FAAD4BB2
:10245C0014221A70AAE1AD48FFF751FAAC48FFF705
:10246C003DFAFEF715FF0246A64B5A60A54B072214
:10247C001A70A4E1002387F8D43028E03B461846B4
:10248C00FFF780FA07F180023B461146184600F030
:10249C0015FA0346002B1AD097F88030002B0BD17D
:1024AC00984B08221A70FEF7F3FE0246954B5A60C1
:1024BC00012387F8D43012E097F88030012B06D135
:1024CC00904B14221A70012387F8D43007E03B4656
:1024DC0080211846FFF72FFA0346002BCED197F830
:1024EC00D43083F00103DBB2002B00F06181854B0B
:1024FC005B6842F210711846FFF770FD0346002B23
:10250C0000F056818048FFF7FAF97E4B14221A70BE
:10251C004EE18048FFF7F3F97F48FFF7DFF9FEF74C
:10252C00B7FE0246774B5A60764B09221A7046E189
:10253C00002387F8D33028E03B461846FFF722FAF1
:10254C0007F180023B461146184600F0B7F90346E6
:10255C00002B1AD097F88030002B0BD1694B0A2234
:10256C001A70FEF795FE0246664B5A60012387F8F7
:10257C00D33012E097F88030012B06D1614B142236
:10258C001A70012387F8D33007E03B4680211846A8
:10259C00FFF7D1F90346002BCED197F8D33083F057
:1025AC000103DBB2002B00F00581564B5B6842F255
:1025BC0010711846FFF712FD0346002B00F0FA804D
:1025CC005148FFF79CF94F4B14221A70F2E0534814
:1025DC00FFF795F95248FFF781F9FEF759FE0246CD
:1025EC00484B5A60474B0B221A70E8E0002387F8DF
:1025FC00D23028E03B461846FFF7C4F907F18002B9
:10260C003B461146184600F059F90346002B1AD0E8
:10261C0097F88030002B0BD13A4B0C221A70FEF736
:10262C0037FE0246374B5A60012387F8D23012E04E
:10263C0097F88030012B06D1324B14221A700123EB
:10264C0087F8D23007E03B4680211846FFF773F934
:10265C000346002BCED197F8D23083F00103DBB2C6
:10266C00002B00F0A980274B5B6842F210711846D2
:10267C00FFF7B4FC0346002B00F09E802248FFF7C6
:10268C003EF9204B14221A7096E02648FFF737F9D2
:10269C002548FFF723F9FEF7FBFD0246194B5A605C
:1026AC00184B0D221A708AE0002387F8D1303DE0D8
:1026BC003B461846FFF766F907F180023B46114688
:1026CC00184600F0FBF80346002B2FD097F880300B
:1026DC00002B0BD10B4B64221A70FEF7D9FD02466E
:1026EC00084B5A60012387F8D13027E097F88030E7
:1026FC00012B1BD1034B14221A70012387F8D13004
:10270C001CE000BF940B0020083100087031000859
:10271C008C31000898310008B0310008C031000835
:10272C00D4310008F0310008083200083B46802103
:10273C001846FFF700F90346002BB9D197F8D130B2
:10274C0083F00103DBB2002B38D01F4B5B6842F2E5
:10275C0010711846FFF742FC0346002B2ED01B4885
:10276C00FFF7CDF8184B14221A7027E0164B5B7844
:10277C000133DAB2144B5A70134B5B78032B03D929
:10278C001348FFF7BCF81AE01248FFF7B8F80E4BE5
:10279C0000221A70FEF77CFD02460B4B5A600EE0CD
:1027AC0000BF0CE000BF0AE000BF08E000BF06E07D
:1027BC0000BF04E000BF02E000BF00E000BF00BFAC
:1027CC00D837BD4680BD00BF940B002008310008EF
:1027DC00143200082C32000880B400AF054B1B7873
:1027EC00642B01D1012300E000231846BD4680BCB8
:1027FC00704700BF940B002080B582B000AF7860AA
:10280C003960134A7B68D360114A3B681361104BE3
:10281C0000221A70FEF73CFD02460D4B5A600C4B21
:10282C0000229A600A4B00225A70094B00221A753A
:10283C00074B002283F82820054B002283F8C82080
:10284C000448FFF74BF800BF0837BD4680BD00BFFA
:10285C00A80B00203832000880B582B000AF786039
:10286C0039600F4B00221A700D4B00225A70FEF784
:10287C000FFD02460A4B5A60094B00229A60084A27
:10288C007B68D360064A3B681361054B00221A75BE
:10289C00034B002283F8282000BF0837BD4680BDBB
:1028AC00740C002080B582B000AF7860786800F0BE
:1028BC0065FA034618460837BD4680BD80B594B00E
:1028CC0000AF786039607B68002B02D03B68002B2E
:1028DC0001D1002347E250220021386800F081FA30
:1028EC003B680B221A707868FDF72AFCF86402E04A
:1028FC00FB6C013BFB64FB6C002B0DD0FB6C013BB8
:10290C007A6813441B780D2BF2D0FB6C013B7A6870
:10291C0013441B780A2BEBD0FB6C002B01D100234A
:10292C0021E2FB6C012B08D97B681B78412B04D16D
:10293C007B6801331B78542B0AD0FB6C022B09D912
:10294C0003229B49786800F062FA0346002B01D100
:10295C00002308E2FB6C022B0DD17B681B784F2BFC
:10296C0009D17B6801331B784B2B04D13B680022C7
:10297C001A700123F7E1FB6C052B0CD105228D4954
:10298C00786800F044FA0346002B04D13B6801221E
:10299C001A700123E7E1FB6C0A2B21D90B22864923
:1029AC00786800F034FA0346002B19D17B680B339E
:1029BC00BB6402E0BB6C0133BB64BB6C1B78202B8B
:1029CC00F8D0BB6C1B78092BF4D0B86CFFF76AFFFE
:1029DC0002463B685A603B6802221A700123C2E12E
:1029EC00FB6C052B19D906227449786800F00FFA94
:1029FC000346002B11D1FB6C0B2B0ED97B680733D4
:102A0C0005226F49184600F002FA0346002B04D148
:102A1C003B6803221A700123A5E1FB6C052B3DD901
:102A2C0006226849786800F0F2F90346002B35D18C
:102A3C007B6806337B643B684FF0FF325A603B681F
:102A4C004FF0FF329A6002E07B6C01337B647B6C4D
:102A5C001B783A2BF8D07B6C1B78202BF4D07B6C3A
:102A6C001B78092BF0D0786CFFF71CFF02463B68F3
:102A7C005A602C21786C00F0BCF9F861FB69002BD2
:102A8C0007D0FB6901331846FFF70CFF02463B6881
:102A9C009A603B6804221A70012364E1FB6C062BDC
:102AAC003DD907224849786800F0B1F90346002B5C
:102ABC0035D17B6807333B643B684FF0FF325A607B
:102ACC003B684FF0FF329A6002E03B6C01333B6491
:102ADC003B6C1B783A2BF8D03B6C1B78202BF4D03A
:102AEC003B6C1B78092BF0D0386CFFF7DBFE0246F1
:102AFC003B685A602C21386C00F07BF9B861BB69DB
:102B0C00002B07D0BB6901331846FFF7CBFE0246FA
:102B1C003B689A603B6805221A70012323E1FB6C29
:102B2C00042B35D905222949786800F070F9034641
:102B3C00002B2DD17B680533FB6302E0FB6B01336B
:102B4C00FB63FB6B1B783A2BF8D0FB6B1B78202BB1
:102B5C00F4D0FB6B1B78092BF0D0F86BFFF7A2FEBF
:102B6C0002463B685A602C21F86B00F042F9786100
:102B7C007B69002B07D07B6901331846FFF792FE67
:102B8C0002463B689A603B6806221A700123EAE011
:102B9C00FB6C092B1ED90B220D49786800F037F914
:102BAC000346002B16D13B6807221A700123DAE08A
:102BBC0090320008943200089C320008A8320008B9
:102BCC00B0320008B8320008C0320008C832000821
:102BDC00D0320008FB6C052B47D906226449786873
:102BEC0000F015F90346002B3FD12221786800F044
:102BFC0000F938613B69002B32D03B69013322214B
:102C0C00184600F0F6F8F860FB68002B28D0FB683B
:102C1C003A6901329B1ABB63BB6B3F2B01D93F2333
:102C2C00BB633B6803F110003B690133BA6B194677
:102C3C0000F0CCF83A68BB6B1344103300221A70C6
:102C4C002C21F86800F0D5F8B860BB68002B07D0D1
:102C5C00BB6801331846FFF725FE02463B685A60F5
:102C6C003B6808221A7001237DE0FB6C052B50D9C0
:102C7C0006224049786800F0CAF80346002B48D178
:102C8C007B6806337B6300233B630023FB620023DA
:102C9C00BB6219E07B6B1B78222B12D13B6B01338F
:102CAC003B633B6B032B03D17B6B0133FB6208E073
:102CBC003B6B042B05D1FB6A002B02D07B6BBB62F8
:102CCC0006E07B6B01337B637B6B1B78002BE1D1C4
:102CDC00FB6A002B18D0BB6A002B15D0BA6AFB6AB2
:102CEC00D31A7B627B6A3F2B01D93F237B623B6803
:102CFC0010337A6AF96A184600F068F83A687B6A09
:102D0C001344103300221A703B6809221A700123F5
:102D1C0029E0FB6C052B25D906221749786800F0B1
:102D2C0076F80346002B1DD17B6806333B6202E02C
:102D3C003B6A01333B623B6A1B783A2BF8D03B6A07
:102D4C001B78202BF4D03B6A1B78092BF0D0386A07
:102D5C00FFF7A8FD02463B685A603B680A221A70CE
:102D6C00012300E0002318465037BD4680BD00BF4C
:102D7C00DC320008E4320008EC3200080A220021A0
:102D8C0000F0ECB870B500250C4E0D4CA41BA41033
:102D9C00A54209D100F01AF900250A4E0A4CA41BD1
:102DAC00A410A54205D170BD56F8253098470135C1
:102DBC00EEE756F8253098470135F2E70034000865
:102DCC0000340008003400080434000810B5431E19
:102DDC000A44914200D110BD11F8014B03F8014F88
:102DEC00F7E703460244934200D1704703F8011BF6
:102DFC00F9E7C9B2034610F8012B1AB19142F9D187
:102E0C001846704700290CBF18460020704710B5B3
:102E1C006AB10139841810F8013B11F8012F934263
:102E2C0003D1A04201D0002BF5D1981A10BD104649
:102E3C0010BD70B5044602B970BD234611F8015B94
:102E4C00561E03F8015B1DB91444A34203D170BD97
:102E5C001C463246EFE703F8015BF6E72DE9F84F25
:102E6C008046894692461F468B465D460A9815F861
:102E7C00014B00F089F82044467816F008060BD177
:102E8C002D2C0BD101262C780BF1020567B1102FDC
:102E9C0014D1302C0AD011E0AB46E6E72B2C04BF42
:102EAC002C780BF10205F1E7302C27D12B7803F0AD
:102EBC00DF03582B4BD110276C780235002E0CBF3A
:102ECC006FF000414FF000410022B1FBF7FE1046BD
:102EDC0007FB1E1CA4F13003092B11D81C46A7427A
:102EEC001DDD531C07D0864516D301D1A44513DB39
:102EFC00012200FB074015F8014BEBE70A27DDE741
:102F0C00A4F14103192B01D8373CE8E7A4F1610384
:102F1C00192B04D8573CE2E74FF0FF32EBE7531C78
:102F2C0008D122230846C8F80030BAF1000F07D1A7
:102F3C00BDE8F88F06B14042BAF1000F0CD022B1B7
:102F4C00013DCAF80050BDE8F88F4D46F9E7302432
:102F5C00002FB3D10827B1E7BDE8F88F084B37B580
:102F6C001C68084D236A002B08BF2B4600931346A0
:102F7C000A4601462046FFF771FF03B030BD00BF83
:102F8C00280000201C010020D0F8EC00704782B013
:102F9C0001B901A942B14BB113780B601278101C26
:102FAC0018BF012002B070471046FBE76FF001001C
:102FBC00F8E749B1FF2A8BBF8A230A70036001200E
:102FCC0088BF4FF0FF30704708467047F8B500BF18
:102FDC00F8BC08BC9E467047F8B500BFF8BC08BCEE
:042FEC009E46704746
:102FF0000D0A00003E3E3E207365742067707273B8
:10300000200D0A0041542B43474154543D310D0AD1
:103010000000000074696D65206F7574200D0A0052
:103020003E3E3E206B6861692062616F20504450D3
:10303000200D0A0041542B434744434F4E543D3129
:103040002C224950222C22762D696E7465726E6591
:1030500074220D0A000000003E3E3E206163746948
:1030600076617465205044500D0A000041542B4392
:10307000474143543D312C310D0A00003E3E3E2075
:103080006B686F692074616F20706869656E206875
:10309000747470200D0A000041542B485454504958
:1030A0004E49540D0A0000003E3E3E2073657420D8
:1030B0004349440D0A00000041542B4854545050D9
:1030C0004152413D22434944222C310D0A00000067
:1030D0006C6F69200D0A00003E3E3E206368656308
:1030E0006B20415420616E64206F66662041544518
:1030F00030200D0A00000000415445300D0A000048
:1031000041540D0A0000000074696D65206F7574EC
:10311000200D0A003E3E3E20636865636B2074729A
:10312000616E6720746861692073696D200D0A0003
:1031300041542B4350494E3F0D0A00003E3E3E2075
:10314000636865636B207472616E6720746861697F
:103150002064616E67206B69206D616E67200D0AC7
:103160000000000041542B435245473F0D0A000028
:103170003E3E3E206261742063686520646F207368
:103180006D7320746578740D0A00000041542B4360
:103190004D47463D310D0A003E3E3E206368617258
:1031A0007365742047534D20372D6269740D0A00F2
:1031B00041542B435343533D2247534D220D0A00A4
:1031C0003E3E3E2063686F6E20626F206E686F0D1A
:1031D0000A00000041542B43504D533D224D4522DF
:1031E0002C224D45222C224D45220D0A00000000C4
:1031F0003E3E3E20626174206C6F692063686920E6
:10320000746965740D0A000041542B434D45453DDA
:10321000310D0A0074686174206261692064612064
:1032200072657472792033200D0A00007265747221
:10323000792E2E2E0D0A000041542B434E4D493D50
:10324000322C312C302C302C300D0A0041542B43C1
:103250004D47523D25640D0A0000000041542B43A8
:103260004D47443D25640D0A0000000074686174F8
:103270002062616920646120726574727920332054
:103280000D0A000072657472792E2E2E0D0A000050
:1032900041542B004552524F520000002B434D45E4
:1032A000204552524F523A002B4350494E3A0000AB
:1032B00052454144590000002B435245473A000013
:1032C0002B43475245473A002B4353513A000000E5
:1032D0002B5044503A204445414354002B434D5415
:1032E000493A00002B434D47523A00002B434D47CB
:1032F000533A004300504F534958002E00002020FD
:103300002020202020202028282828282020202095
:103310002020202020202020202020202020881055
:1033200010101010101010101010101010100404B5
:1033300004040404040404041010101010101041BC
:10334000414141414101010101010101010101012D
:1033500001010101010101010110101010101042C2
:1033600042424242420202020202020202020202FD
:1033700002020202020202020210101010200000DB
:10338000000000000000000000000000000000003D
:10339000000000000000000000000000000000002D
:1033A000000000000000000000000000000000001D
:1033B000000000000000000000000000000000000D
:1033C00000000000000000000000000000000000FD
:1033D00000000000000000000000000000000000ED
:1033E00000000000000000000000000000000000DD
:1033F00000000000000000000000000000000000CD
:04340000310100088E
:043404000D010008AE
:103408000000000001020304010203040607080982
:103418000204060800A24A040000000000000000A0
:1034280001020304060708092C0000200000000020
:103438000000000000000000000000000000000084
:103448000000000000000000000000000000000074
:103458000000000000000000000000000000000064
:103468000000000000000000000000000000000054
:103478000000000000000000000000000000000044
:103488000000000000000000000000000000000034
:103498000000000000000000000000000000000024
:1034A8000000000000000000000000000000000014
:1034B8000000000000000000000000000000000004
:1034C80000000000000000000000000000000000F4
:1034D80000000000000000000000000000000000E4
:1034E80000000000000000000000000000000000D4
:1034F80000000000000000000000000000000000C4
:1035080000000000000000000000000000000000B3
:103518000000000000000000000000004300000060
:103528000000000000000000000000000000000093
:103538000000000000000000000000004300000040
:103548000000000000000000000000000000000073
:103558000000000000000000000000004300000020
:103568000000000000000000000000000000000053
:103578000000000000000000000000004300000000
:103588000000000000000000000000000000000033
:1035980000000000000000000000000043000000E0
:1035A8000000000000000000000000000000000013
:1035B80000000000000000000000000043000000C0
:1035C80000000000000000000000000000000000F3
:1035D80000000000000000000000000043000000A0
:1035E80000000000000000000000000000000000D3
:1035F800000000000000000000000000BF2F0008CD
:103608009B2F000800000000FD320008FB32000874
:10361800FC320008FC320008FC320008FC320008CA
:10362800FC320008FC320008FC320008FC320008BA
:10363800FC320008FFFFFFFFFFFFFFFFFFFFFFFF58
:10364800FFFF00000100415343494900000000000A
:103658000000000000000000000000000000000062
:1036680000000000000041534349490000000000E9
:103678000000000000000000000000000000000042
:0836880000000000000000003A
:0400000508000BDD07
:00000001FF
