:020000040800F2
:1000000000500020F91D00084B1E0008571E000874
:100010005D1E0008631E0008691E00080000000045
:100020000000000000000000000000006F1E00083B
:100030007B1E000800000000871E0008931E0008B9
:10004000491E0008491E0008491E0008491E0008F4
:10005000491E0008491E0008491E0008491E0008E4
:10006000491E0008491E0008491E0008491E0008D4
:10007000491E0008491E0008491E0008491E0008C4
:10008000491E0008491E0008491E0008491E0008B4
:10009000491E0008491E0008491E0008491E0008A4
:1000A000491E0008491E0008491E0008491E000894
:1000B000491E0008491E0008491E0008491E000884
:1000C000491E0008491E0008491E0008491E000874
:1000D000491E0008A11E0008E11E0008491E000874
:1000E000491E0008491E0008491E000800000000C3
:1000F0000000000000000000000000000000000000
:0C01000000000000000000005FF808F1A3
:1001100010B5054C237833B9044B13B10448AFF341
:1001200000800123237010BD9C0600200000000009
:1001300024C7000808B5034B1BB103490348AFF3BC
:10014000008008BD00000000A006002024C70008B1
:1001500010F8012B11F8013B012A28BF9A42F7D071
:10016000D01A7047034613F8012B002AFBD1181A46
:100170000138704781F0004102E000BF83F0004386
:1001800030B54FEA41044FEA430594EA050F08BF32
:1001900090EA020F1FBF54EA000C55EA020C7FEAF6
:1001A000645C7FEA655C00F0E2804FEA5454D4EB73
:1001B0005555B8BF6D420CDD2C4480EA020281EA3D
:1001C000030382EA000083EA010180EA020281EA75
:1001D0000303362D88BF30BD11F0004F4FEA0131C7
:1001E0004FF4801C4CEA113102D0404261EB4101D6
:1001F00013F0004F4FEA03334CEA133302D052425C
:1002000063EB430394EA050F00F0A780A4F1010417
:10021000D5F1200E0DDB02FA0EFC22FA05F2801851
:1002200041F1000103FA0EF2801843FA05F3594137
:100230000EE0A5F120050EF1200E012A03FA0EFCB6
:1002400028BF4CF0020C43FA05F3C01851EBE371E0
:1002500001F0004507D54FF0000EDCF1000C7EEBFD
:1002600000006EEB0101B1F5801F1BD3B1F5001F3B
:100270000CD349085FEA30004FEA3C0C04F101045A
:100280004FEA445212F5800F80F09A80BCF1004F83
:1002900008BF5FEA500C50F1000041EB045141EA05
:1002A000050130BD5FEA4C0C404141EB010111F406
:1002B000801FA4F10104E9D191F0000F04BF0146B1
:1002C0000020B1FA81F308BF2033A3F10B03B3F18F
:1002D00020020CDA0C3208DD02F1140CC2F10C021F
:1002E00001FA0CF021FA02F10CE002F11402D8BF7D
:1002F000C2F1200C01FA02F120FA0CFCDCBF41EA49
:100300000C019040E41AA2BF01EB0451294330BD17
:100310006FEA04041F3C1CDA0C340EDC04F11404F4
:10032000C4F1200220FA04F001FA02F340EA0300CB
:1003300021FA04F345EA030130BDC4F10C04C4F111
:10034000200220FA02F001FA04F340EA03002946F1
:1003500030BD21FA04F0294630BD94F0000F83F43B
:10036000801306BF81F480110134013D4EE77FEA1E
:10037000645C18BF7FEA655C29D094EA050F08BF6A
:1003800090EA020F05D054EA000C04BF194610464B
:1003900030BD91EA030F1EBF0021002030BD5FEA8F
:1003A000545C05D14000494128BF41F0004130BDB7
:1003B00014F580043CBF01F5801130BD01F000450B
:1003C00045F0FE4141F470014FF0000030BD7FEA7E
:1003D000645C1ABF194610467FEA655C1CBF0B4679
:1003E000024650EA013406BF52EA033591EA030F90
:1003F00041F4002130BD00BF90F0000F04BF002188
:10040000704730B54FF4806404F132044FF00005BA
:100410004FF0000150E700BF90F0000F04BF002133
:10042000704730B54FF4806404F1320410F0004599
:1004300048BF40424FF000013EE700BF42004FEA94
:10044000E2014FEA31014FEA02701FBF12F07F4311
:1004500093F07F4F81F06051704792F0000F14BF0E
:1004600093F07F4F704730B54FF4607401F0004552
:1004700021F0004120E700BF50EA010208BF7047A9
:1004800030B54FF000050AE050EA010208BF70479E
:1004900030B511F0004502D5404261EB41014FF407
:1004A000806404F132045FEA915C3FF4DCAE4FF00B
:1004B00003025FEADC0C18BF03325FEADC0C18BFF2
:1004C000033202EBDC02C2F1200300FA03FC20FA43
:1004D00002F001FA03FE40EA0E0021FA02F1144490
:1004E000C1E600BF70B54FF0FF0C4CF4E06C1CEAA5
:1004F00011541DBF1CEA135594EA0C0F95EA0C0F1A
:1005000000F0DEF82C4481EA030621EA4C5123EA8C
:100510004C5350EA013518BF52EA033541F48011BB
:1005200043F4801338D0A0FB02CE4FF00005E1FB6E
:1005300002E506F00042E0FB03E54FF00006E1FBB8
:1005400003569CF0000F18BF4EF0010EA4F1FF04FB
:10055000B6F5007F64F5407404D25FEA4E0E6D413B
:1005600046EB060642EAC62141EA55514FEAC5204C
:1005700040EA5E504FEACE2EB4F1FD0C88BFBCF5C8
:10058000E06F1ED8BEF1004F08BF5FEA500E50F179
:10059000000041EB045170BD06F0004646EA01013F
:1005A00040EA020081EA0301B4EB5C04C2BFD4EB71
:1005B0000C0541EA045170BD41F480114FF0000E6A
:1005C000013C00F3AB8014F1360FDEBF002001F0D8
:1005D000004170BDC4F10004203C35DA0C341BDC52
:1005E00004F11404C4F1200500FA05F320FA04F024
:1005F00001FA05F240EA020001F0004221F0004158
:1006000010EBD37021FA04F642EB06015EEA430ECA
:1006100008BF20EAD37070BDC4F10C04C4F12005FA
:1006200000FA04F320FA05F001FA04F240EA0200AD
:1006300001F0004110EBD37041F100015EEA430E7E
:1006400008BF20EAD37070BDC4F1200500FA05F29E
:100650004EEA020E20FA04F301FA05F243EA02031D
:1006600021FA04F001F0004121FA04F220EA02002C
:1006700000EBD3705EEA430E08BF20EAD37070BD72
:1006800094F0000F0FD101F00046400041EB010152
:1006900011F4801F08BF013CF7D041EA060195F034
:1006A000000F18BF704703F00046520043EB0303EE
:1006B00013F4801F08BF013DF7D043EA06037047DB
:1006C00094EA0C0F0CEA135518BF95EA0C0F0CD0E6
:1006D00050EA410618BF52EA4306D1D181EA03012C
:1006E00001F000414FF0000070BD50EA410606BF26
:1006F0001046194652EA430619D094EA0C0F02D16B
:1007000050EA013613D195EA0C0F05D152EA0336AF
:100710001CBF104619460AD181EA030101F00041CD
:1007200041F0FE4141F470014FF0000070BD41F016
:10073000FE4141F4780170BD70B54FF0FF0C4CF4F0
:10074000E06C1CEA11541DBF1CEA135594EA0C0F0F
:1007500095EA0C0F00F0A7F8A4EB050481EA030E5C
:1007600052EA03354FEA013100F088804FEA033343
:100770004FF0805545EA131343EA12634FEA022211
:1007800045EA111545EA10654FEA00260EF00041D2
:100790009D4208BF964244F1FD0404F5407402D224
:1007A0005B084FEA3202B61A65EB03055B084FEAB5
:1007B00032024FF480104FF4002CB6EB020E75EBB2
:1007C000030E22BFB61A754640EA0C005B084FEADA
:1007D0003202B6EB020E75EB030E22BFB61A754657
:1007E00040EA5C005B084FEA3202B6EB020E75EBA2
:1007F000030E22BFB61A754640EA9C005B084FEA1A
:100800003202B6EB020E75EB030E22BFB61A754626
:1008100040EADC0055EA060E18D04FEA051545EA15
:1008200016754FEA06164FEAC30343EA52734FEABE
:10083000C2025FEA1C1CC0D111F4801F0BD141EA37
:1008400000014FF000004FF0004CB6E711F4801F9C
:1008500004BF01430020B4F1FD0C88BFBCF5E06F7C
:100860003FF6AFAEB5EB030C04BFB6EB020C5FEA8C
:10087000500C50F1000041EB045170BD0EF0004EE1
:100880004EEA113114EB5C04C2BFD4EB0C0541EA13
:10089000045170BD41F480114FF0000E013C90E610
:1008A00045EA060E8DE60CEA135594EA0C0F08BFD4
:1008B00095EA0C0F3FF43BAF94EA0C0F0AD150EAD3
:1008C00001347FF434AF95EA0C0F7FF425AF104666
:1008D00019462CE795EA0C0F06D152EA03353FF48E
:1008E000FDAE1046194622E750EA410618BF52EA0B
:1008F00043067FF4C5AE50EA41047FF40DAF52EADF
:1009000043057FF4EBAE12E74FF0FF3C06E000BF7B
:100910004FF0010C02E000BF4FF0010C4DF804CD88
:100920004FEA410C7FEA6C5C4FEA430C18BF7FEA48
:100930006C5C1BD001B050EA410C0CBF52EA430C76
:1009400091EA030F02BF90EA020F0020704710F1F6
:10095000000F91EA030F58BF994208BF90422CBF85
:10096000D8176FEAE37040F0010070474FEA410C7E
:100970007FEA6C5C02D150EA013C07D14FEA430C9C
:100980007FEA6C5CD6D152EA033CD3D05DF8040B0D
:10099000704700BF8446104662468C46194663463F
:1009A00000E000BF01B5FFF7B7FF002848BF10F116
:1009B000000F01BD4DF808EDFFF7F4FF0CBF01205B
:1009C00000205DF808FB00BF4DF808EDFFF7EAFFD7
:1009D00034BF012000205DF808FB00BF4DF808ED92
:1009E000FFF7E0FF94BF012000205DF808FB00BF87
:1009F0004DF808EDFFF7CEFF94BF012000205DF811
:100A000008FB00BF4DF808EDFFF7C4FF34BF01201D
:100A100000205DF808FB00BF4FEA410C7FEA6C5CE8
:100A200002D150EA013C0AD14FEA430C7FEA6C5CE8
:100A300002D152EA033C02D14FF0000070474FF060
:100A4000010070474FEA410212F5001215D211D58C
:100A50006FF47873B3EB625212D94FEAC12343F0BB
:100A6000004343EA505311F0004F23FA02F018BF3D
:100A7000404270474FF00000704750EA013005D106
:100A800011F0004008BF6FF0004070474FF00000C9
:100A9000704700BF4A0011D212F5001211D20DD5D5
:100AA0006FF47873B3EB62520ED44FEAC12343F074
:100AB000004343EA505323FA02F070474FF000001E
:100AC000704750EA013002D14FF0FF3070474FF0CD
:100AD000000070474FEA4102B2F1E04324BFB3F592
:100AE000001CDCF1FE5C0DD901F0004C4FEAC002A5
:100AF0004CEA5070B2F1004F40EB830008BF20F089
:100B00000100704711F0804F21D113F13872BCBF42
:100B100001F00040704741F480114FEA5252C2F197
:100B20001802C2F1200C10FA0CF320FA02F018BFE0
:100B300040F001004FEAC1234FEAD32303FA0CFC33
:100B400040EA0C0023FA02F34FEA4303CCE77FEAC2
:100B5000625307D150EA01331EBF4FF0FE4040F40C
:100B60004000704701F0004040F0FE4040F40000BB
:100B7000704700BF53B94AB9002908BF00281CBFFD
:100B80004FF0FF314FF0FF3000F07AB9ADF1080CB3
:100B90006DE904CE00F006F8DDF804E0DDE902239B
:100BA00004B070472DE9F0478C460E460446089D78
:100BB000002B50D18A4217466CD9B2FA82FEBEF1A0
:100BC000000F0BD0CEF1200C01FA0EF620FA0CFC2F
:100BD00002FA0EF74CEA060C00FA0EF43A0CBCFBD3
:100BE000F2F9BBB202FB19CC09FB03FA4FEA144835
:100BF00048EA0C46B2450AD9F61909F1FF3180F0EE
:100C00002581B24540F22281A9F102093E44A6EBBA
:100C10000A06B6FBF2F002FB106600FB03F3A4B277
:100C200044EA0644A34209D9E41900F1FF3280F0F6
:100C30000B81A34240F2088102383C440021E41AAF
:100C400040EA0940002D62D0002324FA0EF42C6003
:100C50006B60BDE8F0878B4207D9002D55D000218D
:100C600085E841000846BDE8F087B3FA83F1002922
:100C700040F08F80B34202D3824200F2FC80841A9B
:100C800066EB03060120B446002D40D085E8101025
:100C9000BDE8F08712B90127B7FBF2F7B7FA87FE74
:100CA000BEF1000F35D10121F61B4FEA174C1FFA98
:100CB00087F8B6FBFCF20CFB126608FB02F0230C73
:100CC00043EA0646B04207D9F61902F1FF3302D2D1
:100CD000B04200F2D2801A46361AB6FBFCF00CFB8A
:100CE000106608FB00F8A3B243EA0644A04507D902
:100CF000E41900F1FF3302D2A04500F2B980184692
:100D0000A4EB080440EA02409CE729462846BDE8D7
:100D1000F08707FA0EF7CEF1200326FA03F24FEA26
:100D2000174CB2FBFCF11FFA87F80CFB112206FAF4
:100D30000EF620FA03F301FB08F933431E0C46EAD2
:100D40000246B14500FA0EF409D9F61901F1FF3255
:100D500080F08C80B14540F2898002393E44A6EB98
:100D60000906B6FBFCF00CFB106200FB08F99EB212
:100D700046EA0246B14507D9F61900F1FF3371D2B0
:100D8000B1456FD902383E44A6EB090640EA01415D
:100D90008FE7C1F1200722FA07F88B4048EA0303E6
:100DA00026FA07F44FEA134EB4FBFEF91FFA83FC50
:100DB0000EFB19448E4020FA07F809FB0CFA48EAAA
:100DC00006084FEA184646EA0444A24502FA01F230
:100DD00000FA01F608D9E41809F1FF3044D2A2451F
:100DE00042D9A9F102091C44A4EB0A04B4FBFEF0A9
:100DF0000EFB104400FB0CFC1FFA88F848EA044480
:100E0000A44507D9E41800F1FF3E29D2A44527D90B
:100E100002381C4440EA0940A0FB0289A4EB0C0CF8
:100E2000CC45C246CE4615D312D055B1B6EB0A0317
:100E30006CEB0E0606FA07F7CB401F43CE402F603F
:100E40006E600021BDE8F0871046F7E68946DEE6D1
:100E50004645EAD2B8EB020A69EB030E0138E4E733
:100E60007046D7E718468FE78146BDE7114676E71B
:100E700002383C4444E7084606E7023A3E442BE782
:100E8000704700BF80B483B000AF78607B68042BEC
:100E900006D1094A084B1B6843F00403136005E0C0
:100EA000054A054B1B6823F00403136000BF0C3791
:100EB000BD4680BC704700BF10E000E080B485B044
:100EC00000AF78600023FB60094B1B68FB60FB6888
:100ED00003F03803FB60FA687B681343FB60044A45
:100EE000FB68136000BF1437BD4680BC704700BF6D
:100EF0000020024080B483B000AF7860084A084BFD
:100F00001B6823F0100313600549054B1A687B68C2
:100F100013430B6000BF0C37BD4680BC704700BF59
:100F20000020024080B489B000AF786039600023AF
:100F3000FB6100233B610023BB610023FB600023B6
:100F40007B610023BB603B68DB7803F00F03FB6130
:100F50003B68DB7803F01003002B05D03B689B78DF
:100F60001A46FB691343FB613B681B88DBB2002B0D
:100F700044D07B681B687B610023BB6138E00122A1
:100F8000BB6902FA03F3FB603B681B881A46FB68E7
:100F900013403B613A69FB689A4226D1BB699B00CA
:100FA000FB600F22FB6802FA03F3BB60BB68DB4304
:100FB0007A6913407B61FA69FB6802FA03F37A6984
:100FC00013437B613B68DB78282B05D10122BB6989
:100FD0009A407B685A6108E03B68DB78482B04D173
:100FE0000122BB699A407B681A61BB690133BB610E
:100FF000BB69072BC3D97B687A691A603B681B8879
:10100000FF2B46D97B685B687B610023BB613AE0BC
:10101000BB690833012202FA03F3FB603B681B88BB
:101020001A46FB6813403B613A69FB689A4227D134
:10103000BB699B00FB600F22FB6802FA03F3BB60F5
:10104000BB68DB437A6913407B61FA69FB6802FA8B
:1010500003F37A6913437B613B68DB78282B05D166
:10106000BB69083301229A407B685A613B68DB7890
:10107000482B05D1BB69083301229A407B681A616D
:10108000BB690133BB61BB69072BC1D97B687A6936
:101090005A6000BF2437BD4680BC704780B483B01F
:1010A00000AF78600B467B807A887B681A6100BF4E
:1010B0000C37BD4680BC704780B483B000AF786009
:1010C0000B467B807A887B685A6100BF0C37BD462F
:1010D00080BC704780B483B000AF7860134A134B74
:1010E0001B6823F480331360104A104B1B6823F4F1
:1010F000802313607B68B3F5803F03D0B3F5802F66
:1011000007D00DE0094A094B1B6843F48033136094
:1011100006E0064A054B1B6843F4A023136000BF9A
:1011200000BF0C37BD4680BC704700BF00100240B6
:1011300080B582B000AF00233B600023FB71002329
:10114000BB71312000F0B4F90346BB713B68013339
:101150003B603B68B3F5A06F02D0BB79002BF0D0A9
:10116000312000F0A5F90346002B02D00123FB71CA
:1011700001E00023FB71FB7918460837BD4680BDAE
:1011800080B485B000AF786039600023FB600A4B03
:101190005B68FB60FB6823F47C13FB607A683B6848
:1011A0001343FA681343FB60034AFB68536000BFB4
:1011B0001437BD4680BC70470010024080B483B035
:1011C00000AF0346FB71044AFB79136000BF0C3784
:1011D000BD4680BC704700BF6000424280B485B00D
:1011E00000AF78600023FB60094B5B68FB60FB6825
:1011F00023F00303FB60FA687B681343FB60044A37
:10120000FB68536000BF1437BD4680BC704700BF09
:101210000010024080B400AF044B5B68DBB203F007
:101220000C03DBB21846BD4680BC7047001002407C
:1012300080B485B000AF78600023FB60094B5B6829
:10124000FB60FB6823F0F003FB60FA687B681343E4
:10125000FB60044AFB68536000BF1437BD4680BC86
:10126000704700BF0010024080B485B000AF7860C6
:101270000023FB60094B5B68FB60FB6823F4E063C1
:10128000FB60FA687B681343FB60044AFB685360A9
:1012900000BF1437BD4680BC704700BF001002403D
:1012A00080B485B000AF78600023FB60094B5B68B9
:1012B000FB60FB6823F46053FB607B68DB00FA682B
:1012C0001343FB60034AFB68536000BF1437BD46FD
:1012D00080BC70470010024080B487B000AF7860D7
:1012E00000237B6100233B610023FB600023BB6084
:1012F0004C4B5B6803F00C037B617B69042B07D0CC
:10130000082B09D0002B33D17B68474A1A6033E0A1
:101310007B68454A1A602FE0424B5B6803F4701308
:101320003B61404B5B6803F48033FB603B699B0C83
:1013300002333B61FB68002B06D13B693B4A02FB51
:1013400003F27B681A6017E0364B5B6803F40033E6
:10135000002B06D03B69354A02FB03F27B681A601A
:101360000AE03B69304A02FB03F27B681A6003E043
:101370007B682D4A1A6000BF2A4B5B6803F0F003BC
:101380007B617B691B097B61294A7B6913441B785C
:10139000DBB2BB607B681A68BB68DA407B685A6066
:1013A000204B5B6803F4E0637B617B691B0A7B6114
:1013B0001F4A7B6913441B78DBB2BB607B685A68A9
:1013C000BB68DA407B689A60164B5B6803F4605335
:1013D0007B617B69DB0A7B61154A7B6913441B785F
:1013E000DBB2BB607B685A68BB68DA407B68DA6056
:1013F0000C4B5B6803F440437B617B699B0B7B6117
:101400000C4A7B6913441B78DBB2BB607B68DA68EB
:10141000BB68B2FBF3F27B681A6100BF1C37BD46A4
:1014200080BC70470010024000127A0000093D00A5
:10143000000000201000002080B483B000AF78606E
:101440000B46FB70FB78002B06D00949084B9A69C4
:101450007B6813438B6106E00549054B9A697B68FD
:10146000DB4313408B6100BF0C37BD4680BC704727
:101470000010024080B483B000AF78600B46FB7070
:10148000FB78002B06D00949084BDA697B681343C7
:10149000CB6106E00549054BDA697B68DB43134005
:1014A000CB6100BF0C37BD4680BC704700100240C6
:1014B00080B487B000AF0346FB710023FB600023BC
:1014C0007B610023FB74FB795B09DBB2FB60FB688B
:1014D000012B03D1124B1B687B6109E0FB68022BD7
:1014E00003D10F4B1B6A7B6102E00D4B5B6A7B6192
:1014F000FB7903F01F03FB607A69FB6822FA03F3B0
:1015000003F00103002B02D00123FB7401E0002350
:10151000FB74FB7C18461C37BD4680BC704700BF7F
:101520000010024080B485B000AF786039600023BD
:10153000FB817B681B88FB81FB8903F44153FB81A2
:101540003B681A883B685B8813439AB23B689B8868
:1015500013439AB23B68DB8813439AB23B681B89FA
:1015600013439AB23B685B8913439AB23B689B89E9
:1015700013439AB23B68DB8913439AB2FB89134346
:10158000FB817B68FA891A807B689B8B9BB223F472
:1015900000639AB27B689A833B681A8A7B681A82D6
:1015A00000BF1437BD4680BC704780B483B000AF25
:1015B00078600B46FB70FB78002B08D07B681B889B
:1015C0009BB243F040039AB27B681A8007E07B68C5
:1015D0001B889BB223F040039AB27B681A8000BF3D
:1015E0000C37BD4680BC704780B483B000AF7860D4
:1015F0000B467B807B687A889A8100BF0C37BD469A
:1016000080BC704780B483B000AF78607B689B89F2
:101610009BB218460C37BD4680BC704780B485B07D
:1016200000AF78600B467B800023FB737B681B89CF
:101630009AB27B8813409BB2002B02D00123FB732C
:1016400001E00023FB73FB7B18461437BD4680BCCA
:101650007047000080B58CB000AF7860396000231F
:10166000FB620023BB6200237B6200233B620023FA
:10167000FB617B68FB617B681B8A9BB2FB62FA6A39
:101680004CF6FF731340FB623B68DB881A46FB6A2B
:101690001343FB62FB6A9AB27B681A827B689B8960
:1016A0009BB2FB62FA6A4EF6F3131340FB623B688F
:1016B0009A883B681B8913439AB23B685B89134342
:1016C0009BB21A46FB6A1343FB62FB6A9AB27B68C1
:1016D0009A817B689B8A9BB2FB62FA6A4FF6FF4352
:1016E0001340FB623B689B891A46FB6A1343FB620B
:1016F000FB6A9AB27B689A8207F108031846FFF7E3
:10170000EBFDFB692E4A934202D17B69BB6201E08B
:101710003B69BB627B689B899BB21BB2002B0CDAD6
:10172000BA6A13469B0013449A001A443B681B682C
:101730005B00B2FBF3F37B620BE0BA6A13469B00DB
:1017400013449A001A443B681B689B00B2FBF3F3F6
:101750007B627B6A1B4AA2FB03235B091B01FB62C2
:10176000FB6A1B09642202FB03F37A6AD31A3B6209
:101770007B689B899BB21BB2002B0CDA3B6ADB00B7
:101780003233104AA2FB03235B0903F00703FA6A12
:101790001343FB620BE03B6A1B013233094AA2FB95
:1017A00003235B0903F00F03FA6A1343FB62FB6A2E
:1017B0009AB27B681A8100BF3037BD4680BD00BF3A
:1017C000003801401F85EB5180B483B000AF7860D2
:1017D0000B46FB70FB78002B08D07B689B899BB283
:1017E00043F400539AB27B689A8107E07B689B8937
:1017F0009BB223F400539AB27B689A8100BF0C37E6
:10180000BD4680BC704780B487B000AF78600B469F
:101810007B8013467B7000233B610023FB60002329
:10182000BB6000237B617B687B617B88DBB25B09EB
:10183000DBB23B617B8803F01F03FB600122FB6886
:1018400002FA03F3BB603B69012B03D17B690C33C4
:101850007B6109E03B69022B03D17B6910337B611B
:1018600002E07B6914337B617B78002B06D07B69B7
:101870007A691168BA680A431A6006E07B697A6976
:101880001168BA68D2430A401A6000BF1C37BD46CF
:1018900080BC704780B483B000AF78600B467B801B
:1018A0007B88C3F308039AB27B689A8000BF0C3729
:1018B000BD4680BC704780B483B000AF78607B6861
:1018C0009B889BB2C3F308039BB218460C37BD46F6
:1018D00080BC704780B485B000AF78600B467B80D9
:1018E0000023FB737B681B889AB27B8813409BB2F2
:1018F000002B02D00123FB7301E00023FB73FB7B71
:1019000018461437BD4680BC704780B487B000AF1E
:1019100078600B467B800023FB6000237B61002303
:10192000BB600023FB747B88DBB25B09DBB2BB606E
:101930007B8803F01F037B6101227B6902FA03F3BA
:101940007B61BB68012B07D17B689B899BB21A46E0
:101950007B6913407B6111E0BB68022B07D17B6878
:101960001B8A9BB21A467B6913407B6106E07B6849
:101970009B8A9BB21A467B6913407B617B881B0A5A
:101980009BB2FB600122FB6802FA03F3FB607B68F9
:101990001B889BB21A46FB681340FB607B69002BD7
:1019A00005D0FB68002B02D00123FB7401E000236B
:1019B000FB74FB7C18461C37BD4680BC704780B466
:1019C00085B000AF78600B467B800023FB8100234D
:1019D000BB817B881B0AFB81FB89012202FA03F38E
:1019E000BB81BB89DB439AB27B681A8000BF143786
:1019F000BD4680BC70470000B0B5ADF5107D02AFAC
:101A000007F10C03186007F108031960BB1D1A8069
:101A100007F10C031B68002B03D007F10C031A68B5
:101A200000E0B74ABB1D1B8807F58E700093134674
:101A3000B44A4FF4807105F02DFB07F58E731846FC
:101A400002F035F907F10C031B68002B08D007F1F1
:101A500008031B68002B03D0BB1D1B88002B03D180
:101A6000A94802F024F947E107F10C03A7491868D7
:101A7000FEF76EFB0346002B40F03E81002387F803
:101A8000373207F108031B681B787B2B40F0BE80C0
:101A900007F58873184601F031F8BB1D1A8807F165
:101AA000100407F1080107F58870102300932346FE
:101AB000096800F07BFEC7F82402D7F82432002B17
:101AC00040F3B18007F110031B78012B40F0AB808D
:101AD0000123C7F8303291E007F11002D7F8303215
:101AE0001B0113441B78032B40F0838007F1100285
:101AF000D7F830321B01134408331A6807F110017C
:101B0000D7F830321B010B4404331B68D31AC7F8D3
:101B10002032D7F82032072B6BD107F11002D7F80B
:101B200030321B01134404331B681A4607F10803C3
:101B30001B68134407227649184605F019FB034633
:101B4000002B56D1D7F830325A1CD7F824329A429B
:101B500068DAD7F83032013307F110021B01134461
:101B6000C7F81C32D7F81C321B78042B04D0D7F8E6
:101B70001C321B78032B55D1D7F81C325B68C7F891
:101B80002C32D7F81C329B68C7F82832BB1D1A8844
:101B9000D7F82C329A4245DDBB1D1A88D7F8283277
:101BA0009A423FDBD7F81C321B78032B10D1D7F8B1
:101BB0002C325A1CD7F828329A4209DAD7F82C323C
:101BC0000133C7F82C32D7F82832013BC7F8283246
:101BD000D7F82C22D7F828329A4223DAD7F82C32B9
:101BE00007F10802126813441B78303B87F837323C
:101BF00018E0D7F830320133C7F83032D7F8302246
:101C0000D7F824329A42FFF667AF0CE0BB1D1B8861
:101C1000002B08D007F108031B681B78303B87F8BE
:101C2000373200E000BF97F83712BB1D1B88BA1D82
:101C30001288002A04D007F108021268127800E026
:101C4000002207F58E70019200930B46314A4FF443
:101C5000807105F01FFA07F58E73184602F027F819
:101C600097F83732012B47D897F83732184601F0EA
:101C700021FA97F83732184601F0E2F997F837322F
:101C800007F58E70244A4FF4807105F003FA07F5CA
:101C90008E73184602F00BF803F06CFC0346002B21
:101CA0002AD097F83732012B08D107F110031B4ACD
:101CB0001C4613460FCB84E80F0008E007F1100321
:101CC000174A1C4615460FCD0FC42B68237007F129
:101CD000100301221946134803F05CFC07F11003BE
:101CE00007F58E70104A4FF4807105F0D3F907F5AF
:101CF0008E73184601F0DBFF07F50E77BD46B0BDC9
:101D000040C7000848C700086CC700088CC7000817
:101D100098C70008A0C70008DCC70008F0C7000883
:101D200000C8000814C8000828C8000880B500AF23
:101D300001F0C8F801F004F901F020F901F098FA77
:101D40000021002003F0A4FD0021002004F0F2FC9B
:101D500001F026FD0021002004F0BCFC0021002041
:101D600002F00CF801F0DAFB01F024F901F056F969
:101D70000021002002F0F8F81A4802F051F901F0B1
:101D8000A9FD04F085F904F0C3F90346002B24D023
:101D9000154B1B7883F00103DBB2002B08D0002326
:101DA00000221249002003F011FB0F4B01221A7090
:101DB00003F01EF903F0DEFB0346002B0DD00C4BA5
:101DC0001B7883F00103DBB2002B06D00121094808
:101DD00003F09CFB064B01221A70642001F05EF8B0
:101DE000CDE700BFF9190008B806002044C8000874
:101DF000B90600208CC70008DFF834D0002103E0CA
:101E00000C4B5B58435004310B480C4B42189A4220
:101E1000F6D30B4A02E0002342F8043B094B9A42F6
:101E2000F9D300F07DF805F0FDF8FFF77FFF70476C
:101E3000005000201CDB0008000000209C06002051
:101E40009C060020C8370020FEE780B400AF00BF2A
:101E5000BD4680BC704780B400AFFEE780B400AFE1
:101E6000FEE780B400AFFEE780B400AFFEE780B4C9
:101E700000AF00BFBD4680BC704780B400AF00BF5C
:101E8000BD4680BC704780B400AF00BFBD4680BC7B
:101E9000704780B500AF00F0F3FF00BF80BD0000C9
:101EA00080B582B000AF40F225510C48FFF72DFD00
:101EB0000346002B0DD00948FFF7FDFC0346FB71DC
:101EC000FB79184601F090FA40F225510348FFF7DC
:101ED00076FD00BF0837BD4680BD00BF0038014019
:101EE00080B582B000AF40F225510C48FFF70DFDE0
:101EF0000346002B0DD00948FFF7DDFC0346FB71BC
:101F0000FB79184601F05EFA40F225510348FFF7CD
:101F100056FD00BF0837BD4680BD00BF00440040ED
:101F200080B500AF154A154B1B6843F001031360E1
:101F30001249124B5A68124B13404B600F4A0F4B19
:101F40001B6823F0847323F4803313600B4A0B4B1C
:101F50001B6823F480231360084A084B5B6823F452
:101F6000FE035360054B4FF41F029A6000F078F8AF
:101F7000044B4FF000629A6000BF80BD0010024029
:101F80000000FFF800ED00E080B485B000AF002352
:101F9000FB600023BB6000237B602C4B5B6803F07D
:101FA0000C03FB60FB68042B07D0082B09D0002B27
:101FB00033D1274B274A1A6033E0254B254A1A6054
:101FC0002FE0224B5B6803F47013BB601F4B5B6810
:101FD00003F480337B60BB689B0C0233BB607B687F
:101FE000002B06D1BB681C4A02FB03F3184A13609E
:101FF00017E0164B5B6803F40033002B06D0BB6878
:10200000154A02FB03F3124A13600AE0BB68114A47
:1020100002FB03F30E4A136003E00D4B0D4A1A60F6
:1020200000BF0A4B5B681B0903F00F030B4AD35C2C
:10203000DBB2FB60064B1A68FB6822FA03F3044A22
:10204000136000BF1437BD4680BC704700100240CB
:102050001400002000127A0000093D001800002042
:1020600080B500AF00F002F800BF80BD80B483B03F
:1020700000AF00237B6000233B603A4A394B1B686A
:1020800043F480331360374B1B6803F400333B6029
:102090007B6801337B603B68002B03D17B68B3F521
:1020A000A06FF0D12F4B1B6803F40033002B02D03C
:1020B00001233B6001E000233B603B68012B4BD1D7
:1020C000294A294B1B6843F010031360264A264B0C
:1020D0001B6823F003031360234A234B1B6843F060
:1020E000020313601F4A1F4B5B6853601D4A1D4B60
:1020F0005B6853601B4A1B4B5B6843F4806353600F
:10210000184A184B5B6823F47C135360154A154B2F
:102110005B6843F4E8135360124A124B1B6843F0A8
:102120008073136000BF0F4B1B6803F00073002B1C
:10213000F9D00C4A0B4B5B6823F003035360094A48
:10214000084B5B6843F00203536000BF054B5B68BC
:1021500003F00C03082BF9D100BF0C37BD4680BC3F
:10216000704700BF001002400020024080B487B0DA
:1021700000AFF860B9607A6001237B6104E07B699D
:102180007A6802FB03F37B617B69BA68B2FBF3F206
:102190007B689A42F3D229E07B69BA68B2FBF3F319
:1021A0003B617A69BB68B3FBF2F102FB01F29B1A57
:1021B000BB607A697B6892FBF3F37B613B69092B17
:1021C0000ADDFB681B68591CFA6811603A69D2B2D3
:1021D0003732D2B21A7009E0FB681B68591CFA68E2
:1021E00011603A69D2B23032D2B21A707B69002BD8
:1021F000D2D100BF1C37BD4680BC704780B588B0C7
:1022000000AFF860B9607A60FB687B617DE0BB6815
:102210001B78252B71D1BB680133BB60BB681B7871
:10222000642B1ED0642B06DC582B50D0632B0ED0B1
:10223000252B58D05DE0732B2BD0732B02DC692B40
:102240000FD056E0752B37D0782B40D051E0FB688B
:102250005A1CFA607A68111D79601268D2B21A703D
:1022600047E07B681A1D7A601B68FB61FB69002BE5
:1022700007DAFB695B42FB61FB685A1CFA602D229E
:102280001A70F96907F10C030A221846FFF76EFF6E
:102290002FE07B681A1D7A601B68BB6107E0FB6852
:1022A0005A1CFA60BA69511CB96112781A70BB697C
:1022B0001B78002BF3D11CE07B681A1D7A6019682B
:1022C00007F10C030A221846FFF750FF11E07B6864
:1022D0001A1D7A601B68194607F10C031022184674
:1022E000FFF744FF05E0FB685A1CFA6025221A70CC
:1022F00000BFBB680133BB6007E0FB685A1CFA6093
:10230000BA68511CB96012781A70BB681B78002B30
:102310007FF47DAFFB6800221A70FB681A467B6968
:10232000D31A18462037BD4680BD0EB480B585B09F
:1023300000AF786007F12003BB60BA68F96978687C
:10234000FFF75CFFF860FB6818461437BD46BDE830
:10235000804003B0704780B487B000AFF860B960C8
:102360007A60FB685A687B689A4201D3002314E0C4
:10237000FB685B68591CFA6851601B01BA6813441A
:102380007B617B694FF0FF329A607B699A687B6959
:102390005A607B690022DA607B6918461C37BD46AB
:1023A00080BC704780B485B000AFF8607A603B6055
:1023B0000B46FB72FB68FA7A1A70FB687A685A60FF
:1023C000FB683A689A60FB680022DA6000BF143745
:1023D000BD4680BC704780B586B000AFF860B9607C
:1023E0007A603B60FB681B687B6133E0FB681B68BD
:1023F000BA6813441B78202B39D0202B06DC092B1C
:102400000FDB0A2B33DD0D2B31D00AE03A2B2ED017
:102410003A2B02DC2C2B2AD003E05D2B27D07D2B1E
:1024200025D0FB681B68BA6813441B781F2B06D99C
:10243000FB681B68BA6813441B787E2B05D97A6940
:10244000FB681A606FF0010338E0FB681B685A1CD8
:10245000FB681A60FB681A687B689A4208D2FB68BE
:102460001B68BA6813441B78002BBFD100E000BF83
:102470003B68002B06D1FB681B685A1EFB681A607C
:1024800000231BE03A6A3968F868FFF764FF386197
:102490003B69002B05D17A69FB681A604FF0FF3366
:1024A0000CE0FB681B687A6904213869FFF77AFF42
:1024B000FB681B685A1EFB681A6000231846183711
:1024C000BD4680BD80B588B000AFF860B9607A6065
:1024D0003B60FB681B68BB61FB681B685A1CFB68A0
:1024E0001A604CE1FB681B68BA6813441B78FB75E3
:1024F000FB7D222B1DD13B68002B01D1002350E135
:10250000BA6A3968F868FFF726FF38613B69002B23
:1025100005D1BA69FB681A604FF0FF3341E1BB692E
:102520005A1CFB681B6803213869FFF73BFF002337
:1025300037E1FB7D5C2B40F01D81FB681B685A1C5A
:102540007B689A4280F01681FB681B685A1CFB6806
:102550001A60FB681B68BA6813441B78223B532B34
:1025600000F2018101A252F823F000BF7327000896
:102570006727000867270008672700086727000803
:1025800067270008672700086727000867270008F3
:1025900067270008672700086727000867270008E3
:1025A00073270008672700086727000867270008C7
:1025B00067270008672700086727000867270008C3
:1025C00067270008672700086727000867270008B3
:1025D00067270008672700086727000867270008A3
:1025E0006727000867270008672700086727000893
:1025F0006727000867270008672700086727000883
:102600006727000867270008672700086727000872
:102610006727000867270008672700086727000862
:102620006727000867270008672700086727000852
:102630006727000867270008672700086727000842
:102640006727000867270008672700086727000832
:102650006727000873270008672700086727000816
:102660006727000867270008672700087327000806
:1026700067270008672700086727000873270008F6
:1026800067270008672700086727000867270008F2
:1026900067270008672700086727000873270008D6
:1026A00067270008672700086727000873270008C6
:1026B0006727000873270008BD260008FB681B6811
:1026C0005A1CFB681A600023FB6137E0FB681B683B
:1026D000BA6813441B782F2B06D9FB681B68BA68AD
:1026E00013441B78392B21D9FB681B68BA68134443
:1026F0001B78602B06D9FB681B68BA6813441B78EB
:10270000662B13D9FB681B68BA6813441B78402BEF
:1027100006D9FB681B68BA6813441B78462B05D999
:10272000BA69FB681A606FF001033AE0FB681B6846
:102730005A1CFB681A60FB690133FB61FB69032BC0
:102740000BDCFB681A687B689A4206D2FB681B6840
:10275000BA6813441B78002BB8D1FB681B685A1E5B
:10276000FB681A6006E0BA69FB681A606FF0010343
:1027700017E000BFFB681B685A1CFB681A60FB6807
:102780001A687B689A4207D2FB681B68BA681344D0
:102790001B78002B7FF4A6AEBA69FB681A606FF055
:1027A000020318462037BD4680BD00BF80B58CB0FF
:1027B00002AFF860B9607A603B60FB685B683B62BF
:1027C00069E1FB681B68BA6813441B78FB77FB7FE1
:1027D0002C2B00F0E7802C2B10DC0D2B00F04B8114
:1027E0000D2B04DC093B012B00F2238143E1202B5C
:1027F00000F04181222B00F0AB801AE15D2B43D029
:102800005D2B05DC3A2B00F0C6805B2B05D010E178
:102810007B2B02D07D2B37D00BE13B6A01333B622F
:102820003B68002B00F029813A6B3968F868FFF7A4
:1028300092FDB861BB69002B02D14FF0FF3359E123
:10284000FB689B68B3F1FF3F0AD0FB689B681B01E4
:102850003A6813443B613B69DB685A1C3B69DA60A8
:10286000FB7F7B2B01D1012200E00222BB691A70A1
:10287000FB681B681A46BB695A60FB685B68013BD2
:102880001A46FB689A6001E13B68002B00F0F78074
:10289000FB7F7D2B01D1012300E00223BB77FB6886
:1028A0005B68013B7B6221E07B6A1B013A68134451
:1028B000BB61BB695B68B3F1FF3F14D0BB699B6828
:1028C000B3F1FF3F0FD1BB691B78BA7F9A420AD19F
:1028D000FB684FF0FF329A60FB681B6801331A46B1
:1028E000BB699A6005E07B6A013B7B627B6A002BD7
:1028F000DADA7B6AB3F1FF3F25D16FF00103F9E02B
:102900007B6A1B013A681344BB61BB695B68B3F126
:10291000FF3F15D0BB699B68B3F1FF3F10D1BB6986
:102920001B78012B03D0BB691B78022B03D1FB68FA
:102930007A6A9A600BE0FB684FF0FF329A6006E01B
:102940007B6A013B7B627B6A002BD9DA9EE09DE0CB
:102950003B6B00933B687A68B968F868FFF7B2FD93
:1029600078617B69002B01DA7B69C3E03B6A013344
:102970003B62FB689B68B3F1FF3F00F082803B68DD
:10298000002B7ED0FB689B681B013A681344DA6811
:102990000132DA6075E0FB685B68013B1A46FB6850
:1029A0009A6073E03B68002B6DD0FB689B68B3F1C5
:1029B000FF3F68D0FB689B681B013A6813441B7893
:1029C000022B60D0FB689B681B013A6813441B789C
:1029D000012B58D0FB685B68013B7B6225E07B6A7A
:1029E0001B013A6813441B78022B06D07B6A1B013B
:1029F0003A6813441B78012B14D17B6A1B013A6897
:102A000013445B68B3F1FF3F0CD07B6A1B013A684B
:102A100013449B68B3F1FF3F04D1FB687A6A9A6064
:102A200000BF30E07B6A013B7B627B6A002BD6DA19
:102A300029E03B6B00933B687A68B968F868FFF758
:102A4000CAFC78617B69002B01DA7B6952E03B6A42
:102A500001333B62FB689B68B3F1FF3F15D03B68D5
:102A6000002B12D0FB689B681B013A681344DA689C
:102A70000132DA6009E000BF08E000BF06E000BFF5
:102A800004E000BF02E000BF00E000BFFB681B687D
:102A90005A1CFB681A60FB681A687B689A4207D266
:102AA000FB681B68BA6813441B78002B7FF489AE5F
:102AB0003B68002B1DD0FB685B68013B7B6215E027
:102AC0007B6A1B013A6813445B68B3F1FF3F0AD08D
:102AD0007B6A1B013A6813449B68B3F1FF3F02D144
:102AE0006FF0020306E07B6A013B7B627B6A002B8E
:102AF000E6DA3B6A18462837BD4680BD80B483B00D
:102B000000AF78607B6800221A607B6800225A6000
:102B10007B684FF0FF329A6000BF0C37BD4680BC27
:102B2000704780B584B000AFF860B9607A60FB6828
:102B3000002B05D0BB68002B02D07B68002B01D195
:102B400000230BE010220021F86804F09AFAFB68D9
:102B50007A685A60FB68BA681A6001231846103711
:102B6000BD4680BD80B588B000AFF860B9607A60BE
:102B7000BB68FB61FB68002B0DD0FB681B68002B5A
:102B800009D0FB685B68002B05D0BB68002B02D026
:102B90007B68002B01D1002347E0F86800F0B0F813
:102BA000B8617A68BB69934228BF13467B607B6833
:102BB000002B01D1002338E0FB685A68FB68DB6812
:102BC000D21A7B68934228BF13467B61FB681A6860
:102BD000FB68DB6813447A69F969184604F046FA21
:102BE000FB68DA687B691A44FB68DA607A687B699B
:102BF000D31A7B607B68002B0BD0FB681868FA69DE
:102C00007B6913447A68194604F030FAFB687A68E5
:102C1000DA60FB68DA68FB685B689A4202D3FB689B
:102C20000022DA607A697B68134418462037BD4673
:102C300080BD80B588B000AFF860B9607A60BB68CD
:102C4000FB61FB68002B0DD0FB681B68002B09D0D3
:102C5000FB685B68002B05D0BB68002B02D07B684B
:102C6000002B01D1002347E0F86800F07FF8B8613D
:102C70007A68BB69934228BF13467B607B68002B50
:102C800001D1002338E0FB685A68FB689B68D21AC0
:102C90007B68934228BF13467B61FB681A68FB6818
:102CA0009B6813447A691946F86904F0DFF9FB68F8
:102CB0009A687B691A44FB689A607A687B69D31AC0
:102CC0007B607B68002B0BD0FA697B69D018FB68AE
:102CD0001B687A68194604F0C9F9FB687A689A603B
:102CE000FB689A68FB685B689A4202D3FB68002223
:102CF0009A607A697B68134418462037BD4680BDC8
:102D000080B487B000AF78607B68002B07D07B6809
:102D10001B68002B03D07B685B68002B01D100236C
:102D20001FE07B68DB683B617B689B68FB603A69FE
:102D3000FB689A4203D17B685B687B610FE0FA68AD
:102D40003B699A4204D9FA683B69D31A7B6106E071
:102D50007B685A68F9683B69CB1A13447B617B69CD
:102D6000013B18461C37BD4680BC704780B487B015
:102D700000AF78607B68002B07D07B681B68002B56
:102D800003D07B685B68002B01D100231DE07B68CA
:102D9000DB683B617B689B68FB603A69FB689A4231
:102DA00002D100237B610FE03A69FB689A4204D9A3
:102DB0003A69FB68D31A7B6106E07B685A68396917
:102DC000FB68CB1A13447B617B6918461C37BD46F0
:102DD00080BC704780B483B000AF03463960FB719C
:102DE00097F90730002B0BDA0D49FB7903F00F033D
:102DF000043B3A68D2B21201D2B20B441A7609E00F
:102E0000084997F907303A68D2B21201D2B20B449E
:102E100083F8002300BF0C37BD4680BC704700BF5D
:102E200000ED00E000E100E080B582B000AF786026
:102E30007B68B3F1807F01D3012311E00A4A7B68EC
:102E400023F07F43013B53600F214FF0FF30FFF72A
:102E5000C1FF054B00229A60034B07221A60002332
:102E600018460837BD4680BD10E000E080B400AFD2
:102E7000024B1B681846BD4680BC7047BC0600204C
:102E800080B400AF044B1B680133034A136000BFDA
:102E9000BD4680BC704700BFBC06002080B584B032
:102EA00000AF7860FFF7E2FFF86000BFFFF7DEFFDA
:102EB0000246FB68D21A7B689A42F7D300BF1037EC
:102EC000BD4680BD80B582B000AF4FF48030FEF7C4
:102ED00001F9FEF72DF90346FB71FB79012B28D18F
:102EE0001020FEF707F80220FDF7E8FF0020FEF7AC
:102EF0009FF90020FEF7D4F94FF48060FEF7B4F993
:102F00004FF4E0114FF48030FEF73AF90120FEF75C
:102F100055F900BF3920FEF7CBFA0346002BF9D054
:102F20000220FEF75BF900BFFEF774F90346082B99
:102F3000FAD1FFF729F800BF0837BD4680BD000071
:102F400080B500AF0420FDF79DFF0A4B1B680A4ABD
:102F5000A2FB03239B091846FFF766FF0346002BDD
:102F600000D0FEE70F214FF0FF30FFF733FF00BF27
:102F700080BD00BF14000020D34D621080B582B028
:102F800000AF01210820FEF757FA0123BB8003237D
:102F9000BB711023FB713B1D19460548FDF7C2FFAD
:102FA00001210348FEF788F800BF0837BD4680BD01
:102FB000000C014080B582B000AF01211020FEF767
:102FC0003BFA4FF40053BB801023FB710323BB710A
:102FD0003B1D19460448FDF7A5FF00F013F800BF9C
:102FE0000837BD4680BD00BF0010014080B500AF6E
:102FF0004FF400510248FEF751F800BF80BD00BFFA
:103000000010014080B500AF4FF400510248FEF7B8
:1030100053F800BF80BD00BF0010014080B500AF75
:1030200000F032F803461A46044B1A70034B1B7823
:10303000184600F03FF800BF80BD00BFC00600206A
:1030400080B584B000AF0346FB71FB79012B15D826
:10305000002000F0C5FAFB793B73FF237B73FF234D
:10306000BB73FF23FB7307F10C03042219460020F6
:1030700000F026FB034AFB79137000E000BF103715
:10308000BD4680BDC006002080B582B000AF3B4683
:1030900004221946002000F047FB3B78FB71FB79C6
:1030A000012B01D8FB7900E0002318460837BD4604
:1030B00080BD000080B582B000AF0346FB71FB7994
:1030C000012B02D1FFF792FF01E0FFF79BFF034ABC
:1030D000FB79137000BF0837BD4680BDC0060020D5
:1030E00080B586B000AF01214FF48050FEF7A4F9FF
:1030F0001023BB821023FB750323BB7507F1140358
:1031000019462548FDF70EFF2023BB821823FB75C7
:103110000323BB7507F1140319461F48FDF702FF8F
:103120004023BB820423FB7507F1140319461A4898
:10313000FDF7F8FE8023BB821823FB750323BB75C4
:1031400007F1140319461448FDF7ECFE0823BB8170
:103150004FF482737B8001233B810223FB804FF479
:1031600000737B8100233B800023BB800023FB8115
:1031700007233B823B4619460848FEF7D3F9012155
:103180000648FEF712FA10210348FDF787FF00BF3B
:103190001837BD4680BD00BF000801400030014027
:1031A00080B582B000AF0346FB7100BF02210E481C
:1031B000FEF734FA0346002BF8D0FB799BB2194690
:1031C0000948FEF711FA00BF01210748FEF726FA69
:1031D0000346002BF8D00448FEF714FA0346DBB28E
:1031E00018460837BD4680BD0030014080B483B02A
:1031F00000AF0346FB71084997F907305B09FA797C
:1032000002F01F02012000FA02F241F8232000BF61
:103210000C37BD4680BC704700E100E080B483B04D
:1032200000AF03463960FB7197F90730002B0BDACA
:103230000D49FB7903F00F03043B3A68D2B2120147
:10324000D2B20B441A7609E0084997F907303A6878
:10325000D2B21201D2B20B4483F8002300BF0C3764
:10326000BD4680BC704700BF00ED00E000E100E01B
:1032700080B58AB000AF01210420FEF7DDF80121FE
:103280004FF48040FEF7D8F801214FF40030FEF7EC
:10329000F1F80423BB84032387F82630182387F82A
:1032A000273007F1240319463F48FDF73BFE08236A
:1032B000BB84042387F8273007F1240319463A48D2
:1032C000FDF730FE4FF40073BB84032387F82630EC
:1032D000182387F8273007F1240319463248FDF7F1
:1032E00021FE4FF48063BB84042387F8273007F165
:1032F000240319462C48FDF715FE4FF480722B4924
:103300002B48FFF70EFC4FF480722A492A48FFF73A
:1033100008FC4FF4E1337B610023BB830C23FB8368
:1033200000237B8300233B8400233B8307F11403AA
:1033300019462248FEF78EF9012240F225511F4816
:10334000FEF761FA01212620FFF768FF2620FFF72C
:103350004DFF01211948FEF737FA4FF4E1337B6046
:103360000023BB810C23FB8100237B8100233B8254
:1033700000233B813B1D19461148FEF76BF90122E2
:1033800040F225510E48FEF73EFA02212520FFF7B4
:1033900045FF2520FFF72AFF01210948FEF714FA0F
:1033A00000BF2837BD4680BD00080140C40600208C
:1033B000C4070020D4070020D408002000440040A7
:1033C0000038014080B582B000AF0346FB71FB1DA1
:1033D000012219460348FFF7C5FB00BF0837BD4669
:1033E00080BD00BFC407002080B582B000AF034697
:1033F000FB71FB1D012219460348FFF7B3FB00BF19
:103400000837BD4680BD00BFD408002080B582B01B
:1034100000AF78600B467B807B881A467968044849
:10342000FFF707FC03469BB218460837BD4680BD30
:10343000D408002080B500AF0348FFF797FC03468F
:103440009BB2184680BD00BFD408002080B582B072
:1034500000AF0346FB7100BF80210848FEF73AFA2F
:103460000346002BF8D0FB799BB219460348FEF7C0
:1034700011FA00BF0837BD4680BD00BF00440040C0
:1034800080B582B000AF0346FB7100BF80210848C1
:10349000FEF720FA0346002BF8D0FB799BB21946C1
:1034A0000348FEF7F7F900BF0837BD4680BD00BFEF
:1034B0000038014080B584B000AF78600B467B8057
:1034C0000023FB8109E0FB897A6813441B781846C6
:1034D000FFF7D6FFFB890133FB81FA897B889A428B
:1034E000F1D300BF1037BD4680BD000080B582B06B
:1034F00000AF0346FB7110210748FDF7DDFDFB79A6
:103500001846FFF74DFE10210348FDF7C7FD00BF29
:103510000837BD4680BD00BF0008014080B500AF40
:10352000FFF7DEFD10210348FDF7B8FD00F004F8B9
:1035300000BF80BD0008014080B582B000AF00230D
:103540007B6010211248FDF7B7FD9F20FFF728FE92
:10355000FF20FFF725FE03461B047B60FF20FFF7DB
:103560001FFE03461B027A6813437B60FF20FFF7B0
:1035700017FE03461A467B6813437B6010210448FC
:10358000FDF78CFD7B6818460837BD4680BD00BF3F
:103590000008014080B500AF0620FFF7A7FF00BF7D
:1035A00080BD000080B582B000AF10210B48FDF750
:1035B00083FD0520FFF7F4FDFF20FFF7F1FD034633
:1035C000FB7110210548FDF769FDFB7903F001034C
:1035D000002BEAD100BF0837BD4680BD000801407E
:1035E00080B582B000AF7860FFF7D4FF102110489B
:1035F000FDF762FD2020FFF7D3FD7B681B0CDBB2DB
:103600001846FFF7CDFD7B681B0ADBB21846FFF7B3
:10361000C7FD7B68DBB21846FFF7C2FD10210448E6
:10362000FDF73CFDFFF7BEFF00BF0837BD4680BD7C
:103630000008014080B586B000AFF860B96013465D
:10364000FB80FB88B3F5807F02D94FF48073FB8049
:10365000FFF7A0FF10211948FDF72EFD0220FFF70C
:103660009FFDFB681B0CDBB21846FFF799FDFB685A
:103670001B0ADBB21846FFF793FDFB68DBB2184666
:10368000FFF78EFD0023FB8209E0FB8ABA68134432
:103690001B781846FFF784FDFB8A0133FB82FA8A08
:1036A000FB889A42F1D310210448FDF7F7FCFFF79D
:1036B00079FF00BF1837BD4680BD00BF000801403C
:1036C00080B588B000AFF860B9601346FB80FB6836
:1036D000FB61FB887B831FE0FB699BB2DBB2FB8253
:1036E000FB8AC3F580733B833A8B7B8B9A4201D96B
:1036F0007B8B3B833B8B1A46B968F869FFF79AFFCF
:103700003B8BFA691344FB613B8BBA681344BB6083
:103710007A8B3B8BD31A7B837B8B002BDCD100BF56
:103720002037BD4680BD000090B587B000AFF8607F
:10373000B9601346FB8010211848FDF7BDFC03203B
:10374000FFF72EFDFB681B0CDBB21846FFF728FDC8
:10375000FB681B0ADBB21846FFF722FDFB68DBB2F1
:103760001846FFF71DFD0023FB820AE0FB8ABA68BA
:10377000D418FF20FFF714FD03462370FB8A0133A2
:10378000FB82FA8AFB889A42F0D310210348FDF7A6
:1037900085FC00BF1C37BD4690BD00BF000801403E
:1037A00080B500AF40F203520021044803F069FCE9
:1037B000034B00221A8000BF80BD00BFE408002038
:1037C000680E002080B582B000AF78601D4B93F882
:1037D0000235092B01D900232FE01A4B93F800354D
:1037E000DB01184A13447F227968184603F0D2FCA3
:1037F000144B93F80035134ADB0113447F33002246
:103800001A70104B93F800355A1C0F4B83FB0213B0
:103810009910D317C91A0B469B000B445B00D11AB1
:10382000CAB2084B83F80025064B93F802350133E2
:10383000DAB2044B83F80225012318460837BD4647
:1038400080BD00BFE40800206766666680B582B070
:1038500000AF78600B467B801C4B93F80235002B41
:1038600001D100232DE0194B93F80135DB01174AF4
:1038700099187B88013B1A46786803F08BFC7B889B
:10388000013B7A68134400221A70104B93F80135FB
:103890005A1C0F4B83FB02139910D317C91A0B46FE
:1038A0009B000B445B00D11ACAB2084B83F8012578
:1038B000064B93F80235013BDAB2044B83F802253C
:1038C000012318460837BD4680BD00BFE40800202C
:1038D0006766666680B5DCB002AF00F0B3FA0346F7
:1038E000002B4CD0BC4B1B78002B48D0BA4B00228D
:1038F0001A70BA4800F0DBF9FFF79CFD0346A7F801
:103900005A31B7F85A3107F15000B54A802103F017
:10391000C1FB07F15003184600F0C9F90023C7F8AE
:1039200064310EE0D7F864310133C7F86431AD4B30
:103930001B680133AB4A136097F85431184600F006
:10394000ADFA07F5AA7301211846FFF75FFD03469C
:10395000002BE7D1D7F86431002B0DD007F1D00050
:10396000D7F86431A04A802103F094FB07F1D0031B
:10397000184600F09CF902E09C4800F098F90023FA
:10398000C7F86031D2E0D7F860310133C7F8603151
:10399000974B1B680133964A136000F053FA0346B5
:1039A000002B0AD08F4B1B6801338E4A136097F8A7
:1039B0005531184600F072FAB8E097F855313E2BB1
:1039C0000DD18C4B1B88002B09D18B4B3E221A70DA
:1039D000894B00225A708848FFF7F4FEA6E097F85A
:1039E00055310D2B04D097F855310A2B40F08480C7
:1039F000804B1B88002B00F099807E4B1B881A4659
:103A00007D4B002199547D497B4803F0D8FB034648
:103A1000002B5CD07A4800F04AF93B4619467648BC
:103A200003F088FA0346002B51D03B465B68002B1D
:103A30004DDD3B465B68184600F020FA012000F09F
:103A40000DFA654B01221A703B465B6807F1500086
:103A50006C4A802103F01EFB07F15003184600F06A
:103A600026F9694B01221A70684B00221A606848D7
:103A700000F01DF90023C7F85C310EE0D7F85C3187
:103A80000133C7F85C31574B1B680133554A13604B
:103A900097F85331184600F001FA07F25313012149
:103AA0001846FFF7B3FC0346002BE7D1D7F85C318B
:103AB000002B0CD007F1D000D7F85C31554A80219B
:103AC00003F0E8FA07F1D003184600F0F0F8524985
:103AD000494803F074FB0346002B03D0464800F02E
:103AE00063FB02E0444800F05FFB4348FFF76AFED7
:103AF000404B00221A8019E03E4B1B887E2B0BD8CE
:103B00003C4B1B885A1C91B23A4A11801A4697F8CE
:103B10005511394B995409E0374B002283F87F2027
:103B20003548FFF74FFE334B00221A8007F255133A
:103B300001211846FFF76AFC0346A7F85831B7F889
:103B40005831002B7FF41FAF00F07CF90346002BA7
:103B50006CD0FFF76FFC0346A7F85631D7F86031F9
:103B6000002B13D0B7F856311E4A126807F1D00067
:103B700001920093D7F86031284A802103F08AFA35
:103B800007F1D003184600F092F858E0244B1B6868
:103B90000133234A1360224B1A68224BA3FB021302
:103BA0001B09322101FB03F3D31A002B47D1B7F8CD
:103BB00056110C4B1B681A4A126807F1D00001928B
:103BC00000930B46184A802103F064FA07F1D003F2
:103BD000184600F06CF832E02800002050C80008B9
:103BE00084C800086C0E0020B4C80008E8C80008AB
:103BF000700E0020680E0020E80D00200CC900089F
:103C000018C900083CC90008740E0020780E002076
:103C100074C90008B8C90008F8C9000804CA000837
:103C20007C0E00201F85EB5144CA0008064B012280
:103C30001A70064B00221A60054B00221A6000BF62
:103C400007F5B477BD4680BD280000206C0E00202B
:103C5000700E002080B582B000AF78600B467B808C
:103C60007B8819467868FFF7F1FD03461846083748
:103C7000BD4680BD80B400AF034B93F802351846B3
:103C8000BD4680BC704700BFE408002080B582B00C
:103C900000AF78607868FCF765FA03469BB2194676
:103CA0007868FFF707FC00BF0837BD4680BD90B5B8
:103CB00085B000AF78600023FB8109E0FB897A685A
:103CC00013441B781846FFF7C1FBFB890133FB81C6
:103CD000FC897868FCF746FA03469C42EED300BFA5
:103CE0001437BD4690BD80B582B000AF78600B46FA
:103CF0007B807B68002B02D07B88002B01D10023C6
:103D000014E0FFF7B7FF0346002B01D100230DE0BD
:103D10007B8819467868FFF79DFF034683F001030F
:103D2000DBB2002B01D0002300E001231846083746
:103D3000BD4680BD80B582B000AF78607868FFF77F
:103D4000B6FF0348FFF7B3FF00BF0837BD4680BD8D
:103D50008CCA000880B582B000AF78607B68002B09
:103D600008D07868FCF7FEF903461A460021786807
:103D700003F087F900BF0837BD4680BD80B582B02B
:103D800000AF78603960294B00221A75274B00225A
:103D900083F81421254B002283F81C21234B002299
:103DA0005A70224A7B68D360204A3B6813611F4BDC
:103DB0000022A3F816211D4B0022C3F81821FFF79B
:103DC00055F80246194B5A60184B00229A60174B5F
:103DD00000221A70154B4FF40072C3F8A021134B48
:103DE0000022C3F89C21114B0022C3F8A4210F4BE1
:103DF0000022A3F8A8210D4B0022C3F8AC210B4BE5
:103E0000002283F8B0210A4B00221A60094B0022DD
:103E10001A70094B00221A70084B00221A60084BD6
:103E200000221A7000BF0837BD4680BD8C320020CA
:103E3000842E0020892E0020882E00208C2E002029
:103E4000902E002080B400AF034B1B78DBB21846E5
:103E5000BD4680BC704700BF800E002080B483B098
:103E600000AF0346FB71044AFB79137000BF0C37A7
:103E7000BD4680BC704700BF800E002080B483B078
:103E800000AF78607B689AB2034BA3F8A82100BF0B
:103E90000C37BD4680BC70478C32002080B483B0A4
:103EA00000AF0346FB71224B1B68B3F5005F38D2AD
:103EB000204BB3F8A831002B07D01E4BD3F8AC3100
:103EC0001C4AB2F8A82193422DD21B4B1B7883F0D9
:103ED0000103DBB2002B12D0154B1B68002B0ED058
:103EE000144BD3F8AC21124B1B689A4207D2114BEA
:103EF000D3F8AC3101330F4AC2F8AC3114E00C4BAB
:103F00001B680E49FA79CA54094B1B680133084AE9
:103F10001360084BD3F8AC310133064AC2F8AC3118
:103F200002E000BF00E000BF0C37BD4680BC704718
:103F3000842E00208C320020902E0020840E002041
:103F400080B582B000AF78603960FEF78FFF02461F
:103F50007B68D21A3B689A422CBF01230023DBB254
:103F600018460837BD4680BD80B582B000AF786086
:103F700039602A4A7B68C2F8E031284A3B68C2F8B7
:103F8000E431264B002283F8D121FEF76FFF024671
:103F9000224BC3F8D421214B002283F8D0211F4BA0
:103FA0000022C3F8D8211D4B002283F8DC211B4BD3
:103FB00000221A70194B00229A70184B002283F8C5
:103FC0008420164B3C2283F84421144B40F25B7250
:103FD000A3F88220114B002283F8C4200F4B00224B
:103FE00083F804210D4B002283F848210B4B00225B
:103FF000A3F8CC21094B0022C3F8C821074B0122AA
:1040000083F8CE21054B002283F8CF21034B0022F9
:10401000C3F8E82100BF0837BD4680BD403400200A
:1040200080B483B000AF7860044A7B68C2F8E8319E
:1040300000BF0C37BD4680BC704700BF4034002035
:1040400080B582B000AF294B1B78012B48D1284B9B
:104050001A88284B1B889A4203D3244B02221A70D9
:1040600041E0FFF7E7F90346FB80FB88002B39D0DE
:10407000204B1A881E4B1B88D31ABB80BA88FB883A
:10408000934228BF13467B80194B1B88C3F17F02E4
:104090007B88934228BF13467B807B88002B22D0ED
:1040A000134B1B881A46144B13447A881146184642
:1040B000FFF7ACF903463B800D4B1A883B8813444D
:1040C0009AB20B4B1A800A4B1A880A4B1B889A42E9
:1040D00009D3074B1B881A46074B0021995402E06D
:1040E00000BF00E000BF0837BD4680BD1C30002087
:1040F0001430002016300020942E002080B582B0AD
:1041000000AF254B1B78022B3CD1244B1B88002B86
:104110003AD0234B1A88214B1B889A4236D2FFF79C
:1041200089F90346FB80FB88002B31D01B4B1A8892
:104130001B4B1B88D31ABB80BA88FB88934228BFCD
:1041400013467B80164B1B88C3F580727B88934295
:1041500028BF13467B807B88002B1AD0104B1B880E
:104160001A46104B13447A8811461846FFF74EF949
:1041700003463B800A4B1A883B8813449AB2084B8B
:104180001A8006E000BF04E000BF02E000BF00E0CC
:1041900000BF0837BD4680BD1C3000201A3000200B
:1041A00018300020142F002080B59AB000AF78603E
:1041B0007B68002B00F0348107F10C031946786806
:1041C00002F0EAFA034683F00103DBB2002B00F0B1
:1041D000C980964B1B78012B63D1954B1B88002B14
:1041E0005FD0944B1A88924B1B889A4259D27B68B5
:1041F0001B78002B00F0B4807B681B782B2B00F021
:10420000AF807B681B78412B00F0AA807B681B780D
:104210004F2B00F0A5807B681B78452B00F0A08019
:104220007868FBF79FFF0346A7F86630804B1A8833
:10423000804B1B88D31AA7F86430B7F86420B7F80E
:104240006630934228BF1346A7F86230794B1B882B
:10425000C3F17F02B7F86230934228BF1346A7F834
:104260006230744B1B881A46734B1344B7F86220B4
:104270007968184602F0FAFE6E4B1A88B7F8623079
:1042800013449AB26B4B1A806A4B1A88684B1B888E
:104290009A4265D3674B1B881A46674B0021995495
:1042A0005EE0624B1B78022B40F0BC80634B1B88A6
:1042B000002B00F0B780624B1A88604B1B889A4233
:1042C00080F0B0807B681B78002B00F0AB807B68AF
:1042D0001B782B2B00F0A6807B681B78412B00F00D
:1042E000A1807B681B784F2B00F09C807B681B783B
:1042F000452B00F097807868FBF734FF0346A7F85A
:1043000060304E4B1A884E4B1B88D31AA7F85E308C
:10431000B7F85E20B7F86030934228BF1346A7F87D
:104320005C30474B1B88C3F58072B7F85C30934212
:1043300028BF1346A7F85C30414B1B881A46414BF7
:104340001344B7F85C207968184602F08FFE3C4BA6
:104350001A88B7F85C3013449AB2394B1A8061E07E
:1043600000BF5FE03B7B0E2B16D1304B01221A7051
:10437000304B00221A807B699AB22D4B1A80304B49
:1043800000221A80BB699AB22C4B1A80FEF76EFD90
:1043900002462D4B1A6046E03B7B112B0AD1234B82
:1043A00001221A70234B00221A807B699AB2204B9B
:1043B0001A8038E03B7B122B0AD11C4B02221A7068
:1043C0001F4B00221A807B699AB21C4B1A802AE08C
:1043D0003B7B102B27D1174B1B88002B16D0184B7B
:1043E0001B88002B12D0134B1B881A46124B00213E
:1043F0009954164BD3F8E831002B07D0134BD3F860
:10440000E8310F4A12880F490B489847074B0022A2
:104410001A70084B00221A80094B00221A8002E011
:1044200000BF00E000BF6837BD4680BD1C300020E3
:104430001630002014300020942E00201A30002066
:1044400018300020142F002020300020403400209D
:1044500080B5C0B000AF394B1B78002B02D0012BC8
:1044600047D062E03648FFF722FC3648FFF70EFCE3
:10447000FEF7FCFC0246314BC3F8D4212F4B01223E
:104480001A70012355E03048FFF754FC38462E4B94
:104490002E4A4FF4807102F0FDFD3B461846FFF7AF
:1044A00006FC2B49284802F077F90346002B1DD063
:1044B000274B1B78002B0AD12648FFF7F8FB1F4B30
:1044C00000221A702048FFF745FC002331E0204B02
:1044D0001B78012B0AD12048FFF7E9FB174B00227C
:1044E0001A701948FFF736FC002322E01648FFF740
:1044F00031FCC8211448FFF7F6FB0346002BC2D15C
:104500000E4BD3F8D43142F210711846FFF718FD64
:104510000346002B07D01148FFF7C9FB074B0022C9
:104520001A70002305E0012303E0044B00221A70F7
:104530000023184607F58077BD4680BD4034002033
:1045400090CA0008B0CA00083C310020C0CA000868
:104550003C320020E0CA0008F4CA00081CCB000866
:1045600080B500AF264B1B78002B02D0012B28D042
:1045700040E02448FFF78AFBFEF778FC0246204B18
:10458000C3F8D4211E4B01221A70012336E01E49C4
:104590001E4802F001F90346002B0FD01A4B1B787E
:1045A000002B03D0184B1B78012B07D1144B002292
:1045B0001A701648FFF7CEFB00231FE01348FFF7E1
:1045C000C9FBC8211148FFF78EFB0346002BDED143
:1045D0000B4BD3F8D43142F210711846FFF7B0FC00
:1045E0000346002B04D0064B00221A70002305E07E
:1045F000012303E0024B00221A700023184680BDFD
:104600004034002048CB00083C3200203C310020E0
:1046100080B598B000AF5B4B1B78032B00F2A980EC
:1046200001A252F823F000BF39460008894600086D
:10463000BB460008394700085348FFF727FBFEF741
:1046400015FC02464F4BC3F8D4214E4B01221A7081
:10465000012392E04D494E4802F09EF80346002B9C
:104660000FD04A4B1B78002B03D0484B1B78012BF3
:1046700007D1444B02221A704548FFF76BFB012318
:104680007BE04348FFF766FBC8214148FFF72BFB5F
:104690000346002BDED13B4BD3F8D43141F28831B5
:1046A0001846FFF74DFC0346002B04D0354B022281
:1046B0001A70012361E001235FE03846354B364A2A
:1046C000602102F0E7FC3B461846FFF7DFFAFEF7F1
:1046D000CDFB02462B4BC3F8D4212A4B03221A7080
:1046E00001234AE029492A4802F056F80346002BE4
:1046F0001FD0264B1B78002B07D1224B00221A70AB
:104700002348FFF727FB002337E0204B1B78012BC2
:1047100003D01E4B1B78022B0BD11A4B0C2283F8B3
:10472000D021184B00221A701948FFF713FB002301
:1047300023E01748FFF70EFBC8211548FFF7D3FA0F
:104740000346002BCED10F4BD3F8D43141F658316C
:104750001846FFF7F5FB0346002B08D0094B0C2247
:1047600083F8D021074B00221A70002305E00123B3
:1047700003E0044B00221A70002318466037BD4640
:1047800080BD00BF4034002058CB00083C320020E0
:104790003C310020C434002068CB000880B500AF55
:1047A000304B1B78002B02D0012B38D054E02E4820
:1047B000FFF76CFAFEF75AFB02462A4BC3F8D421E6
:1047C000284B01221A7001234AE02849284801F0A9
:1047D000E3FF0346002B1FD0244B1B78002B07D18F
:1047E000204B00221A702248FFF7B4FA002337E06A
:1047F0001E4B1B78012B03D01C4B1B78022B0BD1BB
:10480000184B0C2283F8D021164B00221A7018483E
:10481000FFF7A0FA002323E01548FFF79BFAC82111
:104820001348FFF760FA0346002BCED10D4BD3F8A7
:10483000D43141F658311846FFF782FB0346002B6E
:1048400008D0084B0C2283F8D021064B00221A70A6
:10485000002305E0012303E0024B00221A7000232D
:10486000184680BD4034002080CB00083C32002038
:104870003C31002080B500AF304B1B78002B02D0BC
:10488000012B38D054E02E48FFF700FAFEF7EEFA7D
:1048900002462A4BC3F8D421284B01221A70012367
:1048A0004AE02849284801F077FF0346002B1FD033
:1048B000244B1B78002B07D1204B00221A70224872
:1048C000FFF748FA002337E01E4B1B78012B03D07B
:1048D0001C4B1B78022B0BD1184B0C2283F8D021D8
:1048E000164B00221A701848FFF734FA002323E011
:1048F0001548FFF72FFAC8211348FFF7F4F90346CC
:10490000002BCED10D4BD3F8D43141F65831184697
:10491000FFF716FB0346002B08D0084B0C2283F848
:10492000D021064B00221A70002305E0012303E08A
:10493000024B00221A700023184680BD403400202C
:10494000A0CB00083C3200203C310020B0B5D0B0F4
:1049500000AF4D4B1B78002B02D0012B6AD089E0B1
:104960003B464A4A1C4615460FCD0FC495E8030046
:104970002060043421703B4607F14000444A802106
:1049800002F088FB07F140031846FFF790F93B4619
:104990001846FFF7CFF93B461846FFF777F9FEF7C1
:1049A00065FA0246384BC3F8D421374B01221A70FE
:1049B000012363E03748FFF7BDF907F14000354BAD
:1049C000354A4FF4807102F065FB07F14003184649
:1049D000FFF76DF931492F4801F0DEFE0346002B49
:1049E00025D02E4B1B78002B0AD12D48FFF75FF9FD
:1049F000254B00221A702748FFF7ACF900233DE051
:104A0000264B1B78012B03D0244B1B78022B0ED195
:104A10002448FFF74CF91C4B0C2283F8D0211A4B89
:104A200000221A701B48FFF795F9002326E0194869
:104A3000FFF790F9C8211748FFF755F90346002BF7
:104A4000B8D1114BD3F8D43141F658311846FFF79D
:104A500077FA0346002B0BD01348FFF728F90A4BCF
:104A60000C2283F8D021084B00221A70002305E0A5
:104A7000012303E0044B00221A700023184607F5B7
:104A8000A077BD46B0BD00BF4034002050CD000827
:104A900068CD00083C31002080CD00083C32002069
:104AA000A0CD0008B8CD0008D4CD000880B5ADF584
:104AB000187D04AF9D4B1B78002B03D0012B00F019
:104AC0000B812AE1994B93F844311A46381D984BD3
:104AD0000393984B0293012301930092964B974ABC
:104AE0004FF4807102F0D6FA904B93F844311A4695
:104AF00007F582708E4B03938E4B02930123019333
:104B000000928D4B8E4A4FF4A07102F0C3FA07F564
:104B100082731846FFF7CBF83B1D1846FFF70AF9DA
:104B20003B1D1846FFF7B2F8FEF7A0F902467F4B8F
:104B3000C3F8D4217D4B01221A700123F1E0814892
:104B4000FFF7F8F8381D7F4B7F4A4FF4807102F071
:104B5000A1FA3B1D1846FFF7AAF87C49794802F0F4
:104B60002EFB0346002B00F08B800023C7F8483251
:104B70000023C7F8443207F5117307F51272744920
:104B8000704802F0BBFA0346022B79D1D7F84432C1
:104B9000002B12D16F48FFF78AF8644B012283F88B
:104BA000DC21624B082283F8D021604B00221A706E
:104BB0006448FFF7CFF80023B3E0674BC7F84C32E7
:104BC000D7F84432013B0E2B38D801A252F823F01B
:104BD0000D4C0008154C00081D4C0008254C000821
:104BE0002D4C00083D4C00083D4C00083D4C000891
:104BF0003D4C00083D4C00083D4C00083D4C000871
:104C00003D4C00083D4C0008354C0008534BC7F89C
:104C10004C3217E0524BC7F84C3213E0514BC7F8F7
:104C20004C320FE0504BC7F84C320BE04F4BC7F8FB
:104C30004C3207E04E4BC7F84C3203E04D4BC7F8FF
:104C40004C3200BFD7F8442207F58270D7F84C32B7
:104C500000931346484A4FF4807102F01BFA07F59F
:104C600082731846FFF723F8304B0C2283F8D021CB
:104C70002E4B00221A703348FFF76CF8002350E0E7
:104C80003E49304801F088FD0346002B21D03B4BC4
:104C90001B78002B06D13A48FFF709F82948FFF79F
:104CA00059F819E0354B1B78012B03D0334B1B7897
:104CB000022B0ED13348FEF7FAFF1C4B0C2283F86F
:104CC000D0211A4B00221A701E48FFF743F8002328
:104CD00027E01C48FFF73EF8C8211A48FFF703F801
:104CE0000346002B7FF42BAF104BD3F8D4314EF694
:104CF00060211846FFF724F90346002B0BD0224809
:104D0000FEF7D5FF094B0C2283F8D021074B002278
:104D10001A70002305E0012303E0044B00221A70FF
:104D20000023184607F51477BD4680BD40340020A7
:104D3000443500200435002042340020F0CD000826
:104D40001CCE00083C31002058CE000878CE000868
:104D500088CE0008A0CE0008C4CE0008CCCE000843
:104D600000CF00082CCF000854CF000884CF0008E3
:104D7000A8CF0008D4CF0008E8CF00083C320020BC
:104D800010D0000854D000087CD0000880B5E4B0F2
:104D900000AF884B1B78002B02D0012B2DD0FFE0F9
:104DA0008548FBF7DFF90346A7F88E31B7F88E3157
:104DB000381D824A802102F06DF93B1D07F1840005
:104DC0007F4A4FF4807102F065F907F184031846B9
:104DD000FEF76DFF3B1D1846FEF7ACFF3B1D184666
:104DE000FEF754FFFEF742F80246724BC3F8D42197
:104DF000704B01221A700123D6E0724B1B7883F0AE
:104E00000103DBB2002B00F0A78007F184006A4B9E
:104E10006D4A4FF4807102F03DF907F184031846A2
:104E2000FEF745FF6448FEF785FF6348FEF72EFF57
:104E30006648FEF72BFF634B01221A70FEF716F847
:104E400002465C4BC3F8D4210123ADE06048FEF775
:104E500071FF07F184005E4B5E4A4FF4807102F0EF
:104E600019F907F184031846FEF721FF5A495848FB
:104E700001F092FC0346002B6BD0574B1B78132B91
:104E800037D1554B5B68C7F88831534B9B68C7F8DF
:104E90008431D7F88431002B11D15048FEF707FF39
:104EA000444B082283F8D021424B00221A70454B14
:104EB00000221A704648FEF74DFF002374E0381DAB
:104EC000D7F88431464A802102F0E4F83B1D1846A9
:104ED000FEF7EDFE374B0C2283F8D021354B002234
:104EE0001A70384B00221A703948FEF733FF00233E
:104EF0005AE0394B1B78002B11D13A48FEF7D7FE08
:104F00002C4B082283F8D0212A4B00221A702D4BFB
:104F100000221A702E48FEF71DFF002344E02E4B9E
:104F20001B78012B03D02C4B1B78022B11D12E4860
:104F3000FEF7BDFE1F4B0C2283F8D0211D4B002233
:104F40001A70204B00221A702148FEF703FF00233D
:104F50002AE01F48FEF7FEFEC8211D48FEF7C3FEEB
:104F60000346002B7FF472AF124BD3F8D43141F2D9
:104F700088311846FEF7E4FF0346002B0ED01B488D
:104F8000FEF795FE0B4B0C2283F8D021094B002233
:104F90001A700C4B00221A70002305E0012303E075
:104FA000044B00221A700023184607F5C877BD4647
:104FB00080BD00BF4034002088350020A0D000080C
:104FC000B8D0000824300020CCD00008E8D0000879
:104FD0003C310020ECD000083C32002008D1000811
:104FE00028D1000848D1000864D100087CD100080D
:104FF00080B582B000AFC04B93F8D021BF4B1B7877
:105000009A4209D0FDF732FF0246BD4B1A60BA4BF7
:1050100093F8D021B94B1A70B74B93F8D031082BC5
:1050200005D1B54B93F8DC31002B40F0AD8143F650
:1050300098237B60B04B93F8D031072B02D14EF60A
:1050400060237B60FDF712FF0246AD4B1B68D21A4E
:105050007B689A4213D9A84B002283F8D021A64B33
:1050600000221A70FDF702FF0246A54B1A60A34BFF
:1050700000221A70FDF7FAFE0246A24B1A60A14BFD
:105080001B68002B09D0FDF7F1FE02469D4B1B6803
:10509000D31AB3F5FA6FC0F079819A4B00221A60E7
:1050A000954B93F8D0310C2B00F25D8101A252F8A0
:1050B00023F000BFE95000081B5100084D510008C3
:1050C000A7510008D9510008675300080B52000887
:1050D0003D520008C352000867530008915200086F
:1050E0006753000815530008FFF7B2F9034683F031
:1050F0000103DBB2002B00F04B817F4B012283F8D0
:10510000D0217D4B00221A70FDF7B0FE02467C4B89
:105110001A607A4B01221A703AE1FFF721FA03462E
:1051200083F00103DBB2002B00F03481724B0222CA
:1051300083F8D021704B00221A70FDF797FE0246CB
:105140006F4B1A606D4B02221A7023E1FFF760FA71
:10515000034683F00103DBB2002B00F01D816A4996
:105160006A4802F02CF80346002B14BF01230023E9
:10517000FB70FB78002B04D05F4B032283F8D02117
:1051800003E05D4B072283F8D0215B4B00221A70AD
:10519000FDF76CFE02465A4B1A60574B93F8D0212C
:1051A000564B1A70F8E0FFF7F9FA034683F0010353
:1051B000DBB2002B00F0F2804F4B042283F8D021A9
:1051C0004D4B00221A70FDF751FE02464C4B1A60FF
:1051D0004A4B04221A70E1E0FFF74CFB034683F0D0
:1051E0000103DBB2002B00F0DB80434B062283F887
:1051F000D021414B00221A70FDF738FE0246404B89
:105200001A603E4B06221A70CAE0FFF79FFB034666
:1052100083F00103DBB2002B00F0C480364B072281
:1052200083F8D021344B00221A70FDF71FFE02468E
:10523000334B1A60314B07221A70B3E0FFF736FC8C
:10524000034683F00103DBB2002B00F0AD802A4B54
:1052500093F8DC31002B00F0A7802D4B1B78002B3E
:1052600004D0254B0A2283F8D02103E0224B0822E8
:1052700083F8D021204B00221A70FDF7F7FD02467B
:105280001F4B1A601C4B93F8D0211C4B1A708BE0FB
:10529000FFF77CFD034683F00103DBB2002B00F037
:1052A0008580154B082283F8D021134B00221A70F9
:1052B000FDF7DCFD0246124B1A60104B08221A70F3
:1052C00074E00D4B93F8DC31002B0FD10A4B002218
:1052D00083F8D021084B00221A70FDF7C7FD024663
:1052E000074B1A60054B00221A7062E0FEF7A8FE19
:1052F000FEF704FF5DE000BF4034002025300020B1
:10530000283000202C30002094D1000842340020A6
:1053100088350020284B1B68002B04D1FDF7A6FD23
:105320000246254B1A60FDF7A1FD0246224B1B6881
:10533000D31A40F6B83293423AD92048FEF7B7FC68
:105340001F4B002283F8D0211D4B00221A70FDF75D
:105350008DFD02461B4B1A601B4B00221A70164B28
:1053600000221A6024E0164B002283F8D021144B4F
:1053700000221A70FDF77AFD0246124B1A60124B9A
:1053800000221A7000BF14E000BF12E000BF10E05E
:1053900000BF0EE000BF0CE000BF0AE000BF08E065
:1053A00000BF06E000BF04E000BF02E000BF00E075
:1053B00000BF0837BD4680BD303000209CD10008BA
:1053C00040340020283000202530002090B5C7B0A0
:1053D00002AF07F10C04206007F108000160391DDD
:1053E0000A603A46136007F10C031B68002B0BD0D0
:1053F00007F10C037F221968394801F0CBFE394BC5
:10540000002283F8812008E07F223749344801F0E8
:10541000C1FE344B002283F88120324B93F8443193
:1054200007F1100000932E4B304A4FF4807101F0C9
:1054300031FE07F110031846FEF739FC07F10803A7
:105440001B68002B0AD007F108033F22196828487F
:1054500001F0A0FE234B002283F8C3203B1D1B68F4
:10546000002B0AD03B1D3F221968224801F092FE12
:105470001C4B002283F8032108E03F221E491D48EF
:1054800001F088FE174B002283F803213B461B687E
:10549000002B0AD03B463F221968184801F07AFEDB
:1054A000104B002283F8432108E03F22144913489F
:1054B00001F070FE0B4B002283F843217F2211493B
:1054C000114801F067FE074B002283F8C721054B06
:1054D000012283F8CE2100BF07F58A77BD4690BD33
:1054E0004234002040340020C4D1000804D2000817
:1054F000C43400200435002030D200084435002098
:105500003CD200084CD200088835002080B582B01B
:1055100000AF78600B46FB70144B93F8DC31002B26
:105520000DD17F227968124801F034FE0F4B002222
:1055300083F8C7210D4AFB7882F8CE3113E07F2231
:1055400079680B4801F026FE084B002283F8C7213A
:10555000064AFB7882F8CE31044B0A2283F8D02128
:10556000024B00221A700837BD4680BD403400202F
:105570008835002080B400AF054B93F8DC31002B58
:1055800014BF01230023DBB21846BD4680BC704720
:1055900040340020B0B5ADF54E7D02AF07F10C03ED
:1055A000186007F108031960FB1D1A70A44B93F8EB
:1055B000DC31002B09D007F10C031B68002B04D051
:1055C00007F108031B68002B13D107F110039D4A54
:1055D0001C4615460FCD0FC40FCD0FC495E80F0024
:1055E00084E80F0007F110031846FEF760FB00BFC8
:1055F00022E107F10C031868FAF7B4FD0346A7F897
:105600002E3307F108031868FAF7ACFD0346A7F834
:105610002C3307F10C0307F1900007F10802126820
:1056200000921B68884A4FF4807101F033FD07F146
:1056300090031846FEF73BFBB7F82E3307F52A70A8
:10564000824A802101F026FD07F52A731846FEF7ED
:105650001DFBFDF70BFCC7F828032EE007F5F073E0
:10566000C8211846FEF73FFB0346002B25D007F55F
:10567000C87207F5F0731146184601F08DF803461D
:10568000002B15D007F5C8731B78002B05D107F543
:10569000F0731846FEF75EFB19E007F5C8731B7838
:1056A000012B05D107F5F0731846FEF753FBC3E055
:1056B00007F5F0731846FEF74DFBFDF7D7FB0246E2
:1056C000D7F82833D31A40F6B7329342C6D907F138
:1056D0000C031868FEF7DAFA5D48FEF7D7FA642083
:1056E000FDF7DCFBB7F82C3307F52A70594A802107
:1056F00001F0D0FC07F52A731846FEF7C7FAFDF74C
:10570000B5FBC7F828032EE007F5F073C82118464B
:10571000FEF7E9FA0346002B25D007F5C87207F516
:10572000F0731146184601F037F80346002B15D0E8
:1057300007F5C8731B78002B05D107F5F0731846E1
:10574000FEF708FB19E007F5C8731B78012B05D19C
:1057500007F5F0731846FEF7FDFA6DE007F5F073F4
:105760001846FEF7F7FAFDF781FB0246D7F8283313
:10577000D31A40F6B7329342C6D907F10803186826
:10578000FEF784FA3248FEF781FA6420FDF786FBC3
:10579000FB1D1B7807F52A702F4A802101F07AFC47
:1057A00007F52A731846FEF771FAFDF75FFBC7F895
:1057B000280334E007F5F073C8211846FEF793FA82
:1057C0000346002B2BD007F5C87207F5F07311467E
:1057D000184600F0E1FF0346002B1BD007F5C87305
:1057E0001B78002B08D11D48FEF761FA07F5F0730E
:1057F0001846FEF7AFFA1FE007F5C8731B78012BB8
:1058000008D11748FEF753FA07F5F0731846FEF76C
:10581000A1FA11E007F5F0731846FEF79BFAFDF7C1
:1058200025FB0246D7F82833D31A41F28732934238
:10583000C0D90C48FEF73BFA07F54C77BD46B0BD22
:105840004034002058D2000888D20008B0D20008A6
:10585000E8D00008C8D20008E0D20008F8D200085A
:1058600018D3000830D3000880B582B000AF78604C
:105870003960FDF7FBFA02467B68D21A3B689A4210
:105880002CBF01230023DBB218460837BD4680BD7C
:1058900080B582B000AF78603960182200210A48D4
:1058A00001F0EFFB084A7B68D360074A3B6813614D
:1058B000054B00221A75FDF7D9FA0246024B5A60D1
:1058C00000BF0837BD4680BD2C36002080B582B0B1
:1058D00000AFD24B1B78642B00F2BD8301A252F8BB
:1058E00023F000BF795A00089F5A00083B5B00086C
:1058F0005B5B0008F75B0008175C0008DF5C0008D2
:10590000FF5C00089B5D0008BB5D0008575E000857
:10591000775E0008495F0008695F0008576000086B
:10592000576000085760000857600008576000087B
:1059300057600008056000085760000857600008BD
:10594000576000085760000857600008576000085B
:10595000576000085760000857600008576000084B
:10596000576000085760000857600008576000083B
:10597000576000085760000857600008576000082B
:10598000576000085760000857600008576000081B
:10599000576000085760000857600008576000080B
:1059A00057600008576000085760000857600008FB
:1059B00057600008576000085760000857600008EB
:1059C00057600008576000085760000857600008DB
:1059D00057600008576000085760000857600008CB
:1059E00057600008576000085760000857600008BB
:1059F00057600008576000085760000857600008AB
:105A0000576000085760000857600008576000089A
:105A1000576000085760000857600008576000088A
:105A2000576000085760000857600008576000087A
:105A3000576000085760000857600008576000086A
:105A4000576000085760000857600008576000085A
:105A5000576000085760000857600008576000084A
:105A6000576000085760000857600008576000083A
:105A70005760000853600008684B00225A7068485D
:105A8000FEF715F96748FEF701F9FDF7EFF9024651
:105A9000624B5A60614B01221A700023E3E200233B
:105AA000FB712BE06048FEF745F960495E4800F065
:105AB00073FE0346002B1ED05C4B1B78002B0DD1D0
:105AC000564B02221A70FDF7D1F90246534B5A6029
:105AD0000123FB715448FEF73DF916E0534B1B7848
