:020000040800F2
:1000000000500020091800085B1800086718000855
:100010006D18000873180008791800080000000027
:100020000000000000000000000000007F18000831
:100030008B1800080000000097180008A31800089B
:1000400059180008591800085918000859180008CC
:1000500059180008591800085918000859180008BC
:1000600059180008591800085918000859180008AC
:10007000591800085918000859180008591800089C
:10008000591800085918000859180008591800088C
:10009000591800085918000859180008591800087C
:1000A000591800085918000859180008591800086C
:1000B000591800085918000859180008591800085C
:1000C000591800085918000859180008591800084C
:1000D00059180008B1180008F1180008591800084C
:1000E00059180008591800085918000800000000A5
:1000F0000000000000000000000000000000000000
:0C01000000000000000000005FF808F1A3
:1001100010B5054C237833B9044B13B10448AFF341
:1001200000800123237010BD98060020000000000D
:100130007466000808B5034B1BB103490348AFF3CD
:10014000008008BD000000009C06002074660008C6
:10015000034613F8012B002AFBD1181A0138704707
:1001600081F0004102E000BF83F0004330B54FEA68
:1001700041044FEA430594EA050F08BF90EA020FD5
:100180001FBF54EA000C55EA020C7FEA645C7FEA68
:10019000655C00F0E2804FEA5454D4EB5555B8BF8B
:1001A0006D420CDD2C4480EA020281EA030382EAFC
:1001B000000083EA010180EA020281EA0303362D8E
:1001C00088BF30BD11F0004F4FEA01314FF4801C61
:1001D0004CEA113102D0404261EB410113F0004F73
:1001E0004FEA03334CEA133302D0524263EB43032A
:1001F00094EA050F00F0A780A4F10104D5F1200EC8
:100200000DDB02FA0EFC22FA05F2801841F1000122
:1002100003FA0EF2801843FA05F359410EE0A5F1F6
:1002200020050EF1200E012A03FA0EFC28BF4CF027
:10023000020C43FA05F3C01851EBE37101F00045DD
:1002400007D54FF0000EDCF1000C7EEB00006EEBEA
:100250000101B1F5801F1BD3B1F5001F0CD3490874
:100260005FEA30004FEA3C0C04F101044FEA4452CB
:1002700012F5800F80F09A80BCF1004F08BF5FEA52
:10028000500C50F1000041EB045141EA050130BD32
:100290005FEA4C0C404141EB010111F4801FA4F1D5
:1002A0000104E9D191F0000F04BF01460020B1FA2A
:1002B00081F308BF2033A3F10B03B3F120020CDA62
:1002C0000C3208DD02F1140CC2F10C0201FA0CF040
:1002D00021FA02F10CE002F11402D8BFC2F1200CA5
:1002E00001FA02F120FA0CFCDCBF41EA0C0190405B
:1002F000E41AA2BF01EB0451294330BD6FEA0404A4
:100300001F3C1CDA0C340EDC04F11404C4F120028E
:1003100020FA04F001FA02F340EA030021FA04F3A0
:1003200045EA030130BDC4F10C04C4F1200220FAF7
:1003300002F001FA04F340EA0300294630BD21FA35
:1003400004F0294630BD94F0000F83F4801306BFFB
:1003500081F480110134013D4EE77FEA645C18BFEF
:100360007FEA655C29D094EA050F08BF90EA020F86
:1003700005D054EA000C04BF1946104630BD91EA7E
:10038000030F1EBF0021002030BD5FEA545C05D181
:100390004000494128BF41F0004130BD14F58004C0
:1003A0003CBF01F5801130BD01F0004545F0FE4134
:1003B00041F470014FF0000030BD7FEA645C1ABF69
:1003C000194610467FEA655C1CBF0B46024650EAA0
:1003D000013406BF52EA033591EA030F41F40021CC
:1003E00030BD00BF90F0000F04BF0021704730B552
:1003F0004FF4806404F132044FF000054FF0000127
:1004000050E700BF90F0000F04BF0021704730B5E7
:100410004FF4806404F1320410F0004548BF4042BC
:100420004FF000013EE700BF42004FEAE2014FEA11
:1004300031014FEA02701FBF12F07F4393F07F4FEC
:1004400081F06051704792F0000F14BF93F07F4F1E
:10045000704730B54FF4607401F0004521F0004161
:1004600020E700BF50EA010208BF704730B54FF0E7
:1004700000050AE050EA010208BF704730B511F0EC
:10048000004502D5404261EB41014FF4806404F124
:1004900032045FEA915C3FF4DCAE4FF003025FEAA6
:1004A000DC0C18BF03325FEADC0C18BF033202EB2E
:1004B000DC02C2F1200300FA03FC20FA02F001FA88
:1004C00003FE40EA0E0021FA02F11444C1E600BF27
:1004D00070B54FF0FF0C4CF4E06C1CEA11541DBFDA
:1004E0001CEA135594EA0C0F95EA0C0F00F0DEF8A5
:1004F0002C4481EA030621EA4C5123EA4C5350EA8A
:10050000013518BF52EA033541F4801143F48013DA
:1005100038D0A0FB02CE4FF00005E1FB02E506F06B
:100520000042E0FB03E54FF00006E1FB03569CF0C0
:10053000000F18BF4EF0010EA4F1FF04B6F5007FC6
:1005400064F5407404D25FEA4E0E6D4146EB060638
:1005500042EAC62141EA55514FEAC52040EA5E50C1
:100560004FEACE2EB4F1FD0C88BFBCF5E06F1ED86B
:10057000BEF1004F08BF5FEA500E50F1000041EBA2
:10058000045170BD06F0004646EA010140EA02004F
:1005900081EA0301B4EB5C04C2BFD4EB0C0541EA71
:1005A000045170BD41F480114FF0000E013C00F386
:1005B000AB8014F1360FDEBF002001F0004170BDAA
:1005C000C4F10004203C35DA0C341BDC04F11404C3
:1005D000C4F1200500FA05F320FA04F001FA05F24F
:1005E00040EA020001F0004221F0004110EBD3701C
:1005F00021FA04F642EB06015EEA430E08BF20EA48
:10060000D37070BDC4F10C04C4F1200500FA04F3EA
:1006100020FA05F001FA04F240EA020001F000417C
:1006200010EBD37041F100015EEA430E08BF20EAEF
:10063000D37070BDC4F1200500FA05F24EEA020E37
:1006400020FA04F301FA05F243EA020321FA04F066
:1006500001F0004121FA04F220EA020000EBD3701D
:100660005EEA430E08BF20EAD37070BD94F0000F1D
:100670000FD101F00046400041EB010111F4801F51
:1006800008BF013CF7D041EA060195F0000F18BF02
:10069000704703F00046520043EB030313F4801F3E
:1006A00008BF013DF7D043EA0603704794EA0C0FF8
:1006B0000CEA135518BF95EA0C0F0CD050EA41060E
:1006C00018BF52EA4306D1D181EA030101F000418B
:1006D0004FF0000070BD50EA410606BF10461946B3
:1006E00052EA430619D094EA0C0F02D150EA0136BF
:1006F00013D195EA0C0F05D152EA03361CBF104600
:1007000019460AD181EA030101F0004141F0FE419E
:1007100041F470014FF0000070BD41F0FE4141F422
:10072000780170BD70B54FF0FF0C4CF4E06C1CEA22
:1007300011541DBF1CEA135594EA0C0F95EA0C0FD7
:1007400000F0A7F8A4EB050481EA030E52EA033592
:100750004FEA013100F088804FEA03334FF08055B3
:1007600045EA131343EA12634FEA022245EA1115E0
:1007700045EA10654FEA00260EF000419D4208BF91
:10078000964244F1FD0404F5407402D25B084FEA3E
:100790003202B61A65EB03055B084FEA32024FF4EA
:1007A00080104FF4002CB6EB020E75EB030E22BF47
:1007B000B61A754640EA0C005B084FEA3202B6EB07
:1007C000020E75EB030E22BFB61A754640EA5C00B6
:1007D0005B084FEA3202B6EB020E75EB030E22BF46
:1007E000B61A754640EA9C005B084FEA3202B6EB47
:1007F000020E75EB030E22BFB61A754640EADC0006
:1008000055EA060E18D04FEA051545EA16754FEA67
:1008100006164FEAC30343EA52734FEAC2025FEA85
:100820001C1CC0D111F4801F0BD141EA00014FF014
:1008300000004FF0004CB6E711F4801F04BF0143E5
:100840000020B4F1FD0C88BFBCF5E06F3FF6AFAE01
:10085000B5EB030C04BFB6EB020C5FEA500C50F191
:10086000000041EB045170BD0EF0004E4EEA113114
:1008700014EB5C04C2BFD4EB0C0541EA045170BD1B
:1008800041F480114FF0000E013C90E645EA060E5F
:100890008DE60CEA135594EA0C0F08BF95EA0C0F8D
:1008A0003FF43BAF94EA0C0F0AD150EA01347FF4D5
:1008B00034AF95EA0C0F7FF425AF104619462CE7AC
:1008C00095EA0C0F06D152EA03353FF4FDAE10460F
:1008D000194622E750EA410618BF52EA43067FF460
:1008E000C5AE50EA41047FF40DAF52EA43057FF4F0
:1008F000EBAE12E74FF0FF3C06E000BF4FF0010CFB
:1009000002E000BF4FF0010C4DF804CD4FEA410C5E
:100910007FEA6C5C4FEA430C18BF7FEA6C5C1BD02B
:1009200001B050EA410C0CBF52EA430C91EA030FAC
:1009300002BF90EA020F0020704710F1000F91EA09
:10094000030F58BF994208BF90422CBFD8176FEAD7
:10095000E37040F0010070474FEA410C7FEA6C5CA5
:1009600002D150EA013C07D14FEA430C7FEA6C5CAC
:10097000D6D152EA033CD3D05DF8040B704700BFD8
:100980008446104662468C461946634600E000BF26
:1009900001B5FFF7B7FF002848BF10F1000F01BDF8
:1009A0004DF808EDFFF7F4FF0CBF012000205DF8C3
:1009B00008FB00BF4DF808EDFFF7EAFF34BF012048
:1009C00000205DF808FB00BF4DF808EDFFF7E0FFE1
:1009D00094BF012000205DF808FB00BF4DF808ED32
:1009E000FFF7CEFF94BF012000205DF808FB00BF99
:1009F0004DF808EDFFF7C4FF34BF012000205DF87B
:100A000008FB00BF4FEA410C7FEA6C5C02D150EA60
:100A1000013C0AD14FEA430C7FEA6C5C02D152EAF6
:100A2000033C02D14FF0000070474FF001007047C7
:100A30004FEA410212F5001215D211D56FF4787306
:100A4000B3EB625212D94FEAC12343F0004343EAA9
:100A5000505311F0004F23FA02F018BF4042704784
:100A60004FF00000704750EA013005D111F000400E
:100A700008BF6FF0004070474FF00000704700BFA4
:100A800053B94AB9002908BF00281CBF4FF0FF31F5
:100A90004FF0FF3000F07AB9ADF1080C6DE904CEEB
:100AA00000F006F8DDF804E0DDE9022304B0704749
:100AB0002DE9F0478C460E460446089D002B50D188
:100AC0008A4217466CD9B2FA82FEBEF1000F0BD0F3
:100AD000CEF1200C01FA0EF620FA0CFC02FA0EF709
:100AE0004CEA060C00FA0EF43A0CBCFBF2F9BBB26D
:100AF00002FB19CC09FB03FA4FEA144848EA0C46FA
:100B0000B2450AD9F61909F1FF3180F02581B245C5
:100B100040F22281A9F102093E44A6EB0A06B6FB87
:100B2000F2F002FB106600FB03F3A4B244EA0644B1
:100B3000A34209D9E41900F1FF3280F00B81A342EE
:100B400040F2088102383C440021E41A40EA09409E
:100B5000002D62D0002324FA0EF42C606B60BDE8F7
:100B6000F0878B4207D9002D55D0002185E8410040
:100B70000846BDE8F087B3FA83F1002940F08F8082
:100B8000B34202D3824200F2FC80841A66EB030671
:100B90000120B446002D40D085E81010BDE8F08754
:100BA00012B90127B7FBF2F7B7FA87FEBEF1000FC3
:100BB00035D10121F61B4FEA174C1FFA87F8B6FB17
:100BC000FCF20CFB126608FB02F0230C43EA06461B
:100BD000B04207D9F61902F1FF3302D2B04200F257
:100BE000D2801A46361AB6FBFCF00CFB106608FBE6
:100BF00000F8A3B243EA0644A04507D9E41900F17E
:100C0000FF3302D2A04500F2B9801846A4EB0804D5
:100C100040EA02409CE729462846BDE8F08707FAEB
:100C20000EF7CEF1200326FA03F24FEA174CB2FB7F
:100C3000FCF11FFA87F80CFB112206FA0EF620FAD7
:100C400003F301FB08F933431E0C46EA0246B145A3
:100C500000FA0EF409D9F61901F1FF3280F08C8008
:100C6000B14540F2898002393E44A6EB0906B6FB45
:100C7000FCF00CFB106200FB08F99EB246EA02464B
:100C8000B14507D9F61900F1FF3371D2B1456FD9DB
:100C900002383E44A6EB090640EA01418FE7C1F164
:100CA000200722FA07F88B4048EA030326FA07F4E4
:100CB0004FEA134EB4FBFEF91FFA83FC0EFB1944F6
:100CC0008E4020FA07F809FB0CFA48EA06084FEABA
:100CD000184646EA0444A24502FA01F200FA01F677
:100CE00008D9E41809F1FF3044D2A24542D9A9F14C
:100CF00002091C44A4EB0A04B4FBFEF00EFB1044F2
:100D000000FB0CFC1FFA88F848EA0444A44507D904
:100D1000E41800F1FF3E29D2A44527D902381C442B
:100D200040EA0940A0FB0289A4EB0C0CCC45C2466A
:100D3000CE4615D312D055B1B6EB0A036CEB0E06B6
:100D400006FA07F7CB401F43CE402F606E600021AC
:100D5000BDE8F0871046F7E68946DEE64645EAD26A
:100D6000B8EB020A69EB030E0138E4E77046D7E7F7
:100D700018468FE78146BDE7114676E702383C44C6
:100D800044E7084606E7023A3E442BE7704700BFB7
:100D900080B483B000AF78607B68042B06D1094A29
:100DA000084B1B6843F00403136005E0054A054B3C
:100DB0001B6823F00403136000BF0C37BD4680BCE2
:100DC000704700BF10E000E080B485B000AF7860ED
:100DD0000023FB60094B1B68FB60FB6803F03803D2
:100DE000FB60FA687B681343FB60044AFB6813608E
:100DF00000BF1437BD4680BC704700BF00200240D2
:100E000080B483B000AF7860084A084B1B6823F0B9
:100E1000100313600549054B1A687B6813430B6088
:100E200000BF0C37BD4680BC704700BF00200240A9
:100E300080B489B000AF786039600023FB61002383
:100E40003B610023BB610023FB6000237B61002327
:100E5000BB603B68DB7803F00F03FB613B68DB782A
:100E600003F01003002B05D03B689B781A46FB6902
:100E70001343FB613B681B88DBB2002B44D07B68CB
:100E80001B687B610023BB6138E00122BB6902FA69
:100E900003F3FB603B681B881A46FB6813403B6109
:100EA0003A69FB689A4226D1BB699B00FB600F221E
:100EB000FB6802FA03F3BB60BB68DB437A6913404B
:100EC0007B61FA69FB6802FA03F37A6913437B6179
:100ED0003B68DB78282B05D10122BB699A407B68EF
:100EE0005A6108E03B68DB78482B04D10122BB69DA
:100EF0009A407B681A61BB690133BB61BB69072BF0
:100F0000C3D97B687A691A603B681B88FF2B46D976
:100F10007B685B687B610023BB613AE0BB69083397
:100F2000012202FA03F3FB603B681B881A46FB6848
:100F300013403B613A69FB689A4227D1BB699B0029
:100F4000FB600F22FB6802FA03F3BB60BB68DB4364
:100F50007A6913407B61FA69FB6802FA03F37A69E4
:100F600013437B613B68DB78282B05D1BB690833D1
:100F700001229A407B685A613B68DB78482B05D197
:100F8000BB69083301229A407B681A61BB6901334F
:100F9000BB61BB69072BC1D97B687A695A6000BF06
:100FA0002437BD4680BC704780B483B000AF786002
:100FB0000B467B807A887B685A6100BF0C37BD4640
:100FC00080BC704780B483B000AF7860134A134B85
:100FD0001B6823F480331360104A104B1B6823F402
:100FE000802313607B68B3F5803F03D0B3F5802F77
:100FF00007D00DE0094A094B1B6843F480331360A6
:1010000006E0064A054B1B6843F4A023136000BFAB
:1010100000BF0C37BD4680BC704700BF00100240C7
:1010200080B582B000AF00233B600023FB7100233A
:10103000BB71312000F0B4F90346BB713B6801334A
:101040003B603B68B3F5A06F02D0BB79002BF0D0BA
:10105000312000F0A5F90346002B02D00123FB71DB
:1010600001E00023FB71FB7918460837BD4680BDBF
:1010700080B485B000AF786039600023FB600A4B14
:101080005B68FB60FB6823F47C13FB607A683B6859
:101090001343FA681343FB60034AFB68536000BFC5
:1010A0001437BD4680BC70470010024080B483B046
:1010B00000AF0346FB71044AFB79136000BF0C3795
:1010C000BD4680BC704700BF6000424280B485B01E
:1010D00000AF78600023FB60094B5B68FB60FB6836
:1010E00023F00303FB60FA687B681343FB60044A48
:1010F000FB68536000BF1437BD4680BC704700BF1B
:101100000010024080B400AF044B5B68DBB203F018
:101110000C03DBB21846BD4680BC7047001002408D
:1011200080B485B000AF78600023FB60094B5B683A
:10113000FB60FB6823F0F003FB60FA687B681343F5
:10114000FB60044AFB68536000BF1437BD4680BC97
:10115000704700BF0010024080B485B000AF7860D7
:101160000023FB60094B5B68FB60FB6823F4E063D2
:10117000FB60FA687B681343FB60044AFB685360BA
:1011800000BF1437BD4680BC704700BF001002404E
:1011900080B485B000AF78600023FB60094B5B68CA
:1011A000FB60FB6823F46053FB607B68DB00FA683C
:1011B0001343FB60034AFB68536000BF1437BD460E
:1011C00080BC70470010024080B487B000AF7860E8
:1011D00000237B6100233B610023FB600023BB6095
:1011E0004C4B5B6803F00C037B617B69042B07D0DD
:1011F000082B09D0002B33D17B68474A1A6033E0B3
:101200007B68454A1A602FE0424B5B6803F4701319
:101210003B61404B5B6803F48033FB603B699B0C94
:1012200002333B61FB68002B06D13B693B4A02FB62
:1012300003F27B681A6017E0364B5B6803F40033F7
:10124000002B06D03B69354A02FB03F27B681A602B
:101250000AE03B69304A02FB03F27B681A6003E054
:101260007B682D4A1A6000BF2A4B5B6803F0F003CD
:101270007B617B691B097B61294A7B6913441B786D
:10128000DBB2BB607B681A68BB68DA407B685A6077
:10129000204B5B6803F4E0637B617B691B0A7B6125
:1012A0001F4A7B6913441B78DBB2BB607B685A68BA
:1012B000BB68DA407B689A60164B5B6803F4605346
:1012C0007B617B69DB0A7B61154A7B6913441B7870
:1012D000DBB2BB607B685A68BB68DA407B68DA6067
:1012E0000C4B5B6803F440437B617B699B0B7B6128
:1012F0000C4A7B6913441B78DBB2BB607B68DA68FD
:10130000BB68B2FBF3F27B681A6100BF1C37BD46B5
:1013100080BC70470010024000127A0000093D00B6
:10132000000000201000002080B483B000AF78607F
:101330000B46FB70FB78002B06D00949084B9A69D5
:101340007B6813438B6106E00549054B9A697B680E
:10135000DB4313408B6100BF0C37BD4680BC704738
:101360000010024080B483B000AF78600B46FB7081
:10137000FB78002B06D00949084BDA697B681343D8
:10138000CB6106E00549054BDA697B68DB43134016
:10139000CB6100BF0C37BD4680BC704700100240D7
:1013A00080B487B000AF0346FB710023FB600023CD
:1013B0007B610023FB74FB795B09DBB2FB60FB689C
:1013C000012B03D1124B1B687B6109E0FB68022BE8
:1013D00003D10F4B1B6A7B6102E00D4B5B6A7B61A3
:1013E000FB7903F01F03FB607A69FB6822FA03F3C1
:1013F00003F00103002B02D00123FB7401E0002362
:10140000FB74FB7C18461C37BD4680BC704700BF90
:101410000010024080B58CB000AF786039600023C6
:10142000FB620023BB6200237B6200233B6200233C
:10143000FB617B68FB617B681B8A9BB2FB62FA6A7B
:101440004CF6FF731340FB623B68DB881A46FB6A6D
:101450001343FB62FB6A9AB27B681A827B689B89A2
:101460009BB2FB62FA6A4EF6F3131340FB623B68D1
:101470009A883B681B8913439AB23B685B89134384
:101480009BB21A46FB6A1343FB62FB6A9AB27B6803
:101490009A817B689B8A9BB2FB62FA6A4FF6FF4394
:1014A0001340FB623B689B891A46FB6A1343FB624D
:1014B000FB6A9AB27B689A8207F108031846FFF725
:1014C00083FEFB692E4A934202D17B69BB6201E035
:1014D0003B69BB627B689B899BB21BB2002B0CDA19
:1014E000BA6A13469B0013449A001A443B681B686F
:1014F0005B00B2FBF3F37B620BE0BA6A13469B001E
:1015000013449A001A443B681B689B00B2FBF3F338
:101510007B627B6A1B4AA2FB03235B091B01FB6204
:10152000FB6A1B09642202FB03F37A6AD31A3B624B
:101530007B689B899BB21BB2002B0CDA3B6ADB00F9
:101540003233104AA2FB03235B0903F00703FA6A54
:101550001343FB620BE03B6A1B013233094AA2FBD7
:1015600003235B0903F00F03FA6A1343FB62FB6A70
:101570009AB27B681A8100BF3037BD4680BD00BF7C
:10158000003801401F85EB5180B483B000AF786014
:101590000B46FB70FB78002B08D07B689B899BB2C5
:1015A00043F400539AB27B689A8107E07B689B8979
:1015B0009BB223F400539AB27B689A8100BF0C3728
:1015C000BD4680BC704780B487B000AF78600B46E2
:1015D0007B8013467B7000233B610023FB6000236C
:1015E000BB6000237B617B687B617B88DBB25B092E
:1015F000DBB23B617B8803F01F03FB600122FB68C9
:1016000002FA03F3BB603B69012B03D17B690C3306
:101610007B6109E03B69022B03D17B6910337B615D
:1016200002E07B6914337B617B78002B06D07B69F9
:101630007A691168BA680A431A6006E07B697A69B8
:101640001168BA68D2430A401A6000BF1C37BD4611
:1016500080BC704780B483B000AF78600B467B805D
:101660007B88C3F308039AB27B689A8000BF0C376B
:10167000BD4680BC704780B483B000AF78607B68A3
:101680009B889BB2C3F308039BB218460C37BD4638
:1016900080BC704780B485B000AF78600B467B801B
:1016A0000023FB737B681B889AB27B8813409BB234
:1016B000002B02D00123FB7301E00023FB73FB7BB3
:1016C00018461437BD4680BC704780B487B000AF61
:1016D00078600B467B800023FB6000237B61002346
:1016E000BB600023FB747B88DBB25B09DBB2BB60B1
:1016F0007B8803F01F037B6101227B6902FA03F3FD
:101700007B61BB68012B07D17B689B899BB21A4622
:101710007B6913407B6111E0BB68022B07D17B68BA
:101720001B8A9BB21A467B6913407B6106E07B688B
:101730009B8A9BB21A467B6913407B617B881B0A9C
:101740009BB2FB600122FB6802FA03F3FB607B683B
:101750001B889BB21A46FB681340FB607B69002B19
:1017600005D0FB68002B02D00123FB7401E00023AD
:10177000FB74FB7C18461C37BD4680BC704780B4A8
:1017800085B000AF78600B467B800023FB8100238F
:10179000BB817B881B0AFB81FB89012202FA03F3D0
:1017A000BB81BB89DB439AB27B681A8000BF1437C8
:1017B000BD4680BC704780B500AF00F0B1FB00F0C3
:1017C000EDFB00F009FC00F065FC0021002000F0BA
:1017D00019FF0021002001F0A9FC00F08DFD00217F
:1017E000002001F017FB00F021FE00F02BFF01F0BC
:1017F000EDFA0346002B01D001F03CFB4FF47A7068
:1018000000F07AFBEFE70000DFF834D0002103E0BE
:101810000C4B5B58435004310B480C4B42189A4216
:10182000F6D30B4A02E0002342F8043B094B9A42EC
:10183000F9D300F07DF801F00FFFFFF7BCFF704710
:1018400000500020F86A00080000002098060020E0
:101850009806002030100020FEE780B400AF00BFE3
:10186000BD4680BC704780B400AFFEE780B400AFD7
:10187000FEE780B400AFFEE780B400AFFEE780B4BF
:1018800000AF00BFBD4680BC704780B400AF00BF52
:10189000BD4680BC704780B400AF00BFBD4680BC71
:1018A000704780B500AF00F019FB00BF80BD00009D
:1018B00080B582B000AF40F225510C48FFF705FF1C
:1018C0000346002B0DD00948FFF7D5FE0346FB71F8
:1018D000FB79184600F09AFC40F225510348FFF7C7
:1018E0004EFF00BF0837BD4680BD00BF0038014035
:1018F00080B582B000AF40F225510C48FFF7E5FEFD
:101900000346002B0DD00948FFF7B5FE0346FB71D7
:10191000FB79184600F068FC40F225510348FFF7B8
:101920002EFF00BF0837BD4680BD00BF0044004009
:1019300080B500AF154A154B1B6843F001031360D7
:101940001249124B5A68124B13404B600F4A0F4B0F
:101950001B6823F0847323F4803313600B4A0B4B12
:101960001B6823F480231360084A084B5B6823F448
:10197000FE035360054B4FF41F029A6000F078F8A5
:10198000044B4FF000629A6000BF80BD001002401F
:101990000000FFF800ED00E080B485B000AF002348
:1019A000FB600023BB6000237B602C4B5B6803F073
:1019B0000C03FB60FB68042B07D0082B09D0002B1D
:1019C00033D1274B274A1A6033E0254B254A1A604A
:1019D0002FE0224B5B6803F47013BB601F4B5B6806
:1019E00003F480337B60BB689B0C0233BB607B6875
:1019F000002B06D1BB681C4A02FB03F3184A136094
:101A000017E0164B5B6803F40033002B06D0BB686D
:101A1000154A02FB03F3124A13600AE0BB68114A3D
:101A200002FB03F30E4A136003E00D4B0D4A1A60EC
:101A300000BF0A4B5B681B0903F00F030B4AD35C22
:101A4000DBB2FB60064B1A68FB6822FA03F3044A18
:101A5000136000BF1437BD4680BC704700100240C1
:101A60001400002000127A0000093D001800002038
:101A700080B500AF00F002F800BF80BD80B483B035
:101A800000AF00237B6000233B603A4A394B1B6860
:101A900043F480331360374B1B6803F400333B601F
:101AA0007B6801337B603B68002B03D17B68B3F517
:101AB000A06FF0D12F4B1B6803F40033002B02D032
:101AC00001233B6001E000233B603B68012B4BD1CD
:101AD000294A294B1B6843F010031360264A264B02
:101AE0001B6823F003031360234A234B1B6843F056
:101AF000020313601F4A1F4B5B6853601D4A1D4B56
:101B00005B6853601B4A1B4B5B6843F48063536004
:101B1000184A184B5B6823F47C135360154A154B25
:101B20005B6843F4E8135360124A124B1B6843F09E
:101B30008073136000BF0F4B1B6803F00073002B12
:101B4000F9D00C4A0B4B5B6823F003035360094A3E
:101B5000084B5B6843F00203536000BF054B5B68B2
:101B600003F00C03082BF9D100BF0C37BD4680BC35
:101B7000704700BF001002400020024080B584B0D2
:101B800000AFF860B9607A60FB68002B05D0BB68D5
:101B9000002B02D07B68002B01D100230BE0102228
:101BA0000021F86801F087FDFB687A685A60FB68DD
:101BB000BA681A60012318461037BD4680BD80B54B
:101BC00088B000AFF860B9607A60BB68FB61FB6801
:101BD000002B0DD0FB681B68002B09D0FB685B68ED
:101BE000002B05D0BB68002B02D07B68002B01D1F5
:101BF000002347E0F86800F0B0F8B8617A68BB6984
:101C0000934228BF13467B607B68002B01D10023E1
:101C100038E0FB685A68FB68DB68D21A7B6893423D
:101C200028BF13467B61FB681A68FB68DB681344B6
:101C30007A69F969184601F033FDFB68DA687B6957
:101C40001A44FB68DA607A687B69D31A7B607B6828
:101C5000002B0BD0FB681868FA697B6913447A681B
:101C6000194601F01DFDFB687A68DA60FB68DA68E6
:101C7000FB685B689A4202D3FB680022DA607A69EB
:101C80007B68134418462037BD4680BD80B588B0B8
:101C900000AFF860B9607A60BB68FB61FB68002B3D
:101CA0000DD0FB681B68002B09D0FB685B68002B1C
:101CB00005D0BB68002B02D07B68002B01D100232C
:101CC00047E0F86800F07FF8B8617A68BB69934232
:101CD00028BF13467B607B68002B01D1002338E0CE
:101CE000FB685A68FB689B68D21A7B68934228BFDE
:101CF00013467B61FB681A68FB689B6813447A692A
:101D00001946F86901F0CCFCFB689A687B691A44B3
:101D1000FB689A607A687B69D31A7B607B68002BCA
:101D20000BD0FA697B69D018FB681B687A68194682
:101D300001F0B6FCFB687A689A60FB689A68FB68F9
:101D40005B689A4202D3FB6800229A607A697B68DA
:101D5000134418462037BD4680BD80B487B000AF1D
:101D600078607B68002B07D07B681B68002B03D052
:101D70007B685B68002B01D100231FE07B68DB6878
:101D80003B617B689B68FB603A69FB689A4203D1C0
:101D90007B685B687B610FE0FA683B699A4204D913
:101DA000FA683B69D31A7B6106E07B685A68F96878
:101DB0003B69CB1A13447B617B69013B18461C3796
:101DC000BD4680BC704780B487B000AF78607B6848
:101DD000002B07D07B681B68002B03D07B685B68F7
:101DE000002B01D100231DE07B68DB683B617B6831
:101DF0009B68FB603A69FB689A4202D100237B61D1
:101E00000FE03A69FB689A4204D93A69FB68D31A31
:101E10007B6106E07B685A683969FB68CB1A13441A
:101E20007B617B6918461C37BD4680BC704700004B
:101E300080B483B000AF03463960FB7197F9073077
:101E4000002B0BDA0D49FB7903F00F03043B3A68D2
:101E5000D2B21201D2B20B441A7609E0084997F9BE
:101E600007303A68D2B21201D2B20B4483F8002391
:101E700000BF0C37BD4680BC704700BF00ED00E0DE
:101E800000E100E080B582B000AF78607B68B3F11C
:101E9000807F01D3012311E00A4A7B6823F07F434E
:101EA000013B53600F214FF0FF30FFF7C1FF054B9F
:101EB00000229A60034B07221A6000231846083755
:101EC000BD4680BD10E000E080B400AF024B1B684F
:101ED0001846BD4680BC7047B406002080B400AFF1
:101EE000044B1B680133034A136000BFBD4680BC2E
:101EF000704700BFB406002080B584B000AF7860A2
:101F0000FFF7E2FFF86000BFFFF7DEFF0246FB6865
:101F1000D21A7B689A42F7D300BF1037BD4680BD06
:101F200080B582B000AF4FF48030FFF74BF8FFF779
:101F300077F80346FB71FB79012B28D11020FEF7BF
:101F40005FFF0220FEF740FF0020FFF7E9F80020C6
:101F5000FFF71EF94FF48060FFF7FEF84FF4E01131
:101F60004FF48030FFF784F80120FFF79FF800BF9F
:101F70003920FFF715FA0346002BF9D00220FFF7AE
:101F8000A5F800BFFFF7BEF80346082BFAD1FFF70C
:101F900003FD00BF0837BD4680BD000080B500AF1F
:101FA0000420FEF7F5FE0A4B1B680A4AA2FB032336
:101FB0009B091846FFF766FF0346002B00D0FEE79B
:101FC0000F214FF0FF30FFF733FF00BF80BD00BF90
:101FD00014000020D34D621080B582B000AF012103
:101FE0000820FFF7A1F90123BB800323BB71102355
:101FF000FB713B1D19460548FEF71AFF01210348F6
:10200000FEF7D2FF00BF0837BD4680BD000C01407F
:1020100080B483B000AF0346FB71084997F90730DD
:102020005B09FA7902F01F02012000FA02F241F87E
:10203000232000BF0C37BD4680BC704700E100E0A4
:1020400080B483B000AF03463960FB7197F9073065
:10205000002B0BDA0D49FB7903F00F03043B3A68C0
:10206000D2B21201D2B20B441A7609E0084997F9AC
:1020700007303A68D2B21201D2B20B4483F800237F
:1020800000BF0C37BD4680BC704700BF00ED00E0CC
:1020900000E100E080B58AB000AF01210420FFF725
:1020A00043F901214FF48040FFF73EF901214FF43D
:1020B0000030FFF757F90423BB84032387F8263049
:1020C000182387F8273007F1240319463F48FEF705
:1020D000AFFE0823BB84042387F8273007F12403CD
:1020E00019463A48FEF7A4FE4FF40073BB8403235D
:1020F00087F82630182387F8273007F1240319467C
:102100003248FEF795FE4FF48063BB84042387F8C2
:10211000273007F1240319462C48FEF789FE4FF4B7
:1021200080722B492B48FFF729FD4FF480722A4912
:102130002A48FFF723FD4FF4E1337B610023BB8383
:102140000C23FB8300237B8300233B8400233B83FE
:1021500007F1140319462248FFF75CF9012240F207
:1021600025511F48FFF72FFA01212620FFF768FFAE
:102170002620FFF74DFF01211948FFF705FA4FF41C
:10218000E1337B600023BB810C23FB8100237B8137
:1021900000233B8200233B813B1D19461148FFF77A
:1021A00039F9012240F225510E48FFF70CFA0221BD
:1021B0002520FFF745FF2520FFF72AFF01210948C9
:1021C000FFF7E2F900BF2837BD4680BD0008014097
:1021D000B8060020B8070020C8070020C808002063
:1021E000004400400038014080B582B000AF034693
:1021F000FB71FB1D012219460348FFF7E0FC00BFFD
:102200000837BD4680BD00BFB807002080B582B04A
:1022100000AF0346FB71FB1D012219460348FFF77F
:10222000CEFC00BF0837BD4680BD00BFC8080020F7
:1022300080B582B000AF78600B467B807B881A4601
:1022400079680448FFF722FD03469BB21846083719
:10225000BD4680BDC808002080B582B000AF0346EF
:10226000FB7100BF80210848FFF714FA0346002BDA
:10227000F8D0FB799BB219460348FFF7EBF900BF92
:102280000837BD4680BD00BF0044004080B582B025
:1022900000AF0346FB7100BF80210848FFF7FAF941
:1022A0000346002BF8D0FB799BB219460348FFF791
:1022B000D1F900BF0837BD4680BD00BF00380140DE
:1022C00080B584B000AF78600B467B800023FB8133
:1022D00009E0FB897A6813441B781846FFF7D6FF9C
:1022E000FB890133FB81FA897B889A42F1D300BFD5
:1022F0001037BD4680BD000080B500AF40F20352EC
:102300000021044801F0D7F9034B00221A8000BFD6
:1023100080BD00BFD80800205C0E002080B582B0D0
:1023200000AF78601D4B93F80235092B01D90023CB
:102330002FE01A4B93F80035DB01184A13447F2233
:102340007968184601F014FA144B93F80035134AD3
:10235000DB0113447F3300221A70104B93F80035D1
:102360005A1C0F4B83FB02139910D317C91A0B4643
:102370009B000B445B00D11ACAB2084B83F80025BE
:10238000064B93F802350133DAB2044B83F8022589
:10239000012318460837BD4680BD00BFD80800207D
:1023A0006766666680B582B000AF78600B467B805A
:1023B0001C4B93F80235002B01D100232DE0194B63
:1023C00093F80135DB01174A99187B88013B1A46BF
:1023D000786801F0CDF97B88013B7A6813440022CC
:1023E0001A70104B93F801355A1C0F4B83FB0213E4
:1023F0009910D317C91A0B469B000B445B00D11AE6
:10240000CAB2084B83F80125064B93F80235013B0D
:10241000DAB2044B83F80225012318460837BD467B
:1024200080BD00BFD80800206766666680B582B0B0
:1024300000AF40E07B793E2B0DD1264B1B88002B53
:1024400009D1254B3E221A70234B00225A70224894
:10245000FFF764FF2FE07B790D2B02D07B790A2BED
:1024600010D11C4B1B88002B25D01A4B1B881A46F9
:10247000194B002199541848FFF750FF154B0022C3
:102480001A8018E0134B1B887E2B0AD8114B1B882F
:102490005A1C91B20F4A11801A4679790E4B995401
:1024A00009E00D4B002283F87F200B48FFF736FF31
:1024B000084B00221A807B1D01211846FFF7B8FE49
:1024C0000346FB80FB88002BB4D100BF0837BD4614
:1024D00080BD00BF5C0E0020DC0D002080B582B006
:1024E00000AF78600B467B807B8819467868FFF7E1
:1024F00059FF034618460837BD4680BD80B400AF7B
:10250000034B93F802351846BD4680BC704700BFA8
:10251000D808002080B582B000AF78607868FDF7F9
:1025200017FE03469BB219467868FFF7C9FE00BF45
:102530000837BD4680BD90B585B000AF78600023F8
:10254000FB8109E0FB897A6813441B781846FFF782
:1025500083FEFB890133FB81FC897868FDF7F8FD78
:1025600003469C42EED300BF1437BD4690BD80B5F4
:1025700082B000AF78600B467B807B68002B02D076
:102580007B88002B01D1002314E0FFF7B7FF03463F
:10259000002B01D100230DE07B8819467868FFF7F6
:1025A0009DFF034683F00103DBB2002B01D0002323
:1025B00000E0012318460837BD4680BD80B582B0D3
:1025C00000AF78607868FFF7B6FF0348FFF7B3FF06
:1025D00000BF0837BD4680BD9066000880B582B058
:1025E00000AF78603960FFF76FFC02467B68D21A53
:1025F0003B689A422CBF01230023DBB21846083700
:10260000BD4680BD80B582B000AF786039600C4BAC
:1026100000221A700A4A7B68D360094A3B6813613A
:10262000074B00225A70FFF74FFC0246044B5A60DA
:10263000034B00229A6000BF0837BD4680BD00BF33
:10264000980E002080B5B6B000AFD24B1B78642B3B
:1026500000F2A08301A252F823F000BFF127000886
:1026600015280008B3280008D12800086F290008A1
:102670008D2900084B2A0008692A0008072B00084A
:10268000252B0008C32B0008E12B00087F2C000835
:102690009D2C0008952D0008952D0008952D00080B
:1026A000952D0008952D0008952D0008612D000836
:1026B000952D0008952D0008952D0008952D0008F2
:1026C000952D0008952D0008952D0008952D0008E2
:1026D000952D0008952D0008952D0008952D0008D2
:1026E000952D0008952D0008952D0008952D0008C2
:1026F000952D0008952D0008952D0008952D0008B2
:10270000952D0008952D0008952D0008952D0008A1
:10271000952D0008952D0008952D0008952D000891
:10272000952D0008952D0008952D0008952D000881
:10273000952D0008952D0008952D0008952D000871
:10274000952D0008952D0008952D0008952D000861
:10275000952D0008952D0008952D0008952D000851
:10276000952D0008952D0008952D0008952D000841
:10277000952D0008952D0008952D0008952D000831
:10278000952D0008952D0008952D0008952D000821
:10279000952D0008952D0008952D0008952D000811
:1027A000952D0008952D0008952D0008952D000801
:1027B000952D0008952D0008952D0008952D0008F1
:1027C000952D0008952D0008952D0008952D0008E1
:1027D000952D0008952D0008952D0008952D0008D1
:1027E000952D0008952D0008952D0008952D0008C1
:1027F000684B00225A706848FFF79DFE6748FFF754
:1028000089FEFFF761FB0246624B5A60614B012271
:102810001A70CEE2002387F8D73028E03B461846EE
:10282000FFF7CCFE07F180023B461146184600F048
:10283000AFFC0346002B1AD097F88030002B0BD149
:10284000544B02221A70FFF73FFB0246514B5A606D
:10285000012387F8D73012E097F88030012B06D19A
:102860004C4B14221A70012387F8D73007E03B46FF
:1028700080211846FFF77BFE0346002BCED197F848
:10288000D73083F00103DBB2002B00F08582414B8F
:102890005B6842F210711846FFF7A0FE0346002B5A
:1028A00000F07A823E48FFF746FE3A4B14221A7037
:1028B00072E23C48FFF73FFE3B48FFF72BFEFFF775
:1028C00003FB0246334B5A60324B03221A7070E20C
:1028D000002387F8D63028E03B461846FFF76EFE07
:1028E00007F180023B461146184600F051FC0346B2
:1028F000002B1AD097F88030032B0BD1254B0422E4
:102900001A70FFF7E1FA0246224B5A60012387F85A
:10291000D63012E097F88030012B06D11D4B1422DF
:102920001A70012387F8D63007E03B46802118460D
:10293000FFF71DFE0346002BCED197F8D63083F06B
:102940000103DBB2002B00F02982124B5B6842F2DC
:1029500010711846FFF742FE0346002B00F01E825E
:102960000F48FFF7E8FD0B4B14221A7016E20F48D0
:10297000FFF7E1FD0E48FFF7CDFDFFF7A5FA024690
:10298000044B5A60034B05221A7012E2002387F8A9
:10299000D53038E0980E002094660008A466000840
:1029A000AC660008B8660008D4660008E066000857
:1029B000086700083B461846FFF700FE07F1800253
:1029C0003B461146184600F0E3FB0346002B1AD0A5
:1029D00097F88030042B0BD1C74B06221A70FFF7F3
:1029E00073FA0246C44B5A60012387F8D53012E0CF
:1029F00097F88030012B06D1BF4B14221A700123A7
:102A000087F8D53007E03B4680211846FFF7AFFD39
:102A10000346002BCED197F8D53083F00103DBB20B
:102A2000002B00F0BD81B44B5B6842F21071184678
:102A3000FFF7D4FD0346002B00F0B281AF48FFF74B
:102A40007AFDAD4B14221A70AAE1AD48FFF773FD71
:102A5000AC48FFF75FFDFFF737FA0246A64B5A6016
:102A6000A54B07221A70A4E1002387F8D43028E090
:102A70003B461846FFF7A2FD07F180023B46114690
:102A8000184600F085FB0346002B1AD097F88030DB
:102A9000002B0BD1984B08221A70FFF715FA02464B
:102AA000954B5A60012387F8D43012E097F88030B4
:102AB000012B06D1904B14221A70012387F8D430D1
:102AC00007E03B4680211846FFF751FD0346002BE7
:102AD000CED197F8D43083F00103DBB2002B00F0A5
:102AE0006181854B5B6842F210711846FFF776FDF5
:102AF0000346002B00F056818048FFF71CFD7E4BFB
:102B000014221A704EE18048FFF715FD7F48FFF749
:102B100001FDFFF7D9F90246774B5A60764B09223F
:102B20001A7046E1002387F8D33028E03B46184668
:102B3000FFF744FD07F180023B461146184600F0BE
:102B400027FB0346002B1AD097F88030002B0BD1BF
:102B5000694B0A221A70FFF7B7F90246664B5A60B2
:102B6000012387F8D33012E097F88030012B06D18B
:102B7000614B14221A70012387F8D33007E03B46DB
:102B800080211846FFF7F3FC0346002BCED197F8BF
:102B9000D33083F00103DBB2002B00F00581564BEC
:102BA0005B6842F210711846FFF718FD0346002BD0
:102BB00000F0FA805148FFF7BEFC4F4B14221A7008
:102BC000F2E05348FFF7B7FC5248FFF7A3FCFFF7CA
:102BD0007BF90246484B5A60474B0B221A70E8E0DB
:102BE000002387F8D23028E03B461846FFF7E6FC82
:102BF00007F180023B461146184600F0C9FA034629
:102C0000002B1AD097F88030002B0BD13A4B0C22B6
:102C10001A70FFF759F90246374B5A60012387F8BB
:102C2000D23012E097F88030012B06D1324B1422BB
:102C30001A70012387F8D23007E03B4680211846FE
:102C4000FFF795FC0346002BCED197F8D23083F0E6
:102C50000103DBB2002B00F0A980274B5B6842F236
:102C600010711846FFF7BAFC0346002B00F09E8057
:102C70002248FFF760FC204B14221A7096E0264889
:102C8000FFF759FC2548FFF745FCFFF71DF9024601
:102C9000194B5A60184B0D221A708AE0002387F8EE
:102CA000D1303DE03B461846FFF788FC07F1800233
:102CB0003B461146184600F06BFA0346002B2FD016
:102CC00097F88030002B0BD10B4B64221A70FFF762
:102CD000FBF80246084B5A60012387F8D13027E001
:102CE00097F88030012B1BD1034B14221A7001235B
:102CF00087F8D1301CE000BF980E0020AC660008B9
:102D000014670008306700083C6700085467000833
:102D1000646700087867000894670008AC670008DB
:102D20003B4680211846FFF722FC0346002BB9D111
:102D300097F8D13083F00103DBB2002B38D01F4B62
:102D40005B6842F210711846FFF748FC0346002BFF
:102D50002ED01B48FFF7EFFB184B14221A7027E008
:102D6000164B5B780133DAB2144B5A70134B5B7815
:102D7000032B03D91348FFF7DEFB1AE01248FFF7D5
:102D8000DAFB0E4B00221A70FFF79EF802460B4B3F
:102D90005A600EE000BF0CE000BF0AE000BF08E090
:102DA00000BF06E000BF04E000BF02E000BF00E09B
:102DB00000BF00BFD837BD4680BD00BF980E0020C1
:102DC000AC660008B8670008D067000880B400AFA0
:102DD000054B1B78642B01D1012300E0002318462A
:102DE000BD4680BC704700BF980E002080B582B001
:102DF00000AF78603960FFF767F802467B68D21A47
:102E00003B689A422CBF01230023DBB218460837E7
:102E1000BD4680BD80B582B000AF78603960134A8E
:102E20007B68D360114A3B681361104B00221A7013
:102E3000FFF74AF802460D4B5A600C4B00229A608D
:102E40000A4B00225A70094B00221A75074B0022C8
:102E500083F82820054B002283F8C8200448FFF798
:102E600059FB00BF0837BD4680BD00BFAC0E002037
:102E7000DC67000880B5BEB000AFA64B1B78002B06
:102E800022D118E007F1A40207F1240311461846E5
:102E900000F07EF90346002B0DD097F8A430082BE4
:102EA00009D1D7F8A830DAB29A4B83F8C820994BE9
:102EB00001221A7008E007F1240380211846FFF769
:102EC00056FB0346002BDDD1924B1B78032B00F001
:102ED000AA80032B07DC012B0FD0012B28DC002B51
:102EE00000F00B8112E1142B00F00381642B00F041
:102EF0000681042B00F0B58008E1864B93F8C830BA
:102F0000002B00F0FE80834B93F8C830381D824AB6
:102F1000202100F0D9FB3B1D1846FFF7FBFAFEF716
:102F2000D3FF02467B4B5A607A4B02221A70E8E0CC
:102F3000002387F8F730002387F8F6305CE007F1CC
:102F400024031846FFF73AFB07F1A40207F1240314
:102F50001146184600F01CF90346002B27D097F8BD
:102F6000A430092B0FD107F1A40310331322194603
:102F70006A4800F0FDFB674B002283F827200123FD
:102F800087F8F73038E097F8A430002B07D197F88E
:102F9000F730002B03D05F4B03221A7035E097F80F
:102FA000A430012B28D15B4B14221A702DE097F826
:102FB000F730002B20D097F8F63083F00103DBB216
:102FC000002B19D097F82430002B15D097F8243017
:102FD0000D2B11D097F824300A2B0DD007F12403C4
:102FE0009F2219464E4800F0C3FB4A4B002283F84B
:102FF000C720012387F8F63007F124038021184603
:10300000FFF7B5FA0346002B99D1424B5B6842F2B9
:1030100010711846FFF7EAFE0346002B73D03D4BB4
:1030200014221A706FE03B4B93F8C830002B14D079
:10303000384B93F8C830381D3A4A202100F044FB41
:103040003B1D1846FFF766FAFEF73EFF0246314B7E
:103050005A60304B04221A7058E02E4B64221A70CA
:1030600054E0002387F8F53025E007F124031846E3
:10307000FFF7A4FA07F1A40207F12403114618464A
:1030800000F086F80346002B15D097F8A430002BEB
:1030900006D1204B64221A70012387F8F53013E023
:1030A00097F8A430012B06D11A4B14221A70012371
:1030B00087F8F53008E007F1240380211846FFF770
:1030C00056FA0346002BD0D197F8F53083F0010370
:1030D000DBB2002B19D00F4B5B6842F2107118461F
:1030E000FFF784FE0346002B0FD00A4B64221A70B0
:1030F0000BE00D48FFF71FFA08E000BF06E000BF35
:1031000004E000BF02E000BF00E000BF00BFF837EE
:10311000BD4680BDAC0E0020F0670008C00E002048
:10312000D40E0020006800081068000880B582B046
:1031300000AF786039600F4B00221A700D4B0022EF
:103140005A70FEF7C1FE02460A4B5A60094B002234
:103150009A60084A7B68D360064A3B681361054B56
:1031600000221A75034B002283F8282000BF08377D
:10317000BD4680BD780F002080B582B000AF78607A
:10318000786800F065FA034618460837BD4680BDEA
:1031900080B594B000AF786039607B68002B02D0B6
:1031A0003B68002B01D1002347E250220021386800
:1031B00000F081FA3B680B221A707868FCF7C8FFB0
:1031C000F86402E0FB6C013BFB64FB6C002B0DD050
:1031D000FB6C013B7A6813441B780D2BF2D0FB6C1F
:1031E000013B7A6813441B780A2BEBD0FB6C002B55
:1031F00001D1002321E2FB6C012B08D97B681B78ED
:10320000412B04D17B6801331B78542B0AD0FB6C13
:10321000022B09D903229B49786800F097FA0346EC
:10322000002B01D1002308E2FB6C022B0DD17B683F
:103230001B784F2B09D17B6801331B784B2B04D1B2
:103240003B6800221A700123F7E1FB6C052B0CD1BF
:1032500005228D49786800F079FA0346002B04D1E5
:103260003B6801221A700123E7E1FB6C0A2B21D98C
:103270000B228649786800F069FA0346002B19D1C1
:103280007B680B33BB6402E0BB6C0133BB64BB6C7B
:103290001B78202BF8D0BB6C1B78092BF4D0B86CB2
:1032A000FFF76AFF02463B685A603B6802221A70C9
:1032B0000123C2E1FB6C052B19D9062274497868F9
:1032C00000F044FA0346002B11D1FB6C0B2B0ED9F6
:1032D0007B68073305226F49184600F037FA03462A
:1032E000002B04D13B6803221A700123A5E1FB6C7B
:1032F000052B3DD906226849786800F027FA034675
:10330000002B35D17B6806337B643B684FF0FF327E
:103310005A603B684FF0FF329A6002E07B6C0133E9
:103320007B647B6C1B783A2BF8D07B6C1B78202B52
:10333000F4D07B6C1B78092BF0D0786CFFF71CFF66
:1033400002463B685A602C21786C00F0F1F9F86174
:10335000FB69002B07D0FB6901331846FFF70CFF10
:1033600002463B689A603B6804221A70012364E1BC
:10337000FB6C062B3DD907224849786800F0E6F936
:103380000346002B35D17B6807333B643B684FF025
:10339000FF325A603B684FF0FF329A6002E03B6CAC
:1033A00001333B643B6C1B783A2BF8D03B6C1B78A9
:1033B000202BF4D03B6C1B78092BF0D0386CFFF736
:1033C000DBFE02463B685A602C21386C00F0B0F9F5
:1033D000B861BB69002B07D0BB6901331846FFF702
:1033E000CBFE02463B689A603B6805221A700123B7
:1033F00023E1FB6C042B35D905222949786800F0BC
:10340000A5F90346002B2DD17B680533FB6302E051
:10341000FB6B0133FB63FB6B1B783A2BF8D0FB6B28
:103420001B78202BF4D0FB6B1B78092BF0D0F86BAA
:10343000FFF7A2FE02463B685A602C21F86B00F0B1
:1034400077F978617B69002B07D07B6901331846D7
:10345000FFF792FE02463B689A603B6806221A70AC
:103460000123EAE0FB6C092B1ED90B220D49786879
:1034700000F06CF90346002B16D13B6807221A7046
:103480000123DAE0186800081C68000824680008B6
:10349000306800083868000840680008486800087C
:1034A0005068000858680008FB6C052B47D90622B5
:1034B0006449786800F04AF90346002B3FD1222185
:1034C000786800F035F938613B69002B32D03B69F0
:1034D00001332221184600F02BF9F860FB68002B1D
:1034E00028D0FB683A6901329B1ABB63BB6B3F2B48
:1034F00001D93F23BB633B6803F110003B690133F3
:10350000BA6B194600F0CCF83A68BB6B1344103321
:1035100000221A702C21F86800F00AF9B860BB6824
:10352000002B07D0BB6801331846FFF725FE024683
:103530003B685A603B6808221A7001237DE0FB6CEF
:10354000052B50D906224049786800F0FFF8034661
:10355000002B48D17B6806337B6300233B63002349
:10356000FB620023BB6219E07B6B1B78222B12D11C
:103570003B6B01333B633B6B032B03D17B6B013311
:10358000FB6208E03B6B042B05D1FB6A002B02D0E9
:103590007B6BBB6206E07B6B01337B637B6B1B78D1
:1035A000002BE1D1FB6A002B18D0BB6A002B15D091
:1035B000BA6AFB6AD31A7B627B6A3F2B01D93F232D
:1035C0007B623B6810337A6AF96A184600F068F843
:1035D0003A687B6A1344103300221A703B68092250
:1035E0001A70012329E0FB6C052B25D90622174907
:1035F000786800F0ABF80346002B1DD17B680633DA
:103600003B6202E03B6A01333B623B6A1B783A2B28
:10361000F8D03B6A1B78202BF4D03B6A1B78092B2F
:10362000F0D0386AFFF7A8FD02463B685A603B6855
:103630000A221A70012300E0002318465037BD46C5
:1036400080BD00BF646800086C68000874680008EA
:103650000A22002100F022B970B500250C4E0D4C55
:10366000A41BA410A54209D103F004F800250A4EBA
:103670000A4CA41BA410A54205D170BD56F82530F4
:1036800098470135EEE756F8253098470135F2E7BF
:10369000F06A0008F06A0008F06A0008F46A00089E
:1036A00010B5431E0A44914200D110BD11F8014BE0
:1036B00003F8014FF7E703460244934200D17047F5
:1036C00003F8011BF9E700000CB430B5174B0C1ED2
:1036D0009DB01D6808DA8B234FF0FF302B601DB0C2
:1036E000BDE8304002B070474FF40273ADF81430BB
:1036F0000CBF234604F1FF33049307934FF6FF7387
:1037000002900690ADF81630209A21AB02A9284607
:10371000019300F0D9F8431CBCBF8B232B60002C15
:10372000DDD00022029B1A70D9E700BF28000020DC
:10373000C9B2034610F8012B1AB19142F9D11846CB
:10374000704700290CBF18460020704710B56AB1B9
:103750000139841810F8013B11F8012F934203D16D
:10376000A04201D0002BF5D1981A10BD104610BD13
:1037700070B5044602B970BD234611F8015B561EB0
:1037800003F8015B1DB91444A34203D170BD1C466C
:103790003246EFE703F8015BF6E72DE9F84F804684
:1037A000894692461F468B465D460A9815F8014B9E
:1037B00001F0BAFE2044467816F008060BD12D2CF5
:1037C0000BD101262C780BF1020567B1102F14D113
:1037D000302C0AD011E0AB46E6E72B2C04BF2C7846
:1037E0000BF10205F1E7302C27D12B7803F0DF0332
:1037F000582B4BD110276C780235002E0CBF6FF080
:1038000000414FF000410022B1FBF7FE104607FBDC
:103810001E1CA4F13003092B11D81C46A7421DDD44
:10382000531C07D0864516D301D1A44513DB0122D2
:1038300000FB074015F8014BEBE70A27DDE7A4F191
:103840004103192B01D8373CE8E7A4F16103192B98
:1038500004D8573CE2E74FF0FF32EBE7531C08D1A6
:1038600022230846C8F80030BAF1000F07D1BDE89E
:10387000F88F06B14042BAF1000F0CD022B1013DE1
:10388000CAF80050BDE8F88F4D46F9E73024002F04
:10389000B3D10827B1E7BDE8F88F0000084B37B572
:1038A0001C68084D236A002B08BF2B460093134663
:1038B0000A4601462046FFF770FF03B030BD00BF47
:1038C000280000201C0100202DE9F04FBFB08946E0
:1038D00015461F46824601F02BFE036818461193D9
:1038E000FCF736FCB9F80C300A901B0618D5D9F84D
:1038F0001030ABB94021504601F030FEC9F800004D
:10390000C9F8100048B90C23CAF800304FF0FF3353
:103910000B930B983FB0BDE8F08F4023C9F81430EB
:1039200000232EAC219423932293099507930D93A2
:103930000E93159314930B9312931393099D2B4697
:1039400013F8012B12B1252A40F08380099BEE1A4F
:103950000DD084E84800239B33442393229B0133FA
:10396000072B229377DC08340B9B33440B932B7883
:10397000002B00F025870023691C1A464FF0FF3BFF
:103980001D460A208DF867300C934E1C0978099665
:10399000069106992039582900F21484DFE811F0C5
:1039A000A50012041204AA00120412041204120444
:1039B00012041204AD0065001204B500B800120430
:1039C000D500D800D800D800D800D800D800D8003A
:1039D000D800D800120412041204120412041204B3
:1039E00012041204120412040C0122011204220116
:1039F0001204120412041204EB00120412043C0319
:103A000012041204120412041204A4031204120475
:103A10008500120412041204120412041204120487
:103A2000120412041204FE006B0022012201220182
:103A3000EE006B0012041204F10012041E033E0398
:103A40007203F800120483031204A6031204120482
:103A5000BE031D4673E721AA4946504602F098FA74
:103A6000002840F08E862EAC7EE701232B22099998
:103A70008BE70F46FBE70BB18DF86720AE0640F1F0
:103A8000A180073727F0070707F108030893D7E954
:103A90000067002E77F1000305DA2D23764267EBED
:103AA00047078DF867300123C7E20BB18DF8672017
:103AB000A04B1593AB0640F13683073727F0070775
:103AC00007F108030893D7E90067E8070BD556EA22
:103AD000070308D030238DF868309DF8183045F082
:103AE00002058DF869300223A4E2002ABFD1012328
:103AF0002022BCE745F00105B9E73E68391D002EDC
:103B00000C96B6DA0F4676420C9645F00405AEE701
:103B100009994E1C09782A29069110D04FF0000B04
:103B200009960699303909293FF633AF00FB0B1B84
:103B300009990E4616F8011B06910996F1E73968B6
:103B4000099641EAE17B043791E745F080058EE76D
:103B500000210C9106990C9E303900FB06110C9146
:103B600009990E4616F8011B0691069909963039F7
:103B70000929EFD90DE745F0080578E745F040053C
:103B800075E7099909786C2905D1099901310991DD
:103B900045F020056BE745F0100568E700263B1D62
:103BA00008933B688DF867608DF890304FF0010BFB
:103BB00037460DF190081CE10BB18DF8672045F0F8
:103BC00010055BE715F0100F07F1040303D03E6802
:103BD0000893F7175DE73E6815F0400F089318BF8C
:103BE00036B2F6E70BB18DF86720073727F00707E5
:103BF00007F1080308933B684FF0FF320D937B6891
:103C00000D9F0E930E9B384623F0004631464A4BDB
:103C1000FCF7F8FE002840F0DC854FF0FF32464B01
:103C200038463146FCF7D0FE002840F0D285129A83
:103C3000139B0D980E99FCF7BDFE10B12D238DF846
:103C400067303E4B3E4A06994FF0030B4729CCBFE5
:103C500090469846002625F080053746C9E0BBF11E
:103C6000FF3F26D0069B23F02003472B04D1BBF156
:103C7000000F08BF4FF0010B45F4807317930E9BA4
:103C80001F1E0D9BA8BF10970F93BDBF3B4603F1AE
:103C9000004310930023B8BF2D231693069B23F0F7
:103CA0002007462F08D0452F42D10BF101060223F1
:103CB00004E04FF0060BDFE75E4603231FAA0492E1
:103CC0001CAA03921BAA02928DE848000F9A109B2F
:103CD000504600F055FE472F804602D1E80740F1DC
:103CE000858508EB0603462F079311D198F800301D
:103CF000302B09D1129A139B0F981099FCF750FEA4
:103D000010B9C6F101061B96079A1B9B1A4407922D
:103D1000129A139B0F981099FCF742FE90B930222B
:103D20001F9B079999420FD9591C1F911A70F7E7E9
:103D30005E46BCE78B680008FFFFEF7F7B680008EA
:103D40007F680008079B1F931F9B472FA3EB080367
:103D5000079340F000811B9BD91C02DB9B4580F23E
:103D60002681069B023B06931B9A9DF81810531E52
:103D7000002BA8BF2B221B93BCBFC2F101032D2235
:103D8000092B8DF874108DF8752040F300810A26F8
:103D90000DF1830293FBF6F006FB1033092803F1C3
:103DA000300302F8013C02F1FF31034600F3E880E2
:103DB000303301F8013C023A0DF176030DF1830036
:103DC00082421946C0F0DE80079A1DABCB1A012A49
:103DD000149303EB020B02DC15F0010702D000275D
:103DE0000A9B9B44169B13B12D238DF86730002648
:103DF000179D5E453346B8BF5B460F939DF867300D
:103E000013B10F9B01330F9315F0020316931EBFDE
:103E10000F9B02330F9315F08403179318D10C9B5B
:103E20000F9A9B1A002B109312DD109B102BAB4B9B
:103E3000236000F3D981109B109A6360239B134485
:103E40002393229B0133072B229300F3E68108344E
:103E50009DF8673073B10DF1670323600123636040
:103E6000239B01332393229B0133072B229300F3DF
:103E7000DE810834169B6BB11AAB236002236360AA
:103E8000239B02332393229B0133072B229300F3BE
:103E9000D8810834179B802B18D10C9B0F9A9B1A42
:103EA000002B109312DD109B102B8D4B236000F321
:103EB000D281109B109A6360239B13442393229B0F
:103EC0000133072B229300F3DF810834A6EB0B06A6
:103ED000002E0FDD824B102E236000F3DF81229B2A
:103EE000239801336660072B06442396229300F340
:103EF000EC810834EB0500F1F281239B84E8000992
:103F00005B442393229B0133072B229340F31984B4
:103F100021AA4946504602F03BF8002840F031847F
:103F20002EAC6B0700F110840B9B0C9A0F998A4200
:103F3000ACBF9B185B180B93239B3BB121AA49464E
:103F4000504602F025F8002840F01B840023089F0B
:103F500022932EACF2E4069B652B7FF705AF069B00
:103F6000662B24D11B9B002B19DDBBF1000F01D167
:103F7000EA0702D50A9A13445B441B9F9B4631E72C
:103F80000A4607E712F8011B03F8011B18E7302265
:103F900013448DF876208DF877301EA914E7BBF115
:103FA000000F01D1EB0715D50A9B0133E4E71B9AFB
:103FB000079B9A4206DBEF070ED50A9B1344672244
:103FC0000692DAE7079B0A99002A0B44F7DCC2F154
:103FD0000102F3E70123D0E71346F0E70BB18DF8B8
:103FE000672015F0200F07F1040308D00B993A68F9
:103FF000CE1708463146C2E900011F469EE4EE0690
:1040000003D53A680B991160F7E76806F9D53A6865
:10401000BDF82C101180F0E745F0100515F02003D5
:1040200022D0073727F0070707F108030893D7E9DD
:104030000067002300228DF86720BBF1FF3F00F0EE
:10404000DB8325F080020F9256EA070240F0D98305
:10405000BBF1000F00F0AA80012B76D0022B00F0FC
:10406000918000260027D2E33A1D15F01001089236
:1040700002D03E680027DDE715F04003F9D03E8806
:104080000027D6E73B1D0893302378228DF868304F
:10409000144B3E681593002745F002058DF8692002
:1040A00002230692C6E700263B1DBBF1FF3F0893A3
:1040B000D7F800808DF867600AD05A4631464046EE
:1040C00001F06AFC002800F08D80A0EB080BC4E52D
:1040D0004046FCF73DF88346BFE500BFAF680008E7
:1040E000BF6800089C68000845F01005A90609D5BE
:1040F000073727F0070707F108030893D7E9006798
:10410000012397E73B1D15F0100F089301D03E687F
:1041100002E06A06FBD53E880027F1E70BB18DF877
:104120006720A34BC5E43B1D15F0100F089301D089
:104130003E6802E06E06FBD53E880027C5E4434694
:1041400066E3002F08BF0A2E05D230360DF1F808BD
:1041500008F8416D77E30DF1B808304639460A2278
:104160000023FCF78DFC303208F8012D0023304687
:1041700039460A22FCF784FC06460F4656EA070336
:10418000EBD160E3002600270DF1B808159A06F080
:104190000F03D35C3A0908F8013D330943EA07737A
:1041A0001E46174656EA0703F0D14CE33BB9EA072F
:1041B00005D530230DF1F80808F8413D43E30DF132
:1041C000B80840E30BB18DF86720069B002B00F088
:1041D000F78200269DF818308DF867608DF89030D2
:1041E0000897E3E4064638E510236360239B103309
:1041F0002393229B0133072B229304DC0834109B6A
:10420000103B109311E621AA4946504601F0C0FE2A
:10421000002840F0B6822EACF1E721AA494650466C
:1042200001F0B6FE002840F0AC822EAC10E621AAC8
:104230004946504601F0ACFE002840F0A2822EAC68
:1042400018E621AA4946504601F0A2FE002840F097
:1042500098822EAC1EE610236360239B10332393B9
:10426000229B0133072B229304DC0834109B103B64
:10427000109318E621AA4946504601F089FE00280D
:1042800040F07F822EACF1E721AA4946504601F06A
:104290007FFE002840F075822EAC17E61023636085
:1042A000239B10332393229B0133072B229302DCA1
:1042B0000834103E0EE621AA4946504601F068FE39
:1042C000002840F05E822EACF3E721AA4946504612
:1042D00001F05EFE002840F054822EAC0AE6069BF8
:1042E000652B40F3A981129A139B0D980E99FCF748
:1042F00057FB002862D02F4B236001236360239B70
:1043000001332393229B0133072B229325DC0834AE
:104310001B9B079A934202DBEE077FF502AE119BCF
:104320000A9A23600A9B6360239B13442393229B76
:104330000133072B22931ADC0834079B5E1E002EE4
:104340007FF7EFAD4FF010081B4F102E276018DCE1
:104350006660239B1E442396D4E521AA4946504615
:1043600001F016FE002840F00C822EACD0E721AA06
:104370004946504601F00CFE002840F002822EAC67
:10438000DBE7239BC4F8048010332393229B013383
:10439000072B229302DC0834103ED6E721AA4946B7
:1043A000504601F0F5FD002840F0EB812EACF3E71C
:1043B0009C680008AD680008BF6800081B9B002BC4
:1043C0007ADC9B4B236001236360239B013323939F
:1043D000229B0133072B229344DC08341B9B23B917
:1043E000079B13B9E8077FF59CAD119B0A9A2360E0
:1043F0000A9B6360239B13442393229B0133072B67
:10440000229339DC04F108031B9E002E19DA1024D4
:10441000884F7642102E1F6038DC239A5E60164467
:10442000229A23960132072A03F10803229208DD1B
:1044300021AA4946504601F0ABFD002840F0A18179
:104440002EAB079A07995A60239AC3F800800A4452
:104450002392229A0132072A22923FF759AD03F1A3
:1044600008045EE521AA4946504601F091FD002866
:1044700040F087812EACB1E721AA4946504601F0B1
:1044800087FD002840F07D812EABBDE7239A5C605C
:1044900010322392229A0132072A229202DC083338
:1044A000103EB7E721AA4946504601F071FD0028A9
:1044B00040F067812EABF3E7079BBB42A8BF3B46AA
:1044C000002B1E460BDD6360239BC4F80080334441
:1044D0002393229B0133072B22935FDC0834002EA9
:1044E000B4BF3E46BE1B002E0FDDDFF848B1102ED4
:1044F000C4F800B05CDC239B66601E44229B2396BC
:104500000133072B22936ADC08341B9B079A9342E2
:1045100001DBE9070DD5119B0A9A23600A9B6360B2
:10452000239B13442393229B0133072B229360DCAC
:104530000834079B079ADE1B1B9BD31A9E42A8BF19
:104540001E46002E0BDD239B474433442393229BBE
:1045500027600133072B6660229354DC08341B9BD1
:10456000079A002EA2EB0303B4BF1E469E1B002E2B
:104570007FF7D7AC4FF010082E4F102E27607FF733
:10458000E7AE239BC4F8048010332393229B0133AE
:10459000072B229341DC0834103EEEE721AA49465E
:1045A000504601F0F5FC002840F0EB802EAC96E779
:1045B00010236360239B10332393229B0133072B2B
:1045C000229302DC0834103E91E721AA4946504666
:1045D00001F0DEFC002840F0D4802EACF3E721AAE5
:1045E0004946504601F0D4FC002840F0CA802EAC69
:1045F0008BE721AA4946504601F0CAFC002840F04A
:10460000C0802EAC95E721AA4946504601F0C0FC77
:10461000002840F0B6802EACA1E721AA49465046BA
:1046200001F0B6FC002840F0AC802EACB4E700BF2F
:10463000AD680008BF680008079B012B01DCEA0792
:1046400076D501236360239BC4F800800133239354
:10465000229B0133072B229336DC0834119B0A9AE4
:1046600023600A9B6360239B13442393229B0133A3
:10467000072B229331DC0834139B129A0D980E9964
:10468000FCF78EF9079B5E1E00282FD108F101036D
:1046900084E84800239B079A013B13442393229B01
:1046A0000133072B22934ADD21AA4946504601F0E7
:1046B0006FFC002865D12EAC1DAB2360149B149AAF
:1046C0006360239B13441CE421AA4946504601F031
:1046D0005FFC002855D12EACC0E721AA49465046C0
:1046E00001F056FC00284CD12EACC5E7002EE3DDCE
:1046F0004FF01008584F102E276004DC239B666093
:104700001E442396CBE7239BC4F8048010332393E5
:10471000229B0133072B229302DC0834103EEAE788
:1047200021AA4946504601F033FC50BB2EACF5E7B8
:1047300001236360239BC4F800800133AEE7083493
:10474000BAE70834FFF7EDBB0C9B0F9A9D1A002DBA
:104750007FF7EAAB1026414B102D23601BDC239B17
:1047600065601D44229B23950133072B22937FF71D
:10477000DBAB21AA4946504601F00AFC00283FF471
:10478000D3ABB9F80C3013F0400F0B9B18BF4FF0B0
:10479000FF33FFF7BDB8239B666010332393229B42
:1047A0000133072B229302DC0834103DD3E721AA02
:1047B0004946504601F0ECFB0028E2D12EACF4E76C
:1047C000239B002BDDD021AA4946504601F0E0FB97
:1047D000D7E70D9A0E9B0D980E99FCF713F9002858
:1047E0003FF43DAA1E4B1F4AFFF72DBA1F9BA3EBB8
:1047F00008030793FFF7AFBA56EA07020F953FF495
:104800002BAC012B3FF49DAC022B3FF4BDAC2EAB87
:10481000F10841EA4771F80806F0070207460E461C
:10482000303256EA070103F1FF3803F8012C7FF418
:1048300086AC0F99C90706D5302A04D0302208F873
:10484000012CA3F102082EAB5E460F9DA3EB080BD3
:104850000027FFF7CEBA00BFBF680008AF680008A6
:1048600083680008876800082DE9F74F03690C6921
:1048700080469C4200F38280013C01F1140700F164
:10488000140657F8245056F824000135B0FBF5F50E
:104890004FEA840E06EB0E0307EB0E0901938DB36E
:1048A0004FF0000A3846B446D34650F8042B93B272
:1048B00005FB03A3120C4FEA134A05FB02A29BB2AD
:1048C000ABEB0303BCF800B04FEA124A5B441FFA9B
:1048D00082FBDCF800208145CBEB124202EB234245
:1048E0009BB243EA02434FEA224B4CF8043BDCD232
:1048F00056F80E3033B9019B043B9E421A4631D321
:10490000C8F81040404601F06AFA002826DB30461D
:104910004FF0000E013557F8041BD0F800C08BB2E1
:10492000AEEB03031FFA8CF213440A0CC2EB1C42D9
:1049300002EB23429BB243EA0243B9454FEA224EBF
:1049400040F8043BE7D256F8242006EB84032AB94A
:10495000043B9E421A460BD3C8F81040284603B0C9
:10496000BDE8F08F1268043B002AC9D1013CC4E7BE
:104970001268043B002AEFD1013CEAE70020EEE791
:104980002DE9F04F466A95B00446219DCDE90223FA
:104990003EB9102000F0DAFD606246608660066075
:1049A000C660636A196851B15A68012393404A602E
:1049B0008B60204601F03EF80022636A1A60039B78
:1049C000002BB7BF012300232B60039BAEBF2B60DE
:1049D00023F000430393DDF80C90AB4B33EA09035B
:1049E0001BD142F20F73209A1360029B23B9C9F3C3
:1049F0001300002800F08385229B53B9A34B21E0CC
:104A0000A34B06930833229A1360069815B0BDE8AD
:104A1000F08F9E4B06930333F5E7DDE90267002232
:104A2000002330463946FBF7BBFF804660B10123C7
:104A3000209A1360229B002B00F05E85954B229AF2
:104A40001360013B0693E0E712AB019313AB0093B5
:104A500032463B46204601F03BFAC9F30A558246EE
:104A6000002D7DD03046C7F3130343F07F5141F44E
:104A70004011A5F2FF35CDF840800022864BFBF7B0
:104A800073FB7BA3D3E90023FBF722FD7AA3D3E9D1
:104A90000023FBF76BFB064628460F46FBF7B2FCEC
:104AA00077A3D3E90023FBF713FD02460B463046FC
:104AB0003946FBF75BFB06460F46FBF7B9FF0022C2
:104AC0008346002330463946FBF774FF58B15846F9
:104AD000FBF798FC02460B4630463946FBF760FF71
:104AE00008B90BF1FF3BBBF1160F58D8DDE90223E3
:104AF0006A4901EBCB01D1E90001FBF779FF0028FE
:104B00004FD000230BF1FF3B0D93129B5D1B6B1EDF
:104B1000079343BF0023C5F1010807934FF0000836
:104B2000BBF1000F3FDB079BCDF830B05B44079330
:104B3000002308931E9B092B00F2B480052BC4BFF1
:104B4000043B1E931E9BC8BF0026A3F10203D8BFDF
:104B50000126032B00F2B280DFE803F084862D7873
:104B6000139B129D1D4405F23243202B11DD029A46
:104B700005F21240C3F1400322FA00F009FA03F3F0
:104B80001843FBF72FFC0123A1F1F871013D1093AD
:104B900073E7C3F12000029B03FA00F0F1E7012361
:104BA000B2E70D90B1E7CBF1000308930023A8EB27
:104BB0000B080C93BEE7012309931F9B002B40F3C6
:104BC00080809946049300220421656A6A6001F19D
:104BD00014029A427AD96968204600F0F7FE636AA7
:104BE00028601B68B9F10E0F069300F2F080002ECA
:104BF00000F0ED80DDE90223BBF1000FCDE90E23CB
:104C000079DD264A0BF00F034FEA2B1602EBC303A4
:104C1000F006D3E90023CDE90A235CD5DDE90E01D6
:104C20001F4B0325D3E90823FBF77CFDCDE90201E7
:104C300006F00F061A4F002E4FD1DDE90A23DDE9F9
:104C40000201FBF76FFDCDE902016EE0012309933C
:104C50001F9B5B4403F1010904934B46012BB8BF32
:104C60000123B0E70023A7E70023F0E7AFF30080BC
:104C700061436F63A787D23FB3C8608B288AC63F62
:104C8000FB799F501344D33F0000F07FD8680008A1
:104C9000CF680008AE6800080000F83F10690008FF
:104CA000E86800080126002309961E934FF0FF33A1
:104CB00000220493994612231F9284E7012309934B
:104CC000F4E70123049399461A46F5E76A68490018
:104CD00001326A607BE70225ACE7F10708D5DDE920
:104CE0000A01D7E90023FBF7F3FBCDE90A010135FF
:104CF000761008379FE700F0A580DDE90E01CBF1C3
:104D00000006A24B06F00F0203EBC203D3E9002317
:104D1000FBF7DEFB02250023CDE902019C4F361193
:104D2000002E40F08480002B8DD10D9B002B00F0D5
:104D30008B80DDE90223CDE90A23DDE90A010022A7
:104D4000944BFBF737FE00287ED0B9F1000F7BD0E3
:104D5000049B002B37DDDDE90A0100228E4BFBF7B7
:104D6000B7FBCDE90201049E0BF1FF370135284660
:104D7000FBF748FBDDE90223FBF7AAFB874B002288
:104D8000FBF7F4F9CDE90A010B9BA3F150750B95E4
:104D9000002E5CD1DDE902010022814BFBF7E4F932
:104DA0000A9A2B46CDE90201FBF722FE002840F0CB
:104DB000F782DDE902010A9A05F10043FBF7FAFDEB
:104DC000002840F0EB82DDE90E23CDE90223139B9E
:104DD000002BC0F25081BBF10E0F00F34C816B4BE6
:104DE00003EBCB03D3E90023CDE904231F9B002B66
:104DF00080F2DA80B9F1000F00F3D68040F0CD8266
:104E0000DDE904010022664BFBF762FBDDE90223CA
:104E1000FBF7E4FD4E464F46002840F0A482069B77
:104E2000069A5D1C31230BF1010B13709FE2F20710
:104E300005D5D7E90023FBF74BFB0123013576109D
:104E400008376DE7022570E75F464E468FE7069A02
:104E50004E4B32441192099A711E002A48D003EB3E
:104E6000C103D3E9002300204E49FBF75BFCDDE9D9
:104E70000A23FBF779F9CDE90A01069DDDE9020174
:104E8000FBF7D6FD0646FBF7BDFA02460B46DDE909
:104E90000201FBF769F9DDE90A23303605F8016BF9
:104EA000CDE90201FBF786FD002864D1DDE902238C
:104EB00000203849FBF758F9DDE90A23FBF77AFDB2
:104EC000002840F0B980119B9D423FF47CAFDDE9A2
:104ED0000A010022304BFBF7FBFA0022CDE90A0160
:104EE000DDE902012C4BFBF7F3FACDE90201C5E73E
:104EF00003EBC101D1E90001DDE90A23FBF7E8FA80
:104F0000CDE90A01069DDDE90201FBF791FD0646A8
:104F1000FBF778FA02460B46DDE90201FBF724F9BC
:104F20003036119B05F8016BAB42CDE902014FF021
:104F3000000224D11B4BDDE90A01FBF717F90246F9
:104F40000B46DDE90201FBF753FD002874D1DDE9D2
:104F50000A2300201349FBF707F902460B46DDE957
:104F60000201FBF727FD00283FF42DAF15F8013CA7
:104F70006A1E302B01D0BB464DE01546F6E7064BC6
:104F8000FBF7A6FACDE90201BDE700BF10690008F2
:104F9000E86800080000F03F0000244000001C40CA
:104FA000000014400000E03F069DDDE90267DDE9F6
:104FB000042330463946FBF7B5FBFBF739FD804645
:104FC000FBF720FADDE90423FBF782FA02460B46E1
:104FD00030463946FBF7C8F808F1300605F8016B92
:104FE000069E0246AE1BB1450B4637D1FBF7BEF815
:104FF00006460F4602460B46DDE90401FBF7DAFCE4
:10500000C8B9DDE9040132463B46FBF7C9FC10B1E3
:1050100018F0010F0FD15146204600F00BFD002380
:10502000209A2B700BF101031360229B002B3FF49D
:10503000ECAC1D60E9E45F4615F8012C6B1E392AC3
:1050400006D1069A9A4207D13023137013460137CE
:105050001A7801321A708EE71D46EDE70022B54B33
:10506000FBF736FA0022002306460F46FBF798FCB2
:1050700000289CD0CFE7099A002A00F029811E9AC7
:10508000012A00F30E81109A002A00F0068103F233
:1050900033434546089E079A01211A442046984406
:1050A000079200F067FD0746002D0BDD079B002BE4
:1050B00008DDAB42A8BF2B46079AA8EB0308ED1A00
:1050C000D31A0793089BFBB1099B002B00F00481C6
:1050D000002E11DD39463246204600F0E1FD5246F1
:1050E00001460746204600F04EFD51460A902046F4
:1050F00000F0A0FC0A9B9A46089B9A1B04D05146DC
:10510000204600F0CDFD82460121204600F032FD10
:105110000C9B0646002B40F3E1801A4601462046D0
:1051200000F0BEFD1E9B0646012B40F3DA800023F3
:105130000893336906EB8303186900F0CDFCC0F1D6
:105140002000079B184410F01F0000F0F080C0F111
:105150002003042B40F3E280079BC0F11C00804435
:10516000054403440793B8F1000F05DD514642465C
:10517000204600F0E3FD8246079B002B05DD31460B
:105180001A46204600F0DAFD06460D9B002B00F083
:10519000D3803146504600F022FE002880F2CC80B9
:1051A000002351460A22204600F05BFC099B0BF1CC
:1051B000FF3B8246002B00F0A981002339460A22DA
:1051C000204600F04EFC049B0746002B03DC1E9B90
:1051D000022B00F3B980002D05DD39462A46204612
:1051E00000F0ACFD0746089B002B00F010817968A9
:1051F000204600F0EBFB05463A6907F10C0102324C
:1052000092000C30FEF74CFA01222946204600F0AD
:1052100095FD07970746029BDDF8188003F0010310
:10522000089331465046FFF71FFB0799054600F1EA
:105230003009504600F0D3FD3A46029031462046F0
:1052400000F0E7FDC3680246002B40F0E280014613
:105250000990504600F0C3FD0346099A11462046C6
:10526000099300F0E7FB099B002B40F0D4801E9AC5
:10527000002A40F0D080089A002A40F0CC80B9F192
:10528000390F00F0E880029B002B01DD05F13109A8
:1052900008F1010588F800906BE0129BC3F136031A
:1052A000F7E6089B09F1FF36B342B7BF089B9E1B88
:1052B000F21A0C9BBFBF08969B180C930026B9F1FD
:1052C000000FB9BFA8EB0905002345464B46E2E6AF
:1052D000089E4546099FE7E6089A10E71E9B012BAA
:1052E00018DC029BB3B9039BC3F31303A3B9039B5D
:1052F00023F000431B0D1B052BB1079B08F1010890
:1053000001330793012308930C9B002B7FF411AF0B
:10531000012016E70023F6E7029BF4E73FF423AFF2
:10532000079A1C331A4498441D4413461AE703464F
:10533000F6E700BF00002440B9F1000F33DC1E9BEC
:10534000022B30DDCDF81090049B63B93146052265
:10535000204600F086FB01460646504600F03FFD21
:1053600000283FF75CAD1F9B069D6FEA030B0023EF
:1053700007933146204600F05DFB002F3FF44BAE13
:10538000079B2BB1BB4203D01946204600F052FBCD
:105390003946204600F04EFB3DE600263746E2E760
:1053A000BB4637463BE5099BCDF81090002B7FF4B8
:1053B00012AF069D31465046FFF756FA069B00F1A4
:1053C000300905F8019B049AEB1A9A4200F3818098
:1053D000069B012AACBF9B18013398460023079314
:1053E00051460122204600F0A9FC3146824600F0D9
:1053F000F6FC002834DC02D119F0010F30D145460B
:1054000015F8013C6A1E302BB3D11546F8E7384633
:10541000FFE6012322E7029A002A04DB28D11E9A24
:1054200032BB089A22BB002B7FF732AF51460122D4
:10543000204600F083FC3146824600F0D0FC002874
:1054400005DC7FF425AF19F0010F3FF421AFB9F16E
:10545000390F7FF41BAF392308F1010808F8013C2C
:10546000454615F8013C6A1E392B3AD001333FE01E
:10547000002B08F1010505DDB9F1390FEBD009F179
:10548000010907E7069B049AEB1A9342A84605F820
:10549000019CA5D0514600230A22204600F0E1FAE3
:1054A000079B8246BB424FF00A024FF00003079968
:1054B000204604D100F0D5FA07900746B1E600F087
:1054C000D0FA002307900A223946204600F0C9FA94
:1054D000F3E7514600230A22204600F0C2FA824632
:1054E00068E7069B934205D13123069A0BF1010B25
:1054F00013703EE71546B4E7094BFFF7A3BA229BAA
:10550000002B7FF47DAA074BFFF79CBA049B002B6E
:105510003FF74FAF1E9B022B7FF74BAF14E700BF47
:10552000AD680008CF680008D0F8EC0070470000B4
:10553000044B1B68186A044B002808BF1846F0305B
:10554000704700BF280000201C010020024B0146CC
:10555000186800F003B800BF280000202DE9F74FBD
:1055600001F10B04162C814607D934F0070405D548
:105570000C23C9F80030002631E110248C42F7D307
:10558000484600F017FAB4F5FC7F9B4D36D204F183
:1055900008022A445668A2F108018E424FEAD40359
:1055A00002D1D668B24210D07368F268B16823F0B5
:1055B0000303CA60334491605A6842F001025A60A2
:1055C000484600F0FDF9083609E102338B4A2E699E
:1055D000114696426DD0706820F00300071B0F2F14
:1055E00047DD331944F0010474606B612B61DA60AC
:1055F0009A6047F001025A603750E1E7630A2AD007
:10560000042B12D8A30938335A1C05EBC202566882
:10561000A2F10800864206D0726822F00302111B34
:105620000F291CDD013B0133D0E7142B01D85B337C
:10563000EAE7542B02D8230B6E33E5E7B3F5AA7FD4
:1056400002D8E30B7733DFE740F25452934204D899
:10565000A30C7C33D8E73F23D6E77E23D4E7002989
:10566000F16804DBB368D9608B60B318A4E70E4619
:10567000D0E7002F6A612A6105DB3044436843F0BC
:10568000010343609CE7B0F5007F44D20122C008CB
:10569000871002FA07F76A6801303A436A6055F8E2
:1056A000307005EBC002083AF260B76045F8306030
:1056B000FE6001209A1000FA02F26868824200F24D
:1056C0009F80024206D123F003035200024203F1FD
:1056D0000403FAD005EBC30CE0469E46D8F80C60F4
:1056E000464553D10EF1010E1EF0030F08F10808D4
:1056F000F4D1980779D16B6823EA02036B6068687C
:10570000520082427CD8002A7AD073460242E1D10C
:1057100004335200FAE7420A042A15D882093832C3
:10572000571C55F8377005EBC20EBE4526D1012037
:10573000921000FA02F2686810436860C6F80CE044
:10574000B760CEF80860B3E7142A01D85B32E7E708
:10575000542A02D8020B6E32E2E7B2F5AA7F02D8D1
:10576000C20B7732DCE740F25457BA429ABF820C40
:105770007C327E22D4E7BF68BE4504D07A6822F02E
:1057800003029042F7D3D7F80CE0D7E77068F768C8
:1057900020F00300A0EB040ABAF10F0F10DDB2688D
:1057A000331944F001047460D760BA604AF0010212
:1057B0006B612B61D96099605A6046F800A0FFE6E2
:1057C000BAF1000F0FDB3044436843F0010343603C
:1057D00056F8083F4846DF60BB6000F0F1F83046FD
:1057E00003B0BDE8F08F3E467AE75CF80809013B5C
:1057F00084453FF47EAF82E78802002090020020BB
:10580000D5F808B0DBF8046026F00306B44203D8EC
:10581000331B0F2B00F395804F4A0BEB06031768E1
:105820004E4A103711682744013105D04C490139DF
:105830000F44013149420F403946484601920093D6
:1058400000F096FBB0F1FF3F804655D0009B019AD7
:10585000834201D9AB454FD1424843450168824656
:1058600007EB010EC0F800E03F4913D10B4211D104
:10587000AB683E4446F001065E603C4ADAF8003010
:1058800011688B4288BF1360394A11688B4288BF08
:10589000136031E0106801301BBFA8EB03037344B1
:1058A000C2F80080CAF8003018F007001CBFC0F131
:1058B000080080442A4B474418440F40C71B394610
:1058C000484600F055FB431C04BF40460027DAF869
:1058D0000030A0EB08003B44074447F00107AB450C
:1058E000C5F80880CAF80030C8F80470C5D00F2E7B
:1058F00010D80123C8F80430AB685A6822F00302BC
:105900009442A2EB040301D80F2B1ADC484600F0A6
:1059100057F830E60522DBF804300C3E26F0070687
:1059200003F001033343CBF804300F2E0BEB0603D7
:105930005A609A60A1D90BF10801484600F032FC88
:105940009BE7AE6844F0010243F001033444726007
:10595000AC60636034E600BF900E0020900600202B
:1059600080000000600E00207F000000880E0020F4
:105970008C0E002082B001B901A942B14BB113785D
:105980000B601278101C18BF012002B0704710463F
:10599000FBE76FF00100F8E710B5C9B2024490428E
:1059A000034601D1002010BD1C7801308C42F6D195
:1059B000184610BD014800F0B1BC00BF2410002003
:1059C000014800F0ACBC00BF2410002070B5456A4F
:1059D00004460E463DB91020FFF7B8FD60624560F1
:1059E00085600560C560656AEB6883B1636ADB68E2
:1059F00053F82600B8B9012101FA06F56A1D920094
:105A0000204600F04CFB60B1466085600EE021222C
:105A10000421204600F043FB636AE860DB68002B4A
:105A2000E4D1002070BD026843F826200023036102
:105A3000C36070BD70B5446A06460D463CB910207F
:105A4000FFF784FD7062446084600460C4603DB10F
:105A5000736A6A68DB6853F82210296043F82250A1
:105A600070BD2DE9F0411F4606460C4600230D6926
:105A700001F1140EDEF80000013381B202FB017166
:105A8000000C0F0C02FB007089B201EB00419D423B
:105A90004FEA10474EF8041BECDCD7B1A3689D42D7
:105AA00012DB616830460131FFF790FF80462269C2
:105AB00004F10C01023292000C30FDF7F1FD214699
:105AC0003046FFF7B7FF444604EB850301355F61BD
:105AD00025612046BDE8F081020C12040346B2B9EC
