:020000040800F2
:1000000000500020E90B00083B0C0008470C0008DA
:100010004D0C0008530C0008590C000800000000AB
:100020000000000000000000000000005F0C00085D
:100030006B0C000800000000770C0008830C00081F
:10004000390C0008390C0008390C0008390C00087C
:10005000390C0008390C0008390C0008390C00086C
:10006000390C0008390C0008390C0008390C00085C
:10007000390C0008390C0008390C0008390C00084C
:10008000390C0008390C0008390C0008390C00083C
:10009000390C0008390C0008390C0008390C00082C
:1000A000390C0008390C0008390C0008390C00081C
:1000B000390C0008390C0008390C0008390C00080C
:1000C000390C0008390C0008390C0008390C0008FC
:1000D000390C0008910C0008D10C0008390C0008FC
:1000E000390C0008390C0008390C00080000000029
:1000F0000000000000000000000000000000000000
:0C01000000000000000000005FF808F1A3
:10010C0010B5054C237833B9044B13B10448AFF345
:10011C0000800123237010BD880200200000000025
:10012C00D433000808B5034B1BB103490348AFF3A4
:10013C00008008BD000000008C020020D4330008B1
:10014C00034613F8012B002AFBD1181A013870470B
:10015C0080B483B000AF78607B68042B06D1094A69
:10016C00084B1B6843F00403136005E0054A054B7C
:10017C001B6823F00403136000BF0C37BD4680BC22
:10018C00704700BF10E000E080B485B000AF78602D
:10019C000023FB60094B1B68FB60FB6803F0380312
:1001AC00FB60FA687B681343FB60044AFB681360CE
:1001BC0000BF1437BD4680BC704700BF0020024012
:1001CC0080B483B000AF7860084A084B1B6823F0FA
:1001DC00100313600549054B1A687B6813430B60C9
:1001EC0000BF0C37BD4680BC704700BF00200240EA
:1001FC0080B489B000AF786039600023FB610023C4
:10020C003B610023BB610023FB6000237B61002367
:10021C00BB603B68DB7803F00F03FB613B68DB786A
:10022C0003F01003002B05D03B689B781A46FB6942
:10023C001343FB613B681B88DBB2002B44D07B680B
:10024C001B687B610023BB6138E00122BB6902FAA9
:10025C0003F3FB603B681B881A46FB6813403B6149
:10026C003A69FB689A4226D1BB699B00FB600F225E
:10027C00FB6802FA03F3BB60BB68DB437A6913408B
:10028C007B61FA69FB6802FA03F37A6913437B61B9
:10029C003B68DB78282B05D10122BB699A407B682F
:1002AC005A6108E03B68DB78482B04D10122BB691A
:1002BC009A407B681A61BB690133BB61BB69072B30
:1002CC00C3D97B687A691A603B681B88FF2B46D9B7
:1002DC007B685B687B610023BB613AE0BB690833D8
:1002EC00012202FA03F3FB603B681B881A46FB6889
:1002FC0013403B613A69FB689A4227D1BB699B006A
:10030C00FB600F22FB6802FA03F3BB60BB68DB43A4
:10031C007A6913407B61FA69FB6802FA03F37A6924
:10032C0013437B613B68DB78282B05D1BB69083311
:10033C0001229A407B685A613B68DB78482B05D1D7
:10034C00BB69083301229A407B681A61BB6901338F
:10035C00BB61BB69072BC1D97B687A695A6000BF46
:10036C002437BD4680BC704780B483B000AF786042
:10037C000B467B807A887B685A6100BF0C37BD4680
:10038C0080BC704780B483B000AF7860134A134BC5
:10039C001B6823F480331360104A104B1B6823F442
:1003AC00802313607B68B3F5803F03D0B3F5802FB7
:1003BC0007D00DE0094A094B1B6843F480331360E6
:1003CC0006E0064A054B1B6843F4A023136000BFEC
:1003DC0000BF0C37BD4680BC704700BF0010024008
:1003EC0080B582B000AF00233B600023FB7100237B
:1003FC00BB71312000F0B4F90346BB713B6801338B
:10040C003B603B68B3F5A06F02D0BB79002BF0D0FA
:10041C00312000F0A5F90346002B02D00123FB711B
:10042C0001E00023FB71FB7918460837BD4680BDFF
:10043C0080B485B000AF786039600023FB600A4B54
:10044C005B68FB60FB6823F47C13FB607A683B6899
:10045C001343FA681343FB60034AFB68536000BF05
:10046C001437BD4680BC70470010024080B483B086
:10047C0000AF0346FB71044AFB79136000BF0C37D5
:10048C00BD4680BC704700BF6000424280B485B05E
:10049C0000AF78600023FB60094B5B68FB60FB6876
:1004AC0023F00303FB60FA687B681343FB60044A88
:1004BC00FB68536000BF1437BD4680BC704700BF5B
:1004CC000010024080B400AF044B5B68DBB203F059
:1004DC000C03DBB21846BD4680BC704700100240CE
:1004EC0080B485B000AF78600023FB60094B5B687B
:1004FC00FB60FB6823F0F003FB60FA687B68134336
:10050C00FB60044AFB68536000BF1437BD4680BCD7
:10051C00704700BF0010024080B485B000AF786017
:10052C000023FB60094B5B68FB60FB6823F4E06312
:10053C00FB60FA687B681343FB60044AFB685360FA
:10054C0000BF1437BD4680BC704700BF001002408E
:10055C0080B485B000AF78600023FB60094B5B680A
:10056C00FB60FB6823F46053FB607B68DB00FA687C
:10057C001343FB60034AFB68536000BF1437BD464E
:10058C0080BC70470010024080B487B000AF786028
:10059C0000237B6100233B610023FB600023BB60D5
:1005AC004C4B5B6803F00C037B617B69042B07D01D
:1005BC00082B09D0002B33D17B68474A1A6033E0F3
:1005CC007B68454A1A602FE0424B5B6803F470135A
:1005DC003B61404B5B6803F48033FB603B699B0CD5
:1005EC0002333B61FB68002B06D13B693B4A02FBA3
:1005FC0003F27B681A6017E0364B5B6803F4003338
:10060C00002B06D03B69354A02FB03F27B681A606B
:10061C000AE03B69304A02FB03F27B681A6003E094
:10062C007B682D4A1A6000BF2A4B5B6803F0F0030D
:10063C007B617B691B097B61294A7B6913441B78AD
:10064C00DBB2BB607B681A68BB68DA407B685A60B7
:10065C00204B5B6803F4E0637B617B691B0A7B6165
:10066C001F4A7B6913441B78DBB2BB607B685A68FA
:10067C00BB68DA407B689A60164B5B6803F4605386
:10068C007B617B69DB0A7B61154A7B6913441B78B0
:10069C00DBB2BB607B685A68BB68DA407B68DA60A7
:1006AC000C4B5B6803F440437B617B699B0B7B6168
:1006BC000C4A7B6913441B78DBB2BB607B68DA683D
:1006CC00BB68B2FBF3F27B681A6100BF1C37BD46F6
:1006DC0080BC70470010024000127A0000093D00F7
:1006EC00000000201000002080B483B000AF7860C0
:1006FC000B46FB70FB78002B06D00949084B9A6916
:10070C007B6813438B6106E00549054B9A697B684E
:10071C00DB4313408B6100BF0C37BD4680BC704778
:10072C000010024080B483B000AF78600B46FB70C1
:10073C00FB78002B06D00949084BDA697B68134318
:10074C00CB6106E00549054BDA697B68DB43134056
:10075C00CB6100BF0C37BD4680BC70470010024017
:10076C0080B487B000AF0346FB710023FB6000230D
:10077C007B610023FB74FB795B09DBB2FB60FB68DC
:10078C00012B03D1124B1B687B6109E0FB68022B28
:10079C0003D10F4B1B6A7B6102E00D4B5B6A7B61E3
:1007AC00FB7903F01F03FB607A69FB6822FA03F301
:1007BC0003F00103002B02D00123FB7401E00023A2
:1007CC00FB74FB7C18461C37BD4680BC704700BFD1
:1007DC000010024080B58CB000AF78603960002307
:1007EC00FB620023BB6200237B6200233B6200237D
:1007FC00FB617B68FB617B681B8A9BB2FB62FA6ABC
:10080C004CF6FF731340FB623B68DB881A46FB6AAD
:10081C001343FB62FB6A9AB27B681A827B689B89E2
:10082C009BB2FB62FA6A4EF6F3131340FB623B6811
:10083C009A883B681B8913439AB23B685B891343C4
:10084C009BB21A46FB6A1343FB62FB6A9AB27B6843
:10085C009A817B689B8A9BB2FB62FA6A4FF6FF43D4
:10086C001340FB623B689B891A46FB6A1343FB628D
:10087C00FB6A9AB27B689A8207F108031846FFF765
:10088C0083FEFB692E4A934202D17B69BB6201E075
:10089C003B69BB627B689B899BB21BB2002B0CDA59
:1008AC00BA6A13469B0013449A001A443B681B68AF
:1008BC005B00B2FBF3F37B620BE0BA6A13469B005E
:1008CC0013449A001A443B681B689B00B2FBF3F379
:1008DC007B627B6A1B4AA2FB03235B091B01FB6245
:1008EC00FB6A1B09642202FB03F37A6AD31A3B628C
:1008FC007B689B899BB21BB2002B0CDA3B6ADB003A
:10090C003233104AA2FB03235B0903F00703FA6A94
:10091C001343FB620BE03B6A1B013233094AA2FB17
:10092C0003235B0903F00F03FA6A1343FB62FB6AB0
:10093C009AB27B681A8100BF3037BD4680BD00BFBC
:10094C00003801401F85EB5180B483B000AF786054
:10095C000B46FB70FB78002B08D07B689B899BB205
:10096C0043F400539AB27B689A8107E07B689B89B9
:10097C009BB223F400539AB27B689A8100BF0C3768
:10098C00BD4680BC704780B487B000AF78600B4622
:10099C007B8013467B7000233B610023FB600023AC
:1009AC00BB6000237B617B687B617B88DBB25B096E
:1009BC00DBB23B617B8803F01F03FB600122FB6809
:1009CC0002FA03F3BB603B69012B03D17B690C3347
:1009DC007B6109E03B69022B03D17B6910337B619E
:1009EC0002E07B6914337B617B78002B06D07B693A
:1009FC007A691168BA680A431A6006E07B697A69F9
:100A0C001168BA68D2430A401A6000BF1C37BD4651
:100A1C0080BC704780B483B000AF78600B467B809D
:100A2C007B88C3F308039AB27B689A8000BF0C37AB
:100A3C00BD4680BC704780B483B000AF78607B68E3
:100A4C009B889BB2C3F308039BB218460C37BD4678
:100A5C0080BC704780B485B000AF78600B467B805B
:100A6C000023FB737B681B889AB27B8813409BB274
:100A7C00002B02D00123FB7301E00023FB73FB7BF3
:100A8C0018461437BD4680BC704780B487B000AFA1
:100A9C0078600B467B800023FB6000237B61002386
:100AAC00BB600023FB747B88DBB25B09DBB2BB60F1
:100ABC007B8803F01F037B6101227B6902FA03F33D
:100ACC007B61BB68012B07D17B689B899BB21A4663
:100ADC007B6913407B6111E0BB68022B07D17B68FB
:100AEC001B8A9BB21A467B6913407B6106E07B68CC
:100AFC009B8A9BB21A467B6913407B617B881B0ADD
:100B0C009BB2FB600122FB6802FA03F3FB607B687B
:100B1C001B889BB21A46FB681340FB607B69002B59
:100B2C0005D0FB68002B02D00123FB7401E00023ED
:100B3C00FB74FB7C18461C37BD4680BC704780B4E8
:100B4C0085B000AF78600B467B800023FB810023CF
:100B5C00BB817B881B0AFB81FB89012202FA03F310
:100B6C00BB81BB89DB439AB27B681A8000BF143708
:100B7C00BD4680BC704780B500AF00F0BBFB00F0F9
:100B8C00F7FB00F013FC00F089FC0021002001F0C1
:100B9C0087F80021002001F0C9FF00F0B1FD002111
:100BAC00002001F093FF0021002000F029FF00F04D
:100BBC0019FC0021002000F07BFF00F03BFE01F04F
:100BCC006FFC01F0A3FC0346002B01D001F036F8BA
:100BDC004FF47A7000F07AFBEFE70000DFF834D0C6
:100BEC00002103E00C4B5B58435004310B480C4B79
:100BFC0042189A42F6D30B4A02E0002342F8043B17
:100C0C00094B9A42F9D300F07DF802F09DFAFFF7F8
:100C1C00B2FF7047005000203C3900080000002053
:100C2C00880200208802002010110020FEE780B40A
:100C3C0000AF00BFBD4680BC704780B400AFFEE77C
:100C4C0080B400AFFEE780B400AFFEE780B400AF25
:100C5C00FEE780B400AF00BFBD4680BC704780B4D7
:100C6C0000AF00BFBD4680BC704780B400AF00BF72
:100C7C00BD4680BC704780B500AF00F019FB00BFCB
:100C8C0080BD000080B582B000AF40F225510C4809
:100C9C00FFF7FBFE0346002B0DD00948FFF7CBFEF8
:100CAC000346FB71FB79184600F0B4FC40F2255169
:100CBC000348FFF744FF00BF0837BD4680BD00BFA7
:100CCC000038014080B582B000AF40F225510C488D
:100CDC00FFF7DBFE0346002B0DD00948FFF7ABFEF8
:100CEC000346FB71FB79184600F082FC40F225515B
:100CFC000348FFF724FF00BF0837BD4680BD00BF87
:100D0C000044004080B500AF154A154B1B6843F0FA
:100D1C00010313601249124B5A68124B13404B607B
:100D2C000F4A0F4B1B6823F0847323F4803313603A
:100D3C000B4A0B4B1B6823F480231360084A084BA7
:100D4C005B6823F4FE035360054B4FF41F029A605B
:100D5C0000F078F8044B4FF000629A6000BF80BD41
:100D6C00001002400000FFF800ED00E080B485B0F8
:100D7C0000AF0023FB600023BB6000237B602C4B87
:100D8C005B6803F00C03FB60FB68042B07D0082B9B
:100D9C0009D0002B33D1274B274A1A6033E0254B5F
:100DAC00254A1A602FE0224B5B6803F47013BB607A
:100DBC001F4B5B6803F480337B60BB689B0C023376
:100DCC00BB607B68002B06D1BB681C4A02FB03F39B
:100DDC00184A136017E0164B5B6803F40033002BC2
:100DEC0006D0BB68154A02FB03F3124A13600AE0F3
:100DFC00BB68114A02FB03F30E4A136003E00D4B70
:100E0C000D4A1A6000BF0A4B5B681B0903F00F0305
:100E1C000B4AD35CDBB2FB60064B1A68FB6822FA08
:100E2C0003F3044A136000BF1437BD4680BC7047FF
:100E3C00001002401400002000127A0000093D004E
:100E4C001800002080B500AF00F002F800BF80BD94
:100E5C0080B483B000AF00237B6000233B603A4A30
:100E6C00394B1B6843F480331360374B1B6803F416
:100E7C0000333B607B6801337B603B68002B03D104
:100E8C007B68B3F5A06FF0D12F4B1B6803F40033D4
:100E9C00002B02D001233B6001E000233B603B6848
:100EAC00012B4BD1294A294B1B6843F010031360CB
:100EBC00264A264B1B6823F003031360234A234B5B
:100ECC001B6843F0020313601F4A1F4B5B6853609F
:100EDC001D4A1D4B5B6853601B4A1B4B5B6843F4FC
:100EEC0080635360184A184B5B6823F47C1353607F
:100EFC00154A154B5B6843F4E8135360124A124BC6
:100F0C001B6843F08073136000BF0F4B1B6803F02A
:100F1C000073002BF9D00C4A0B4B5B6823F00303D6
:100F2C005360094A084B5B6843F00203536000BFEF
:100F3C00054B5B6803F00C03082BF9D100BF0C3791
:100F4C00BD4680BC704700BF00100240002002402C
:100F5C0080B584B000AFF860B9607A60FB68002B94
:100F6C0005D0BB68002B02D07B68002B01D100237D
:100F7C000BE010220021F86802F015F9FB687A6882
:100F8C005A60FB68BA681A60012318461037BD46D0
:100F9C0080BD80B588B000AFF860B9607A60BB687E
:100FAC00FB61FB68002B0DD0FB681B68002B09D084
:100FBC00FB685B68002B05D0BB68002B02D07B68FC
:100FCC00002B01D1002347E0F86800F0B0F8B861BD
:100FDC007A68BB69934228BF13467B607B68002B01
:100FEC0001D1002338E0FB685A68FB68DB68D21A31
:100FFC007B68934228BF13467B61FB681A68FB68C9
:10100C00DB6813447A69F969184602F0C1F8FB6889
:10101C00DA687B691A44FB68DA607A687B69D31AF0
:10102C007B607B68002B0BD0FB681868FA697B69C6
:10103C0013447A68194602F0ABF8FB687A68DA60F8
:10104C00FB68DA68FB685B689A4202D3FB68002293
:10105C00DA607A697B68134418462037BD4680BD38
:10106C0080B588B000AFF860B9607A60BB68FB618E
:10107C00FB68002B0DD0FB681B68002B09D0FB68AC
:10108C005B68002B05D0BB68002B02D07B68002B63
:10109C0001D1002347E0F86800F07FF8B8617A6866
:1010AC00BB69934228BF13467B607B68002B01D140
:1010BC00002338E0FB685A68FB689B68D21A7B688F
:1010CC00934228BF13467B61FB681A68FB689B68D8
:1010DC0013447A691946F86902F05AF8FB689A6861
:1010EC007B691A44FB689A607A687B69D31A7B60C7
:1010FC007B68002B0BD0FA697B69D018FB681B68E6
:10110C007A68194602F044F8FB687A689A60FB68C2
:10111C009A68FB685B689A4202D3FB6800229A606B
:10112C007A697B68134418462037BD4680BD80B46D
:10113C0087B000AF78607B68002B07D07B681B689A
:10114C00002B03D07B685B68002B01D100231FE0D0
:10115C007B68DB683B617B689B68FB603A69FB687A
:10116C009A4203D17B685B687B610FE0FA683B694C
:10117C009A4204D9FA683B69D31A7B6106E07B6812
:10118C005A68F9683B69CB1A13447B617B69013B54
:10119C0018461C37BD4680BC704780B487B000AF82
:1011AC0078607B68002B07D07B681B68002B03D012
:1011BC007B685B68002B01D100231DE07B68DB683A
:1011CC003B617B689B68FB603A69FB689A4202D181
:1011DC0000237B610FE03A69FB689A4204D93A69B3
:1011EC00FB68D31A7B6106E07B685A683969FB6837
:1011FC00CB1A13447B617B6918461C37BD4680BCF7
:10120C007047000080B483B000AF03463960FB71B7
:10121C0097F90730002B0BDA0D49FB7903F00F031C
:10122C00043B3A68D2B21201D2B20B441A7609E0EE
:10123C00084997F907303A68D2B21201D2B20B447E
:10124C0083F8002300BF0C37BD4680BC704700BF3D
:10125C0000ED00E000E100E080B582B000AF786006
:10126C007B68B3F1807F01D3012311E00A4A7B68CC
:10127C0023F07F43013B53600F214FF0FF30FFF70A
:10128C00C1FF054B00229A60034B07221A60002312
:10129C0018460837BD4680BD10E000E080B400AFB2
:1012AC00024B1B681846BD4680BC7047A402002048
:1012BC0080B400AF044B1B680133034A136000BFBA
:1012CC00BD4680BC704700BFA402002080B584B02E
:1012DC0000AF7860FFF7E2FFF86000BFFFF7DEFFBA
:1012EC000246FB68D21A7B689A42F7D300BF1037CC
:1012FC00BD4680BD80B582B000AF4FF48030FFF7A3
:10130C0041F8FFF76DF80346FB71FB79012B28D1EF
:10131C001020FEF755FF0220FEF736FF0020FFF7E6
:10132C00DFF80020FFF714F94FF48060FFF7F4F8B2
:10133C004FF4E0114FF48030FFF77AF80120FFF7FB
:10134C0095F800BF3920FFF70BFA0346002BF9D0B4
:10135C000220FFF79BF800BFFFF7B4F80346082BF9
:10136C00FAD1FFF703FD00BF0837BD4680BD000072
:10137C0080B500AF0420FEF7EBFE0A4B1B680A4A4F
:10138C00A2FB03239B091846FFF766FF0346002BBD
:10139C0000D0FEE70F214FF0FF30FFF733FF00BF07
:1013AC0080BD00BF14000020D34D621080B582B008
:1013BC0000AF01210820FFF797F90123BB8003231D
:1013CC00BB711023FB713B1D19460548FEF710FF3E
:1013DC0001210348FEF7C8FF00BF0837BD4680BD9A
:1013EC00000C014080B582B000AF01211020FFF746
:1013FC007BF94FF40053BB801023FB710323BB71AB
:10140C003B1D19460348FEF7F3FE00BF0837BD46E7
:10141C0080BD00BF0010014080B483B000AF034614
:10142C00FB71084997F907305B09FA7902F01F0242
:10143C00012000FA02F241F8232000BF0C37BD4610
:10144C0080BC704700E100E080B483B000AF03467D
:10145C003960FB7197F90730002B0BDA0D49FB79DA
:10146C0003F00F03043B3A68D2B21201D2B20B4420
:10147C001A7609E0084997F907303A68D2B2120196
:10148C00D2B20B4483F8002300BF0C37BD4680BC9E
:10149C00704700BF00ED00E000E100E080B58AB0CD
:1014AC0000AF01210420FFF71FF901214FF4804008
:1014BC00FFF71AF901214FF40030FFF733F9042339
:1014CC00BB84032387F82630182387F8273007F1CD
:1014DC00240319463F48FEF78BFE0823BB840423E4
:1014EC0087F8273007F1240319463A48FEF780FEA7
:1014FC004FF40073BB84032387F82630182387F836
:10150C00273007F1240319463248FEF771FE4FF4D9
:10151C008063BB84042387F8273007F12403194622
:10152C002C48FEF765FE4FF480722B492B48FFF7D1
:10153C000FFD4FF480722A492A48FFF709FD4FF43A
:10154C00E1337B610023BB830C23FB8300237B8370
:10155C0000233B8400233B8307F1140319462248E4
:10156C00FFF738F9012240F225511F48FFF70BFA1B
:10157C0001212620FFF768FF2620FFF74DFF0121F0
:10158C001948FFF7E1F94FF4E1337B600023BB818D
:10159C000C23FB8100237B8100233B8200233B81B6
:1015AC003B1D19461148FFF715F9012240F2255150
:1015BC000E48FFF7E8F902212520FFF745FF25200B
:1015CC00FFF72AFF01210948FFF7BEF900BF2837B2
:1015DC00BD4680BD00080140A8020020A8030020E1
:1015EC00B8030020B804002000440040003801403B
:1015FC0080B582B000AF0346FB71FB1D012219467A
:10160C000348FFF7C6FC00BF0837BD4680BD00BFCE
:10161C00A803002080B582B000AF0346FB71FB1D10
:10162C00012219460348FFF7B4FC00BF0837BD463A
:10163C0080BD00BFB804002080B582B000AF7860D8
:10164C000B467B807B881A4679680448FFF708FDB7
:10165C0003469BB218460837BD4680BDB80400202F
:10166C0080B582B000AF0346FB7100BF80210848F3
:10167C00FFF7F0F90346002BF8D0FB799BB2194623
:10168C000348FFF7C7F900BF0837BD4680BD00BF50
:10169C000044004080B582B000AF0346FB7100BF30
:1016AC0080210848FFF7D6F90346002BF8D0FB79C8
:1016BC009BB219460348FFF7ADF900BF0837BD468A
:1016CC0080BD00BF0038014080B584B000AF7860A9
:1016DC000B467B800023FB8109E0FB897A6813446D
:1016EC001B781846FFF7D6FFFB890133FB81FA897B
:1016FC007B889A42F1D300BF1037BD4680BD0000F5
:10170C0080B500AF40F203520021044801F04BFDBC
:10171C00034B00221A8000BF80BD00BFC80400200C
:10172C004C0A002080B582B000AF78601D4B93F856
:10173C000235092B01D900232FE01A4B93F8003501
:10174C00DB01184A13447F227968184601F053FDD7
:10175C00144B93F80035134ADB0113447F330022FA
:10176C001A70104B93F800355A1C0F4B83FB021365
:10177C009910D317C91A0B469B000B445B00D11A66
:10178C00CAB2084B83F80025064B93F80235013397
:10179C00DAB2044B83F80225012318460837BD46FC
:1017AC0080BD00BFC80400206766666680B582B045
:1017BC0000AF78600B467B801C4B93F80235002BF6
:1017CC0001D100232DE0194B93F80135DB01174AA9
:1017DC0099187B88013B1A46786801F00CFD7B88D0
:1017EC00013B7A68134400221A70104B93F80135B0
:1017FC005A1C0F4B83FB02139910D317C91A0B46B3
:10180C009B000B445B00D11ACAB2084B83F801252C
:10181C00064B93F80235013BDAB2044B83F80225F0
:10182C00012318460837BD4680BD00BFC804002000
:10183C006766666680B582B000AF40E07B793E2B70
:10184C000DD1264B1B88002B09D1254B3E221A703B
:10185C00234B00225A702248FFF764FF2FE07B795C
:10186C000D2B02D07B790A2B10D11C4B1B88002B23
:10187C0025D01A4B1B881A46194B0021995418482D
:10188C00FFF750FF154B00221A8018E0134B1B88F2
:10189C007E2B0AD8114B1B885A1C91B20F4A11800F
:1018AC001A4679790E4B995409E00D4B002283F8B6
:1018BC007F200B48FFF736FF084B00221A807B1D58
:1018CC0001211846FFF7B8FE0346FB80FB88002B6E
:1018DC00B4D100BF0837BD4680BD00BF4C0A002004
:1018EC00CC09002080B582B000AF78600B467B80BD
:1018FC007B8819467868FFF759FF03461846083766
:10190C00BD4680BD80B400AF034B93F8023518463A
:10191C00BD4680BC704700BFC804002080B582B0B3
:10192C0000AF78607868FEF70BFC03469BB2194653
:10193C007868FFF7C9FE00BF0837BD4680BD90B57B
:10194C0085B000AF78600023FB8109E0FB897A68E1
:10195C0013441B781846FFF783FEFB890133FB8188
:10196C00FC897868FEF7ECFB03469C42EED300BF83
:10197C001437BD4690BD80B582B000AF78600B4681
:10198C007B807B68002B02D07B88002B01D100234D
:10199C0014E0FFF7B7FF0346002B01D100230DE045
:1019AC007B8819467868FFF79DFF034683F0010397
:1019BC00DBB2002B01D0002300E0012318460837CE
:1019CC00BD4680BD80B582B000AF78607868FFF707
:1019DC00B6FF0348FFF7B3FF00BF0837BD4680BD15
:1019EC00EC33000880B582B000AF7860042200218F
:1019FC00786801F0D8FB00BF0837BD4680BD0000F9
:101A0C0080B582B000AF786039601E4B00221A7529
:101A1C001C4B002283F814211A4B002283F81A2144
:101A2C00184B00225A70174A7B68D360154A3B68E2
:101A3C001361144B0022A3F81621124B0022A3F8B9
:101A4C001821FFF72BFC02460E4B5A600D4B00225F
:101A5C009A600C4B00221A700A4B4FF40072C3F8B8
:101A6C00A021084B0022C3F89C21064B0022C3F88E
:101A7C00A421044B002283F8A82100BF0837BD46DF
:101A8C0080BD00BF700C002080B582B000AF7860C4
:101A9C003960FFF703FC02467B68D21A3B689A4216
:101AAC002CBF01230023DBB218460837BD4680BD8E
:101ABC0080B582B000AF78603960244A7B68C2F888
:101ACC006031224A3B68C2F86431204B002283F813
:101ADC005121FFF7E3FB02461C4BC3F854211B4B6F
:101AEC00002283F85021194B0022C3F85821174BC0
:101AFC00002283F85C21154B00221A70134B002234
:101B0C009A70124B002283F88420104B3C2283F8ED
:101B1C00C4200E4B40F25B72A3F882200B4B0022C8
:101B2C0083F8C820094B0022A3F84C21074B002254
:101B3C00C3F84821054B002283F84E21034B0022A9
:101B4C0083F84F2100BF0837BD4680BD1C0E002016
:101B5C0080B582B000AF344B1B78012B14D0142B02
:101B6C005AD0002B5AD13148FFF7E9FE3048FFF725
:101B7C00D5FEFFF793FB02462B4BC3F854212A4B9F
:101B8C0001221A7001234AE00023FB7127E0294847
:101B9C00FFF718FF2849274800F0FAFF0346002BEF
:101BAC001AD0254B1B78002B0DD11F4B00221A701D
:101BBC00FFF774FB02461C4BC3F854211D48FFF77A
:101BCC0011FF00232BE01C4B1B78012B04D1164B6F
:101BDC0014221A700123FB711648FFF703FFC8216A
:101BEC001448FFF7C8FE0346002BD0D1FB7983F0D5
:101BFC000103DBB2002B0DD00B4BD3F8543141F267
:101C0C0088311846FFF740FF0346002B02D0064BE5
:101C1C0014221A70012302E0002300E0012318466D
:101C2C000837BD4680BD00BF1C0E0020F0330008F5
:101C3C0004340008200B0020200C002080B500AFDD
:101C4C000C4B93F85031002B02D0012B0DD00FE030
:101C5C00FFF77EFF034683F00103DBB2002B06D0B7
:101C6C00044B012283F8502101E000BF00E000BFCB
:101C7C0000BF80BD1C0E002080B582B000AF786024
:101C8C003960FFF70BFB02467B68D21A3B689A421D
:101C9C002CBF01230023DBB218460837BD4680BD9C
:101CAC0080B582B000AF78603960182200210A48F4
:101CBC0001F079FA084A7B68D360074A3B681361E4
:101CCC00054B00221A75FFF7E9FA0246024B5A60DF
:101CDC0000BF0837BD4680BD840F002080B582B0A0
:101CEC0000AFD24B1B78642B00F2BD8301A252F8DB
:101CFC0023F000BF951E0008BB1E0008571F0008EC
:101D0C00771F00081320000833200008FB20000870
:101D1C001B210008B7210008D721000873220008F6
:101D2C00932200086523000885230008732400080B
:101D3C00732400087324000873240008732400081B
:101D4C00732400082124000873240008732400085D
:101D5C0073240008732400087324000873240008FB
:101D6C0073240008732400087324000873240008EB
:101D7C0073240008732400087324000873240008DB
:101D8C0073240008732400087324000873240008CB
:101D9C0073240008732400087324000873240008BB
:101DAC0073240008732400087324000873240008AB
:101DBC00732400087324000873240008732400089B
:101DCC00732400087324000873240008732400088B
:101DDC00732400087324000873240008732400087B
:101DEC00732400087324000873240008732400086B
:101DFC00732400087324000873240008732400085B
:101E0C00732400087324000873240008732400084A
:101E1C00732400087324000873240008732400083A
:101E2C00732400087324000873240008732400082A
:101E3C00732400087324000873240008732400081A
:101E4C00732400087324000873240008732400080A
:101E5C0073240008732400087324000873240008FA
:101E6C0073240008732400087324000873240008EA
:101E7C0073240008732400087324000873240008DA
:101E8C00732400086F240008684B00225A706848BD
:101E9C00FFF755FD6748FFF741FDFFF7FFF90246D5
:101EAC00624B5A60614B01221A700023E3E200235B
:101EBC00FB712BE06048FFF785FD60495E4800F040
:101ECC0067FE0346002B1ED05C4B1B78002B0DD1FC
:101EDC00564B02221A70FFF7E1F90246534B5A6037
:101EEC000123FB715448FFF77DFD16E0534B1B7823
:101EFC00012B08D14D4B14221A700123FB714E4853
:101F0C00FFF770FD09E04C48FFF76CFD80214A4853
:101F1C00FFF731FD0346002BCCD1FB7983F0010395
:101F2C00DBB2002B0FD0414B5B6842F210711846AC
:101F3C00FFF7A2FE0346002B05D04148FFF7FFFC3C
:101F4C003A4B14221A70002395E23E48FFF7F7FC37
:101F5C003D48FFF7E3FCFFF7A1F90246334B5A600B
:101F6C00324B03221A70002385E20023BB712BE055
:101F7C003148FFF727FD31492F4800F009FE034691
:101F8C00002B1ED02D4B1B78032B0DD1274B04227D
:101F9C001A70FFF783F90246244B5A600123BB7178
:101FAC002548FFF71FFD16E0244B1B78012B08D1A9
:101FBC001E4B14221A700123BB711F48FFF712FD30
:101FCC0009E01D48FFF70EFD80211B48FFF7D3FCED
:101FDC000346002BCCD1BB7983F00103DBB2002B81
:101FEC000FD0124B5B6842F210711846FFF744FE9B
:101FFC000346002B05D01548FFF7A1FC0B4B142210
:10200C001A70002337E21248FFF799FC1148FFF7CA
:10201C0085FCFFF743F90246044B5A60034B05223B
:10202C001A70002327E200237B7141E0840F00200B
:10203C001434000824340008500A0020D00A002070
:10204C002C3400083C3400084C3400085834000888
:10205C00683400087C340008B248FFF7B3FCB2497E
:10206C00B04800F095FD0346002B1ED0AE4B1B78FC
:10207C00042B0DD1AD4B06221A70FFF70FF9024657
:10208C00AA4B5A6001237B71A648FFF7ABFC16E004
:10209C00A54B1B78012B08D1A44B14221A700123D9
:1020AC007B71A048FFF79EFC09E09E48FFF79AFC65
:1020BC0080219C48FFF75FFC0346002BCCD17B7939
:1020CC0083F00103DBB2002B0FD0984B5B6842F21C
:1020DC0010711846FFF7D0FD0346002B05D094482D
:1020EC00FFF72DFC914B14221A700023C3E1914889
:1020FC00FFF725FC9048FFF711FCFFF7CFF80246DD
:10210C008A4B5A60894B07221A700023B3E10023D3
:10211C003B712BE08348FFF755FC8349814800F065
:10212C0037FD0346002B1ED07F4B1B78002B0DD1A7
:10213C007E4B08221A70FFF7B1F802467B4B5A60AF
:10214C0001233B717748FFF74DFC16E0764B1B786B
:10215C00012B08D1754B14221A7001233B71714865
:10216C00FFF740FC09E06F48FFF73CFC80216D480D
:10217C00FFF701FC0346002BCCD13B7983F0010324
:10218C00DBB2002B0FD0694B5B6842F21071184622
:10219C00FFF772FD0346002B05D06848FFF7CFFB15
:1021AC00624B14221A70002365E16548FFF7C7FBE8
:1021BC006448FFF7B3FBFFF771F802465B4B5A60BC
:1021CC005A4B09221A70002355E10023FB702BE0B7
:1021DC005448FFF7F7FB5449524800F0D9FC03462A
:1021EC00002B1ED0504B1B78002B0DD14F4B0A22CD
:1021FC001A70FFF753F802464C4B5A600123FB70E0
:10220C004848FFF7EFFB16E0474B1B78012B08D132
:10221C00464B14221A700123FB704248FFF7E2FB75
:10222C0009E04048FFF7DEFB80213E48FFF7A3FBA7
:10223C000346002BCCD1FB7883F00103DBB2002BDF
:10224C000FD03A4B5B6842F210711846FFF714FD41
:10225C000346002B05D03C48FFF771FB334B14228F
:10226C001A70002307E13948FFF769FB3848FFF77C
:10227C0055FBFFF713F802462C4B5A602B4B0B22E5
:10228C001A700023F7E00023BB702BE02548FFF702
:10229C0099FB2549234800F07BFC0346002B1ED0FC
:1022AC00214B1B78002B0DD1204B0C221A70FEF702
:1022BC00F5FF02461D4B5A600123BB701948FFF70E
:1022CC0091FB16E0184B1B78012B08D1174B1422ED
:1022DC001A700123BB701348FFF784FB09E0114807
:1022EC00FFF780FB80210F48FFF745FB0346002BCF
:1022FC00CCD1BB7883F00103DBB2002B0FD00B4B9E
:10230C005B6842F210711846FFF7B6FC0346002BCF
:10231C0005D01048FFF713FB044B14221A7000234E
:10232C00A9E000BF500A0020D00A0020840F002032
:10233C008834000898340008AC340008B83400081D
:10234C00C8340008DC340008EC340008FC34000805
:10235C0014350008303500084948FFF7F0FA4948B1
:10236C00FFF7DCFAFEF79AFF0246474B5A60464BE2
:10237C000D221A7000237EE000237B702BE0434873
:10238C00FFF720FB4249414800F002FC0346002BBA
:10239C001ED03F4B1B78002B0DD13B4B64221A7087
:1023AC00FEF77CFF0246384B5A6001237B7037489E
:1023BC00FFF718FB16E0364B1B78012B08D1324B7C
:1023CC0014221A7001237B703048FFF70BFB09E0D5
:1023DC002E48FFF707FB80212C48FFF7CCFA034669
:1023EC00002BCCD17B7883F00103DBB2002B0FD018
:1023FC00254B5B6842F210711846FFF73DFC034613
:10240C00002B05D02348FFF79AFA1F4B14221A70A1
:10241C00002330E01C4B5B780133DAB21A4B5A7054
:10242C00194B5B78032B0FD91B48FFF788FA164B17
:10243C001B69002B04D0144B1B6901210020984709
:10244C00114B64221A700AE01448FFF778FA0E4B0D
:10245C0000221A70FEF722FF02460B4B5A60002333
:10246C0009E0012307E000BF074B1B78642B0CBF6E
:10247C0001230023DBB218460837BD4680BD00BFE0
:10248C00403500085C350008840F0020500A0020FD
:10249C00D00A00206835000878350008903500080F
:1024AC0080B500AF174B1B7D012B15D0022B20D014
:1024BC00002B00D024E0FFF711FC0346002B1CD0AE
:1024CC00104B01221A750F4B00221A70FEF7E6FE14
:1024DC0002460C4B5A6010E000F028F80346002B23
:1024EC000DD0084B1B78642B09D1064B02221A75B0
:1024FC0005E00548FFF723FA02E000BF00E000BF4B
:10250C0000BF80BD840F00209C35000880B400AF54
:10251C00054B1B78642B0CBF01230023DBB2184640
:10252C00BD4680BC704700BF840F002080B582B0D0
:10253C0000AFCC4B1B78642B00F29E8201A252F8A8
:10254C0023F000BFE52600080B270008AD27000884
:10255C00CD2700089D280008BD2800085F29000829
:10256C007F290008852A0008852A0008852A00088A
:10257C00852A0008852A0008852A0008852A000873
:10258C00852A0008852A0008852A0008852A000863
:10259C00852A0008332A0008852A0008852A0008A5
:1025AC00852A0008852A0008852A0008852A000843
:1025BC00852A0008852A0008852A0008852A000833
:1025CC00852A0008852A0008852A0008852A000823
:1025DC00852A0008852A0008852A0008852A000813
:1025EC00852A0008852A0008852A0008852A000803
:1025FC00852A0008852A0008852A0008852A0008F3
:10260C00852A0008852A0008852A0008852A0008E2
:10261C00852A0008852A0008852A0008852A0008D2
:10262C00852A0008852A0008852A0008852A0008C2
:10263C00852A0008852A0008852A0008852A0008B2
:10264C00852A0008852A0008852A0008852A0008A2
:10265C00852A0008852A0008852A0008852A000892
:10266C00852A0008852A0008852A0008852A000882
:10267C00852A0008852A0008852A0008852A000872
:10268C00852A0008852A0008852A0008852A000862
:10269C00852A0008852A0008852A0008852A000852
:1026AC00852A0008852A0008852A0008852A000842
:1026BC00852A0008852A0008852A0008852A000832
:1026CC00852A0008852A0008852A0008852A000822
:1026DC00852A0008812A0008624B00225A70624841
:1026EC00FFF72DF96148FFF719F9FEF7D7FD024600
:1026FC005C4B5A605B4B01221A700023C4E100232F
:10270C00FB712EE05A48FFF75DF95A49584800F022
:10271C003FFA0346002B21D0564B1B78002B0DD1D2
:10272C00504B02221A70FEF7B9FD02464D4B5A600F
:10273C000123FB714E48FFF755F919E04D4B1B78FF
:10274C00012B0BD14C48FFF7FAF8464B14221A70A8
:10275C000123FB714648FFF745F909E04448FFF7B0
:10276C0041F980214248FFF706F90346002BC9D1F5
:10277C00FB7983F00103DBB2002B0FD0394B5B6884
:10278C0042F210711846FFF777FA0346002B05D07A
:10279C003A48FFF7D4F8334B14221A70002373E134
:1027AC003748FFF7CCF83748FFF7B8F8FEF776FD57
:1027BC0002462C4B5A602B4B03221A70002363E108
:1027CC000023BB712EE02A48FFF7FCF82949284862
:1027DC0000F0DEF90346002B21D0264B1B78002B92
:1027EC000DD1204B04221A70FEF758FD02461D4BEA
:1027FC005A600123BB711E48FFF7F4F819E01D4B1A
:10280C001B78012B0BD12048FFF799F8154B14229C
:10281C001A700123BB711648FFF7E4F809E014485D
:10282C00FFF7E0F880211248FFF7A5F80346002BCC
:10283C00C9D1BB7983F00103DBB2002B0FD0094B5C
:10284C005B6842F210711846FFF716FA0346002B2C
:10285C0005D00E48FFF773F8024B14221A700023B0
:10286C0012E100BF840F0020BC350008CC350008F5
:10287C00500A0020D00A0020DC350008F035000892
:10288C0004360008183600083C360008503600089C
:10289C007F48FFF754F87F48FFF740F8FEF7FEFC3F
:1028AC0002467D4B5A607C4B05221A700023EBE0EC
:1028BC0000237B712EE07948FFF784F8784977483C
:1028CC0000F066F90346002B21D0754B1B78002BCA
:1028DC000DD1714B06221A70FEF7E0FC02466E4BCE
:1028EC005A6001237B716D48FFF77CF819E06C4B43
:1028FC001B78012B0BD16B48FFF721F8664B142288
:10290C001A7001237B716548FFF76CF809E0634886
:10291C00FFF768F880216148FFF72DF80346002B7C
:10292C00C9D17B7983F00103DBB2002B0FD05A4B5A
:10293C005B6842F210711846FFF79EF90346002BB4
:10294C0005D05948FEF7FBFF534B14221A70002395
:10295C009AE05648FEF7F3FF5548FEF7DFFFFEF707
:10296C009DFC02464C4B5A604B4B07221A700023BD
:10297C008AE000233B710023FB702DE04748FFF7F2
:10298C0021F84C49454800F04BFC0346002B01D084
:10299C0001233B714249414800F0FAF80346002BF1
:1029AC0017D03F4B1B78002B05D10123FB703B4804
:1029BC00FFF718F80DE03A4B1B78012B09D13E4874
:1029CC00FEF7BDFF344B14221A703448FFF70AF897
:1029DC005AE03248FFF706F880213048FEF7CBFF6B
:1029EC000346002BCAD13B79002B0AD0FB78002B75
:1029FC0007D03248FEF7A3FF274B64221A7001233D
:102A0C0042E0254B5B6841F288311846FFF734F9F8
:102A1C000346002B05D02A48FEF791FF1E4B1422CB
:102A2C001A70002330E01C4B5B780133DAB21A4B7E
:102A3C005A70194B5B78032B0FD92248FEF77FFF96
:102A4C00154B1B69002B04D0134B1B690121002073
:102A5C009847114B64221A700AE01B48FEF76FFF6F
:102A6C000D4B00221A70FEF719FC02460A4B5A60F5
:102A7C00002309E0012307E000BF074B1B78642B00
:102A8C000CBF01230023DBB218460837BD4680BDBE
:102A9C006436000878360008840F0020500A0020A5
:102AAC00D00A0020883600089C360008B036000892
:102ABC00C0360008D0360008DC360008F0360008B6
:102ACC0010370008243700084037000880B582B062
:102ADC0000AF78603960134A7B68D360114A3B6859
:102AEC001361104B00221A70FEF7D8FB02460D4BF7
:102AFC005A600C4B00229A600A4B00225A70094B08
:102B0C0000221A75074B002283F82820054B00225F
:102B1C0083F8C8200448FEF701FF00BF0837BD4604
:102B2C0080BD00BF9C0F00205037000880B582B0DC
:102B3C0000AF786039600F4B00221A700D4B0022E9
:102B4C005A70FEF7ABFB02460A4B5A60094B002247
:102B5C009A60084A7B68D360064A3B681361054B50
:102B6C0000221A75034B002283F8282000BF083777
:102B7C00BD4680BD6810002080B582B000AF786083
:102B8C00786800F0DDFA034618460837BD4680BD6C
:102B9C0080B598B000AF786039607B68002B02D0AC
:102BAC003B68002B01D10023BBE250220021386886
:102BBC0000F0F9FA3B680D221A707868FDF7C0FA3C
:102BCC00F86502E0FB6D013BFB65FB6D002B0DD046
:102BDC00FB6D013B7A6813441B780D2BF2D0FB6D17
:102BEC00013B7A6813441B780A2BEBD0FB6D002B4E
:102BFC0001D1002395E2FB6D012B08D97B681B7872
:102C0C00412B04D17B6801331B78542B0AD0FB6D0C
:102C1C00022B09D903229B49786800F0DAFA0346A3
:102C2C00002B01D100237CE2FB6D022B0DD17B68C4
:102C3C001B784F2B09D17B6801331B784B2B04D1AC
:102C4C003B6800221A7001236BE2FB6D052B0CD143
:102C5C0005228D49786800F0BCFA0346002B04D19C
:102C6C003B6801221A7001235BE2FB6D0A2B21D910
:102C7C000B228649786800F0ACFA0346002B19D178
:102C8C007B680B33BB6502E0BB6D0133BB65BB6D71
:102C9C001B78202BF8D0BB6D1B78092BF4D0B86DAA
:102CAC00FFF76AFF02463B685A603B6802221A70C3
:102CBC00012336E2FB6D052B19D90622744978687D
:102CCC0000F087FA0346002B11D1FB6D0B2B0ED9AC
:102CDC007B68073305226F49184600F07AFA0346E1
:102CEC00002B04D13B6803221A70012319E2FB6DFF
:102CFC00052B3DD906226849786800F06AFA03462C
:102D0C00002B35D17B6806337B653B684FF0FF3277
:102D1C005A603B684FF0FF329A6002E07B6D0133E2
:102D2C007B657B6D1B783A2BF8D07B6D1B78202B49
:102D3C00F4D07B6D1B78092BF0D0786DFFF71CFF5E
:102D4C0002463B685A602C21786D00F034FA7862A8
:102D5C007B6A002B07D07B6A01331846FFF70CFF08
:102D6C0002463B689A603B6804221A700123D8E142
:102D7C00FB6D062B3DD907224849786800F029FAEB
:102D8C000346002B35D17B6807333B653B684FF01E
:102D9C00FF325A603B684FF0FF329A6002E03B6DA5
:102DAC0001333B653B6D1B783A2BF8D03B6D1B78A0
:102DBC00202BF4D03B6D1B78092BF0D0386DFFF72E
:102DCC00DBFE02463B685A602C21386D00F0F3F9AB
:102DDC0038623B6A002B07D03B6A01331846FFF779
:102DEC00CBFE02463B689A603B6805221A700123B1
:102DFC0097E1FB6D042B35D905222949786800F041
:102E0C00E8F90346002B2DD17B680533FB6402E007
:102E1C00FB6C0133FB64FB6C1B783A2BF8D0FB6C1E
:102E2C001B78202BF4D0FB6C1B78092BF0D0F86CA2
:102E3C00FFF7A2FE02463B685A602C21F86C00F0AA
:102E4C00BAF9F861FB69002B07D0FB69013318460E
:102E5C00FFF792FE02463B689A603B6806221A70A6
:102E6C0001235EE1FB6D092B1ED90B220D497868FD
:102E7C0000F0AFF90346002B16D13B6807221A70FD
:102E8C0001234EE1A8370008AC370008B43700081E
:102E9C00C0370008C8370008D0370008D8370008FA
:102EAC00E0370008E8370008FB6D052B47D90622F0
:102EBC009E49786800F08DF90346002B3FD1222102
:102ECC00786800F078F9B861BB69002B32D0BB6927
:102EDC0001332221184600F06EF978617B69002BD2
:102EEC0028D07B69BA6901329B1ABB64BB6C3F2B3F
:102EFC0001D93F23BB643B6803F11000BB6901336C
:102F0C00BA6C194600F044F93A68BB6C13441033A0
:102F1C0000221A702C21786900F04DF938613B6958
:102F2C00002B07D03B6901331846FFF725FE0246FC
:102F3C003B685A603B6808221A700123F1E0FB6D74
:102F4C00052B50D906227A49786800F042F90346DD
:102F5C00002B48D17B6806337B6400233B64002341
:102F6C00FB630023BB6319E07B6C1B78222B12D113
:102F7C003B6C01333B643B6C032B03D17B6C013307
:102F8C00FB6308E03B6C042B05D1FB6B002B02D0E0
:102F9C007B6CBB6306E07B6C01337B647B6C1B78C6
:102FAC00002BE1D1FB6B002B18D0BB6B002B15D089
:102FBC00BA6BFB6BD31A7B637B6B3F2B01D93F2323
:102FCC007B633B6810337A6BF96B184600F0E0F8C2
:102FDC003A687B6B1344103300221A703B68092249
:102FEC001A7001239DE0FB6D052B25D90622514952
:102FFC00786800F0EEF80346002B1DD17B68063391
:10300C003B6302E03B6B01333B633B6B1B783A2B1E
:10301C00F8D03B6B1B78202BF4D03B6B1B78092B27
:10302C00F0D0386BFFF7A8FD02463B685A603B684E
:10303C000A221A70012374E0FB6D0B2B47D90C226A
:10304C003D49786800F0C5F80346002B3FD17B68FA
:10305C000C33FB6202E0FB6A0133FB62FB6A1B78F8
:10306C003A2BF8D0FB6A1B78202BF4D0FB6A1B7828
:10307C00092BF0D0F86AFFF77FFD02463B685A60D7
:10308C002C21F86A00F097F8F860FB68002B19D037
:10309C00FB6801331846FFF76FFD02463B689A60E8
:1030AC00FB6801332C21184600F085F8B860BB682A
:1030BC00002B07D0BB6801331846FFF75DFD0246B5
:1030CC003B68DA603B680B221A70012329E0FB6D28
:1030DC00092B25D90A221949786800F07AF8034699
:1030EC00002B1DD17B680A33BB6202E0BB6A013343
:1030FC00BB62BB6A1B783A2BF8D0BB6A1B78202BBF
:10310C00F4D0BB6A1B78092BF0D0B86AFFF734FDFA
:10311C0002463B685A603B680C221A70012300E09F
:10312C00002318466037BD4680BD00BFF437000849
:10313C00FC370008043800080C3800081C3800085C
:10314C000A22002100F008B970B500250C4E0D4C78
:10315C00A41BA410A54209D100F036F900250A4E93
:10316C000A4CA41BA410A54205D170BD56F82530FD
:10317C0098470135EEE756F8253098470135F2E7C8
:10318C00343900083439000834390008383900085B
:10319C0010B5431E0A44914200D110BD11F8014BE9
:1031AC0003F8014FF7E703460244934200D17047FE
:1031BC0003F8011BF9E7C9B2034610F8012B1AB149
:1031CC009142F9D11846704700290CBF18460020CF
:1031DC00704710B56AB10139841810F8013B11F829
:1031EC00012F934203D1A04201D0002BF5D1981AA4
:1031FC0010BD104610BD70B5044602B970BD234613
:10320C0011F8015B561E03F8015B1DB91444A3426F
:10321C0003D170BD1C463246EFE703F8015BF6E7BD
:10322C00F0B5037833B1034618465E1C1B7833B9EE
:10323C001846F0BD0B78002B18BF0020F0BD4D1EBA
:10324C00441E15F8012F002AF3D014F8017F3346E1
:10325C009742F6D0E8E72DE9F84F8046894692462A
:10326C001F468B465D460A9815F8014B00F08AF80C
:10327C002044467816F008060BD12D2C0BD10126D4
:10328C002C780BF1020567B1102F14D1302C0AD019
:10329C0011E0AB46E6E72B2C04BF2C780BF10205B2
:1032AC00F1E7302C27D12B7803F0DF03582B4BD1CF
:1032BC0010276C780235002E0CBF6FF000414FF0D8
:1032CC0000410022B1FBF7FE104607FB1E1CA4F1C7
:1032DC003003092B11D81C46A7421DDD531C07D007
:1032EC00864516D301D1A44513DB012200FB074010
:1032FC0015F8014BEBE70A27DDE7A4F14103192B85
:10330C0001D8373CE8E7A4F16103192B04D8573CEA
:10331C00E2E74FF0FF32EBE7531C08D122230846BB
:10332C00C8F80030BAF1000F07D1BDE8F88F06B12C
:10333C004042BAF1000F0CD022B1013DCAF8005046
:10334C00BDE8F88F4D46F9E73024002FB3D108279C
:10335C00B1E7BDE8F88F0000084B37B51C68084D85
:10336C00236A002B08BF2B46009313460A460146DE
:10337C002046FFF770FF03B030BD00BF28000020CF
:10338C001C010020D0F8EC00704782B001B901A9F3
:10339C0042B14BB113780B601278101C18BF01208E
:1033AC0002B070471046FBE76FF00100F8E749B137
:1033BC00FF2A8BBF8A230A700360012088BF4FF05D
:1033CC00FF30704708467047F8B500BFF8BC08BC22
:1033DC009E467047F8B500BFF8BC08BC9E467047C7
:1033EC000D0A00003E3E3E206D71747420737461B2
:1033FC0072740D0A0000000041542B434D5154547B
:10340C0053544152540D0A003E3E3E20636865639E
:10341C006B2041540D0A000041540D0A00000000BD
:10342C0074696D65206F75742041540D0A0000009D
:10343C003E3E3E20636865636B2053494D0D0A0088
:10344C0041542B4350494E3F0D0A000074696D6581
:10345C00206F7574204350494E0D0A003E3E3E20AD
:10346C00636865636B20435245470D0A00000000FA
:10347C0041542B435245473F0D0A000074696D655A
:10348C00206F757420435245470D0A003E3E3E2086
:10349C00534D532074657874206D6F64650D0A006C
:1034AC0041542B434D47463D310D0A0074696D65FF
:1034BC00206F757420434D47460D0A003E3E3E205A
:1034CC00636861727365742047534D0D0A000000E8
:1034DC0041542B435343533D2247534D220D0A0075
:1034EC0074696D65206F757420435343530D0A0046
:1034FC003E3E3E2073656C6563742073746F72611D
:10350C0067650D0A0000000041542B43504D533D9C
:10351C00224D45222C224D45222C224D45220D0AAE
:10352C000000000074696D65206F75742043504D68
:10353C00530D0A003E3E3E20656E61626C65206450
:10354C00657461696C206572726F720D0A000000FF
:10355C0041542B434D45453D310D0A0074696D6551
:10356C00206F757420434D45450D0A006E7720661B
:10357C0061696C20616674657220332072657472A7
:10358C00790D0A0072657472792E2E2E0D0A0000C8
:10359C003E3E3E3E206361752068696E68206D6119
:1035AC006E6720646120736F6E67200D0A00000047
:1035BC003E3E3E2073657420677072730D0A0000E6
:1035CC0041542B43474154543D310D0A0000000037
:1035DC003E3E3E204347415454204552524F520DDB
:1035EC000A00000074696D65206F757420434741B3
:1035FC0054540D0A000000003E3E3E206B68616989
:10360C002062616F205044500D0A000041542B433E
:10361C004744434F4E543D312C224950222C2276A4
:10362C002D696E7465726E6574220D0A00000000BF
:10363C003E3E3E20434744434F4E54204552524F4A
:10364C00520D0A0074696D65206F757420434744F0
:10365C00434F4E540D0A00003E3E3E206163746998
:10366C0076617465205044500D0A000041542B4380
:10367C00474143543D312C310D0A00003E3E3E2063
:10368C004347414354204552524F520D0A0000000B
:10369C0074696D65206F75742043474143540D0A5E
:1036AC00000000003E3E3E20636865636B2049507D
:1036BC000D0A000041542B434750414444523D31C4
:1036CC000D0A00002B434750414444523A0000007D
:1036DC003E3E3E2043475041444452204552524FB7
:1036EC00520D0A003E3E3E20495020636F6E6669C3
:1036FC00726D65642C204750525320726561647959
:10370C000D0A000074696D65206F7574206368651F
:10371C00636B2049500D0A006E77204C544520668F
:10372C0061696C20616674657220332072657472F5
:10373C00790D0A007265747279204C54452E2E2E28
:10374C000D0A000041542B434E4D493D322C312C77
:10375C00302C302C300D0A0041542B434D47523D38
:10376C0025640D0A0000000041542B434D47443D95
:10377C0025640D0A000000007468617420626169A0
:10378C002064612072657472792033200D0A000068
:10379C0072657472792E2E2E0D0A000041542B0086
:1037AC004552524F520000002B434D45204552527A
:1037BC004F523A002B4350494E3A00005245414477
:1037CC00590000002B435245473A00002B43475207
:1037DC0045473A002B4353513A0000002B504450BC
:1037EC003A204445414354002B434D54493A000080
:1037FC002B434D47523A00002B434D47533A0000A0
:10380C002B48545450414354494F4E3A0000000049
:10381C002B48545450524541443A004300504F53A6
:10382C004958002E00002020202020202020202875
:10383C00282828282020202020202020202020205C
:10384C002020202020208810101010101010101094
:10385C0010101010101004040404040404040404D4
:10386C001010101010101041414141414101010153
:10387C00010101010101010101010101010101012C
:10388C000110101010101042424242424202020239
:10389C0002020202020202020202020202020202FC
:1038AC0002101010102000000000000000000000AA
:1038BC0000000000000000000000000000000000FC
:1038CC0000000000000000000000000000000000EC
:1038DC0000000000000000000000000000000000DC
:1038EC0000000000000000000000000000000000CC
:1038FC0000000000000000000000000000000000BC
:10390C0000000000000000000000000000000000AB
:10391C00000000000000000000000000000000009B
:08392C00000000000000000093
:043934003101000855
:043938000D01000875
:10393C000000000001020304010203040607080949
:10394C000204060800A24A04000000000000000067
:10395C0001020304060708092C00002000000000E7
:10396C00000000000000000000000000000000004B
:10397C00000000000000000000000000000000003B
:10398C00000000000000000000000000000000002B
:10399C00000000000000000000000000000000001B
:1039AC00000000000000000000000000000000000B
:1039BC0000000000000000000000000000000000FB
:1039CC0000000000000000000000000000000000EB
:1039DC0000000000000000000000000000000000DB
:1039EC0000000000000000000000000000000000CB
:1039FC0000000000000000000000000000000000BB
:103A0C0000000000000000000000000000000000AA
:103A1C00000000000000000000000000000000009A
:103A2C00000000000000000000000000000000008A
:103A3C00000000000000000000000000000000007A
:103A4C000000000000000000000000004300000027
:103A5C00000000000000000000000000000000005A
:103A6C000000000000000000000000004300000007
:103A7C00000000000000000000000000000000003A
:103A8C0000000000000000000000000043000000E7
:103A9C00000000000000000000000000000000001A
:103AAC0000000000000000000000000043000000C7
:103ABC0000000000000000000000000000000000FA
:103ACC0000000000000000000000000043000000A7
:103ADC0000000000000000000000000000000000DA
:103AEC000000000000000000000000004300000087
:103AFC0000000000000000000000000000000000BA
:103B0C000000000000000000000000004300000066
:103B1C000000000000000000000000000000000099
:103B2C00000000000000000000000000BB33000893
:103B3C009733000800000000313800082F380008C7
:103B4C0030380008303800083038000830380008A9
:103B5C003038000830380008303800083038000899
:103B6C0030380008FFFFFFFFFFFFFFFFFFFFFFFFE5
:103B7C00FFFF0000010041534349490000000000D1
:103B8C000000000000000000000000000000000029
:103B9C0000000000000041534349490000000000B0
:103BAC000000000000000000000000000000000009
:083BBC00000000000000000001
:0400000508000BE9FB
:00000001FF
