:020000040800F2
:1000000000500020811A0008D31A0008DF1A0008E7
:10001000E51A0008EB1A0008F11A000800000000B9
:10002000000000000000000000000000F71A0008B7
:10003000031B0008000000000F1B00081B1B00082A
:10004000D11A0008D11A0008D11A0008D11A0008E4
:10005000D11A0008D11A0008D11A0008D11A0008D4
:10006000D11A0008D11A0008D11A0008D11A0008C4
:10007000D11A0008D11A0008D11A0008D11A0008B4
:10008000D11A0008D11A0008D11A0008D11A0008A4
:10009000D11A0008D11A0008D11A0008D11A000894
:1000A000D11A0008D11A0008D11A0008D11A000884
:1000B000D11A0008D11A0008D11A0008D11A000874
:1000C000D11A0008D11A0008D11A0008D11A000864
:1000D000D11A0008291B0008691B0008D11A000862
:1000E000D11A0008D11A0008D11A00080000000037
:1000F0000000000000000000000000000000000000
:0C01000000000000000000005FF808F1A3
:1001100010B5054C237833B9044B13B10448AFF341
:1001200000800123237010BD9C0600200000000009
:10013000FCB0000808B5034B1BB103490348AFF3FB
:10014000008008BD00000000A0060020FCB00008F0
:10015000034613F8012B002AFBD1181A0138704707
:1001600081F0004102E000BF83F0004330B54FEA68
:1001700041044FEA430594EA050F08BF90EA020FD5
:100180001FBF54EA000C55EA020C7FEA645C7FEA68
:10019000655C00F0E2804FEA5454D4EB5555B8BF8B
:1001A0006D420CDD2C4480EA020281EA030382EAFC
:1001B000000083EA010180EA020281EA0303362D8E
:1001C00088BF30BD11F0004F4FEA01314FF4801C61
:1001D0004CEA113102D0404261EB410113F0004F73
:1001E0004FEA03334CEA133302D0524263EB43032A
:1001F00094EA050F00F0A780A4F10104D5F1200EC8
:100200000DDB02FA0EFC22FA05F2801841F1000122
:1002100003FA0EF2801843FA05F359410EE0A5F1F6
:1002200020050EF1200E012A03FA0EFC28BF4CF027
:10023000020C43FA05F3C01851EBE37101F00045DD
:1002400007D54FF0000EDCF1000C7EEB00006EEBEA
:100250000101B1F5801F1BD3B1F5001F0CD3490874
:100260005FEA30004FEA3C0C04F101044FEA4452CB
:1002700012F5800F80F09A80BCF1004F08BF5FEA52
:10028000500C50F1000041EB045141EA050130BD32
:100290005FEA4C0C404141EB010111F4801FA4F1D5
:1002A0000104E9D191F0000F04BF01460020B1FA2A
:1002B00081F308BF2033A3F10B03B3F120020CDA62
:1002C0000C3208DD02F1140CC2F10C0201FA0CF040
:1002D00021FA02F10CE002F11402D8BFC2F1200CA5
:1002E00001FA02F120FA0CFCDCBF41EA0C0190405B
:1002F000E41AA2BF01EB0451294330BD6FEA0404A4
:100300001F3C1CDA0C340EDC04F11404C4F120028E
:1003100020FA04F001FA02F340EA030021FA04F3A0
:1003200045EA030130BDC4F10C04C4F1200220FAF7
:1003300002F001FA04F340EA0300294630BD21FA35
:1003400004F0294630BD94F0000F83F4801306BFFB
:1003500081F480110134013D4EE77FEA645C18BFEF
:100360007FEA655C29D094EA050F08BF90EA020F86
:1003700005D054EA000C04BF1946104630BD91EA7E
:10038000030F1EBF0021002030BD5FEA545C05D181
:100390004000494128BF41F0004130BD14F58004C0
:1003A0003CBF01F5801130BD01F0004545F0FE4134
:1003B00041F470014FF0000030BD7FEA645C1ABF69
:1003C000194610467FEA655C1CBF0B46024650EAA0
:1003D000013406BF52EA033591EA030F41F40021CC
:1003E00030BD00BF90F0000F04BF0021704730B552
:1003F0004FF4806404F132044FF000054FF0000127
:1004000050E700BF90F0000F04BF0021704730B5E7
:100410004FF4806404F1320410F0004548BF4042BC
:100420004FF000013EE700BF42004FEAE2014FEA11
:1004300031014FEA02701FBF12F07F4393F07F4FEC
:1004400081F06051704792F0000F14BF93F07F4F1E
:10045000704730B54FF4607401F0004521F0004161
:1004600020E700BF50EA010208BF704730B54FF0E7
:1004700000050AE050EA010208BF704730B511F0EC
:10048000004502D5404261EB41014FF4806404F124
:1004900032045FEA915C3FF4DCAE4FF003025FEAA6
:1004A000DC0C18BF03325FEADC0C18BF033202EB2E
:1004B000DC02C2F1200300FA03FC20FA02F001FA88
:1004C00003FE40EA0E0021FA02F11444C1E600BF27
:1004D00070B54FF0FF0C4CF4E06C1CEA11541DBFDA
:1004E0001CEA135594EA0C0F95EA0C0F00F0DEF8A5
:1004F0002C4481EA030621EA4C5123EA4C5350EA8A
:10050000013518BF52EA033541F4801143F48013DA
:1005100038D0A0FB02CE4FF00005E1FB02E506F06B
:100520000042E0FB03E54FF00006E1FB03569CF0C0
:10053000000F18BF4EF0010EA4F1FF04B6F5007FC6
:1005400064F5407404D25FEA4E0E6D4146EB060638
:1005500042EAC62141EA55514FEAC52040EA5E50C1
:100560004FEACE2EB4F1FD0C88BFBCF5E06F1ED86B
:10057000BEF1004F08BF5FEA500E50F1000041EBA2
:10058000045170BD06F0004646EA010140EA02004F
:1005900081EA0301B4EB5C04C2BFD4EB0C0541EA71
:1005A000045170BD41F480114FF0000E013C00F386
:1005B000AB8014F1360FDEBF002001F0004170BDAA
:1005C000C4F10004203C35DA0C341BDC04F11404C3
:1005D000C4F1200500FA05F320FA04F001FA05F24F
:1005E00040EA020001F0004221F0004110EBD3701C
:1005F00021FA04F642EB06015EEA430E08BF20EA48
:10060000D37070BDC4F10C04C4F1200500FA04F3EA
:1006100020FA05F001FA04F240EA020001F000417C
:1006200010EBD37041F100015EEA430E08BF20EAEF
:10063000D37070BDC4F1200500FA05F24EEA020E37
:1006400020FA04F301FA05F243EA020321FA04F066
:1006500001F0004121FA04F220EA020000EBD3701D
:100660005EEA430E08BF20EAD37070BD94F0000F1D
:100670000FD101F00046400041EB010111F4801F51
:1006800008BF013CF7D041EA060195F0000F18BF02
:10069000704703F00046520043EB030313F4801F3E
:1006A00008BF013DF7D043EA0603704794EA0C0FF8
:1006B0000CEA135518BF95EA0C0F0CD050EA41060E
:1006C00018BF52EA4306D1D181EA030101F000418B
:1006D0004FF0000070BD50EA410606BF10461946B3
:1006E00052EA430619D094EA0C0F02D150EA0136BF
:1006F00013D195EA0C0F05D152EA03361CBF104600
:1007000019460AD181EA030101F0004141F0FE419E
:1007100041F470014FF0000070BD41F0FE4141F422
:10072000780170BD70B54FF0FF0C4CF4E06C1CEA22
:1007300011541DBF1CEA135594EA0C0F95EA0C0FD7
:1007400000F0A7F8A4EB050481EA030E52EA033592
:100750004FEA013100F088804FEA03334FF08055B3
:1007600045EA131343EA12634FEA022245EA1115E0
:1007700045EA10654FEA00260EF000419D4208BF91
:10078000964244F1FD0404F5407402D25B084FEA3E
:100790003202B61A65EB03055B084FEA32024FF4EA
:1007A00080104FF4002CB6EB020E75EB030E22BF47
:1007B000B61A754640EA0C005B084FEA3202B6EB07
:1007C000020E75EB030E22BFB61A754640EA5C00B6
:1007D0005B084FEA3202B6EB020E75EB030E22BF46
:1007E000B61A754640EA9C005B084FEA3202B6EB47
:1007F000020E75EB030E22BFB61A754640EADC0006
:1008000055EA060E18D04FEA051545EA16754FEA67
:1008100006164FEAC30343EA52734FEAC2025FEA85
:100820001C1CC0D111F4801F0BD141EA00014FF014
:1008300000004FF0004CB6E711F4801F04BF0143E5
:100840000020B4F1FD0C88BFBCF5E06F3FF6AFAE01
:10085000B5EB030C04BFB6EB020C5FEA500C50F191
:10086000000041EB045170BD0EF0004E4EEA113114
:1008700014EB5C04C2BFD4EB0C0541EA045170BD1B
:1008800041F480114FF0000E013C90E645EA060E5F
:100890008DE60CEA135594EA0C0F08BF95EA0C0F8D
:1008A0003FF43BAF94EA0C0F0AD150EA01347FF4D5
:1008B00034AF95EA0C0F7FF425AF104619462CE7AC
:1008C00095EA0C0F06D152EA03353FF4FDAE10460F
:1008D000194622E750EA410618BF52EA43067FF460
:1008E000C5AE50EA41047FF40DAF52EA43057FF4F0
:1008F000EBAE12E74FF0FF3C06E000BF4FF0010CFB
:1009000002E000BF4FF0010C4DF804CD4FEA410C5E
:100910007FEA6C5C4FEA430C18BF7FEA6C5C1BD02B
:1009200001B050EA410C0CBF52EA430C91EA030FAC
:1009300002BF90EA020F0020704710F1000F91EA09
:10094000030F58BF994208BF90422CBFD8176FEAD7
:10095000E37040F0010070474FEA410C7FEA6C5CA5
:1009600002D150EA013C07D14FEA430C7FEA6C5CAC
:10097000D6D152EA033CD3D05DF8040B704700BFD8
:100980008446104662468C461946634600E000BF26
:1009900001B5FFF7B7FF002848BF10F1000F01BDF8
:1009A0004DF808EDFFF7F4FF0CBF012000205DF8C3
:1009B00008FB00BF4DF808EDFFF7EAFF34BF012048
:1009C00000205DF808FB00BF4DF808EDFFF7E0FFE1
:1009D00094BF012000205DF808FB00BF4DF808ED32
:1009E000FFF7CEFF94BF012000205DF808FB00BF99
:1009F0004DF808EDFFF7C4FF34BF012000205DF87B
:100A000008FB00BF4FEA410C7FEA6C5C02D150EA60
:100A1000013C0AD14FEA430C7FEA6C5C02D152EAF6
:100A2000033C02D14FF0000070474FF001007047C7
:100A30004FEA410212F5001215D211D56FF4787306
:100A4000B3EB625212D94FEAC12343F0004343EAA9
:100A5000505311F0004F23FA02F018BF4042704784
:100A60004FF00000704750EA013005D111F000400E
:100A700008BF6FF0004070474FF00000704700BFA4
:100A80004A0011D212F5001211D20DD56FF478730D
:100A9000B3EB62520ED44FEAC12343F0004343EA62
:100AA000505323FA02F070474FF00000704750EAAD
:100AB000013002D14FF0FF3070474FF00000704717
:100AC0004FEA4102B2F1E04324BFB3F5001CDCF170
:100AD000FE5C0DD901F0004C4FEAC0024CEA5070A8
:100AE000B2F1004F40EB830008BF20F001007047D7
:100AF00011F0804F21D113F13872BCBF01F00040DA
:100B0000704741F480114FEA5252C2F11802C2F10B
:100B1000200C10FA0CF320FA02F018BF40F001008C
:100B20004FEAC1234FEAD32303FA0CFC40EA0C003E
:100B300023FA02F34FEA4303CCE77FEA625307D17B
:100B400050EA01331EBF4FF0FE4040F440007047B2
:100B500001F0004040F0FE4040F40000704700BF4C
:100B600053B94AB9002908BF00281CBF4FF0FF3114
:100B70004FF0FF3000F07AB9ADF1080C6DE904CE0A
:100B800000F006F8DDF804E0DDE9022304B0704768
:100B90002DE9F0478C460E460446089D002B50D1A7
:100BA0008A4217466CD9B2FA82FEBEF1000F0BD012
:100BB000CEF1200C01FA0EF620FA0CFC02FA0EF728
:100BC0004CEA060C00FA0EF43A0CBCFBF2F9BBB28C
:100BD00002FB19CC09FB03FA4FEA144848EA0C4619
:100BE000B2450AD9F61909F1FF3180F02581B245E5
:100BF00040F22281A9F102093E44A6EB0A06B6FBA7
:100C0000F2F002FB106600FB03F3A4B244EA0644D0
:100C1000A34209D9E41900F1FF3280F00B81A3420D
:100C200040F2088102383C440021E41A40EA0940BD
:100C3000002D62D0002324FA0EF42C606B60BDE816
:100C4000F0878B4207D9002D55D0002185E841005F
:100C50000846BDE8F087B3FA83F1002940F08F80A1
:100C6000B34202D3824200F2FC80841A66EB030690
:100C70000120B446002D40D085E81010BDE8F08773
:100C800012B90127B7FBF2F7B7FA87FEBEF1000FE2
:100C900035D10121F61B4FEA174C1FFA87F8B6FB36
:100CA000FCF20CFB126608FB02F0230C43EA06463A
:100CB000B04207D9F61902F1FF3302D2B04200F276
:100CC000D2801A46361AB6FBFCF00CFB106608FB05
:100CD00000F8A3B243EA0644A04507D9E41900F19D
:100CE000FF3302D2A04500F2B9801846A4EB0804F5
:100CF00040EA02409CE729462846BDE8F08707FA0B
:100D00000EF7CEF1200326FA03F24FEA174CB2FB9E
:100D1000FCF11FFA87F80CFB112206FA0EF620FAF6
:100D200003F301FB08F933431E0C46EA0246B145C2
:100D300000FA0EF409D9F61901F1FF3280F08C8027
:100D4000B14540F2898002393E44A6EB0906B6FB64
:100D5000FCF00CFB106200FB08F99EB246EA02466A
:100D6000B14507D9F61900F1FF3371D2B1456FD9FA
:100D700002383E44A6EB090640EA01418FE7C1F183
:100D8000200722FA07F88B4048EA030326FA07F403
:100D90004FEA134EB4FBFEF91FFA83FC0EFB194415
:100DA0008E4020FA07F809FB0CFA48EA06084FEAD9
:100DB000184646EA0444A24502FA01F200FA01F696
:100DC00008D9E41809F1FF3044D2A24542D9A9F16B
:100DD00002091C44A4EB0A04B4FBFEF00EFB104411
:100DE00000FB0CFC1FFA88F848EA0444A44507D924
:100DF000E41800F1FF3E29D2A44527D902381C444B
:100E000040EA0940A0FB0289A4EB0C0CCC45C24689
:100E1000CE4615D312D055B1B6EB0A036CEB0E06D5
:100E200006FA07F7CB401F43CE402F606E600021CB
:100E3000BDE8F0871046F7E68946DEE64645EAD289
:100E4000B8EB020A69EB030E0138E4E77046D7E716
:100E500018468FE78146BDE7114676E702383C44E5
:100E600044E7084606E7023A3E442BE7704700BFD6
:100E700080B483B000AF78607B68042B06D1094A48
:100E8000084B1B6843F00403136005E0054A054B5B
:100E90001B6823F00403136000BF0C37BD4680BC01
:100EA000704700BF10E000E080B485B000AF78600C
:100EB0000023FB60094B1B68FB60FB6803F03803F1
:100EC000FB60FA687B681343FB60044AFB681360AD
:100ED00000BF1437BD4680BC704700BF00200240F1
:100EE00080B483B000AF7860084A084B1B6823F0D9
:100EF000100313600549054B1A687B6813430B60A8
:100F000000BF0C37BD4680BC704700BF00200240C8
:100F100080B400AF044B054A5A60034B044A5A6040
:100F200000BFBD4680BC70470020024023016745DA
:100F3000AB89EFCD80B584B000AF78600423FB733C
:100F40004FF4302000F080F80346FB73FB7B042B4A
:100F50001BD1104A0F4B1B6943F0020313610D4A6A
:100F60007B6853610B4A0B4B1B6943F040031361D1
:100F70004FF4302000F068F80346FB730549054B39
:100F80001A6941F6FD7313400B61FB7B184610375D
:100F9000BD4680BD0020024080B584B000AF7860BF
:100FA0000B467B800423FB734FF4005000F04CF899
:100FB0000346FB73FB7B042B15D10D4A0C4B1B69BD
:100FC00043F0010313617B687A881A804FF4005064
:100FD00000F03AF80346FB730549054B1A6941F6E0
:100FE000FE7313400B61FB7B18461037BD4680BD76
:100FF0000020024080B483B000AF0423FB71114B8A
:10100000DB6803F00103012B02D10123FB7113E024
:101010000C4BDB6803F00403002B02D00223FB71AE
:101020000AE0084BDB6803F01003002B02D0032317
:10103000FB7101E00423FB71FB7918460C37BD46B8
:1010400080BC70470020024080B584B000AF78605B
:101050000423FB73FFF7CEFF0346FB7306E0FFF7A5
:10106000C9FF0346FB737B68013B7B60FB7B012B65
:1010700002D17B68002BF2D17B68002B01D10523C4
:10108000FB73FB7B18461037BD4680BD80B489B02A
:1010900000AF786039600023FB6100233B610023CF
:1010A000BB610023FB6000237B610023BB603B68C6
:1010B000DB7803F00F03FB613B68DB7803F0100380
:1010C000002B05D03B689B781A46FB691343FB61F4
:1010D0003B681B88DBB2002B44D07B681B687B61BC
:1010E0000023BB6138E00122BB6902FA03F3FB6015
:1010F0003B681B881A46FB6813403B613A69FB68F2
:101100009A4226D1BB699B00FB600F22FB6802FA62
:1011100003F3BB60BB68DB437A6913407B61FA6908
:10112000FB6802FA03F37A6913437B613B68DB785F
:10113000282B05D10122BB699A407B685A6108E0DF
:101140003B68DB78482B04D10122BB699A407B685D
:101150001A61BB690133BB61BB69072BC3D97B68CB
:101160007A691A603B681B88FF2B46D97B685B68ED
:101170007B610023BB613AE0BB690833012202FABC
:1011800003F3FB603B681B881A46FB6813403B6116
:101190003A69FB689A4227D1BB699B00FB600F222A
:1011A000FB6802FA03F3BB60BB68DB437A69134058
:1011B0007B61FA69FB6802FA03F37A6913437B6186
:1011C0003B68DB78282B05D1BB69083301229A40A4
:1011D0007B685A613B68DB78482B05D1BB690833D3
:1011E00001229A407B681A61BB690133BB61BB690C
:1011F000072BC1D97B687A695A6000BF2437BD4686
:1012000080BC704780B483B000AF78600B467B80B1
:101210007A887B685A6100BF0C37BD4680BC704736
:1012200080B483B000AF7860134A134B1B6823F47B
:1012300080331360104A104B1B6823F48023136023
:101240007B68B3F5803F03D0B3F5802F07D00DE066
:10125000094A094B1B6843F48033136006E0064AD1
:10126000054B1B6843F4A023136000BF00BF0C377D
:10127000BD4680BC704700BF0010024080B582B000
:1012800000AF00233B600023FB710023BB713120C2
:1012900000F0B4F90346BB713B6801333B603B6827
:1012A000B3F5A06F02D0BB79002BF0D0312000F055
:1012B000A5F90346002B02D00123FB7101E00023B6
:1012C000FB71FB7918460837BD4680BD80B485B0F8
:1012D00000AF786039600023FB600A4B5B68FB60FD
:1012E000FB6823F47C13FB607A683B681343FA685D
:1012F0001343FB60034AFB68536000BF1437BD46CD
:1013000080BC70470010024080B483B000AF034639
:10131000FB71044AFB79136000BF0C37BD4680BCEB
:10132000704700BF6000424280B485B000AF786073
:101330000023FB60094B5B68FB60FB6823F0030341
:10134000FB60FA687B681343FB60044AFB685360E8
:1013500000BF1437BD4680BC704700BF001002407C
:1013600080B400AF044B5B68DBB203F00C03DBB26C
:101370001846BD4680BC70470010024080B485B05E
:1013800000AF78600023FB60094B5B68FB60FB6883
:1013900023F0F003FB60FA687B681343FB60044AA8
:1013A000FB68536000BF1437BD4680BC704700BF68
:1013B0000010024080B485B000AF78600023FB606D
:1013C000094B5B68FB60FB6823F4E063FB60FA6831
:1013D0007B681343FB60044AFB68536000BF14370B
:1013E000BD4680BC704700BF0010024080B485B08D
:1013F00000AF78600023FB60094B5B68FB60FB6813
:1014000023F46053FB607B68DB00FA681343FB60E6
:10141000034AFB68536000BF1437BD4680BC704769
:101420000010024080B487B000AF786000237B6179
:1014300000233B610023FB600023BB604C4B5B68D7
:1014400003F00C037B617B69042B07D0082B09D0C8
:10145000002B33D17B68474A1A6033E07B68454AEA
:101460001A602FE0424B5B6803F470133B61404B02
:101470005B6803F48033FB603B699B0C02333B6188
:10148000FB68002B06D13B693B4A02FB03F27B68F9
:101490001A6017E0364B5B6803F40033002B06D06C
:1014A0003B69354A02FB03F27B681A600AE03B693C
:1014B000304A02FB03F27B681A6003E07B682D4A26
:1014C0001A6000BF2A4B5B6803F0F0037B617B6905
:1014D0001B097B61294A7B6913441B78DBB2BB6023
:1014E0007B681A68BB68DA407B685A60204B5B688F
:1014F00003F4E0637B617B691B0A7B611F4A7B69A4
:1015000013441B78DBB2BB607B685A68BB68DA4067
:101510007B689A60164B5B6803F460537B617B6960
:10152000DB0A7B61154A7B6913441B78DBB2BB6025
:101530007B685A68BB68DA407B68DA600C4B5B6892
:1015400003F440437B617B699B0B7B610C4A7B69A5
:1015500013441B78DBB2BB607B68DA68BB68B2FB04
:10156000F3F27B681A6100BF1C37BD4680BC704730
:101570000010024000127A0000093D000000002027
:101580001000002080B483B000AF78600B46FB7081
:10159000FB78002B06D00949084B9A697B681343F6
:1015A0008B6106E00549054B9A697B68DB43134074
:1015B0008B6100BF0C37BD4680BC704700100240F5
:1015C00080B483B000AF78600B46FB70FB78002BD3
:1015D00006D00949084BDA697B681343CB6106E002
:1015E0000549054BDA697B68DB431340CB6100BFDB
:1015F0000C37BD4680BC70470010024080B487B0F5
:1016000000AF0346FB710023FB6000237B610023D6
:10161000FB74FB795B09DBB2FB60FB68012B03D138
:10162000124B1B687B6109E0FB68022B03D10F4B57
:101630001B6A7B6102E00D4B5B6A7B61FB7903F007
:101640001F03FB607A69FB6822FA03F303F00103CE
:10165000002B02D00123FB7401E00023FB74FB7C10
:1016600018461C37BD4680BC704700BF00100240C2
:1016700080B58CB000AF786039600023FB62002336
:10168000BB6200237B6200233B620023FB617B681B
:10169000FB617B681B8A9BB2FB62FA6A4CF6FF73A4
:1016A0001340FB623B68DB881A46FB6A1343FB620C
:1016B000FB6A9AB27B681A827B689B899BB2FB6249
:1016C000FA6A4EF6F3131340FB623B689A883B6854
:1016D0001B8913439AB23B685B8913439BB21A463A
:1016E000FB6A1343FB62FB6A9AB27B689A817B6850
:1016F0009B8A9BB2FB62FA6A4FF6FF431340FB6280
:101700003B689B891A46FB6A1343FB62FB6A9AB2E9
:101710007B689A8207F108031846FFF783FEFB698E
:101720002E4A934202D17B69BB6201E03B69BB62F6
:101730007B689B899BB21BB2002B0CDABA6A1346FA
:101740009B0013449A001A443B681B685B00B2FB81
:10175000F3F37B620BE0BA6A13469B0013449A00D2
:101760001A443B681B689B00B2FBF3F37B627B6A05
:101770001B4AA2FB03235B091B01FB62FB6A1B09DB
:10178000642202FB03F37A6AD31A3B627B689B896B
:101790009BB21BB2002B0CDA3B6ADB003233104ADF
:1017A000A2FB03235B0903F00703FA6A1343FB62FE
:1017B0000BE03B6A1B013233094AA2FB03235B099E
:1017C00003F00F03FA6A1343FB62FB6A9AB27B6869
:1017D0001A8100BF3037BD4680BD00BF00380140D0
:1017E0001F85EB5180B483B000AF78600B46FB706F
:1017F000FB78002B08D07B689B899BB243F4005395
:101800009AB27B689A8107E07B689B899BB223F43C
:1018100000539AB27B689A8100BF0C37BD4680BCEA
:10182000704780B487B000AF78600B467B8013466A
:101830007B7000233B610023FB600023BB6000231F
:101840007B617B687B617B88DBB25B09DBB23B61E0
:101850007B8803F01F03FB600122FB6802FA03F39D
:10186000BB603B69012B03D17B690C337B6109E0D1
:101870003B69022B03D17B6910337B6102E07B69FA
:1018800014337B617B78002B06D07B697A69116801
:10189000BA680A431A6006E07B697A691168BA6817
:1018A000D2430A401A6000BF1C37BD4680BC704757
:1018B00080B483B000AF78600B467B807B88C3F335
:1018C00008039AB27B689A8000BF0C37BD4680BC83
:1018D000704780B483B000AF78607B689B889BB210
:1018E000C3F308039BB218460C37BD4680BC704753
:1018F00080B485B000AF78600B467B800023FB731B
:101900007B681B889AB27B8813409BB2002B02D065
:101910000123FB7301E00023FB73FB7B18461437A4
:10192000BD4680BC704780B487B000AF78600B467E
:101930007B800023FB6000237B610023BB600023CE
:10194000FB747B88DBB25B09DBB2BB607B8803F096
:101950001F037B6101227B6902FA03F37B61BB6891
:10196000012B07D17B689B899BB21A467B69134088
:101970007B6111E0BB68022B07D17B681B8A9BB29D
:101980001A467B6913407B6106E07B689B8A9BB2A9
:101990001A467B6913407B617B881B0A9BB2FB6004
:1019A0000122FB6802FA03F3FB607B681B889BB291
:1019B0001A46FB681340FB607B69002B05D0FB686F
:1019C000002B02D00123FB7401E00023FB74FB7C9D
:1019D00018461C37BD4680BC704780B485B000AF48
:1019E00078600B467B800023FB810023BB817B88D2
:1019F0001B0AFB81FB89012202FA03F3BB81BB892D
:101A0000DB439AB27B681A8000BF1437BD4680BCA6
:101A10007047000080B500AF00F0DEFD00F01AFE58
:101A200000F036FE00F0ACFE0021002002F02EFD9A
:101A30000021002003F07CFC00F0E0FF00210020EA
:101A400003F046FC0021002001F0C4FA00F03CFE47
:101A50000021002002F0AEFC01F06AF803F016F954
:101A600003F054F90346002B02D0044802F0C6FBF1
:101A70004FF4C87000F09CFDEEE700BF18B10008FD
:101A8000DFF834D0002103E00C4B5B5843500431A5
:101A90000B480C4B42189A42F6D30B4A02E0002343
:101AA00042F8043B094B9A42F9D300F07DF803F069
:101AB00095FFFFF7AFFF7047005000206CBD000896
:101AC000000000209C0600209C06002024360020F8
:101AD000FEE780B400AF00BFBD4680BC704780B455
:101AE00000AFFEE780B400AFFEE780B400AFFEE7D2
:101AF00080B400AFFEE780B400AF00BFBD4680BC3D
:101B0000704780B400AF00BFBD4680BC704780B452
:101B100000AF00BFBD4680BC704780B500AF00F08D
:101B200039FD00BF80BD000080B582B000AF40F23B
:101B300025510C48FFF7F7FE0346002B0DD009484E
:101B4000FFF7C7FE0346FB71FB79184600F0D4FE91
:101B500040F225510348FFF740FF00BF0837BD465C
:101B600080BD00BF0038014080B582B000AF40F2B8
:101B700025510C48FFF7D7FE0346002B0DD009482E
:101B8000FFF7A7FE0346FB71FB79184600F0A2FEA3
:101B900040F225510348FFF720FF00BF0837BD463C
:101BA00080BD00BF0044004080B500AF154A154B12
:101BB0001B6843F0010313601249124B5A68124B21
:101BC00013404B600F4A0F4B1B6823F0847323F4C0
:101BD000803313600B4A0B4B1B6823F48023136084
:101BE000084A084B5B6823F4FE035360054B4FF42F
:101BF0001F029A6000F078F8044B4FF000629A6080
:101C000000BF80BD001002400000FFF800ED00E0C2
:101C100080B485B000AF0023FB600023BB600023CD
:101C20007B602C4B5B6803F00C03FB60FB68042BB0
:101C300007D0082B09D0002B33D1274B274A1A6035
:101C400033E0254B254A1A602FE0224B5B6803F4F2
:101C50007013BB601F4B5B6803F480337B60BB6811
:101C60009B0C0233BB607B68002B06D1BB681C4A0F
:101C700002FB03F3184A136017E0164B5B6803F48A
:101C80000033002B06D0BB68154A02FB03F3124A4F
:101C900013600AE0BB68114A02FB03F30E4A1360AB
:101CA00003E00D4B0D4A1A6000BF0A4B5B681B092D
:101CB00003F00F030B4AD35CDBB2FB60064B1A68E0
:101CC000FB6822FA03F3044A136000BF1437BD46D1
:101CD00080BC7047001002401400002000127A00FF
:101CE00000093D001800002080B500AF00F002F8A8
:101CF00000BF80BD80B483B000AF00237B600023B1
:101D00003B603A4A394B1B6843F480331360374BCE
:101D10001B6803F400333B607B6801337B603B68E6
:101D2000002B03D17B68B3F5A06FF0D12F4B1B685C
:101D300003F40033002B02D001233B6001E00023B9
:101D40003B603B68012B4BD1294A294B1B6843F070
:101D500010031360264A264B1B6823F0030313600D
:101D6000234A234B1B6843F0020313601F4A1F4B97
:101D70005B6853601D4A1D4B5B6853601B4A1B4BDD
:101D80005B6843F480635360184A184B5B6823F424
:101D90007C135360154A154B5B6843F4E81353609A
:101DA000124A124B1B6843F08073136000BF0F4B45
:101DB0001B6803F00073002BF9D00C4A0B4B5B68D7
:101DC00023F003035360094A084B5B6843F00203A6
:101DD000536000BF054B5B6803F00C03082BF9D17F
:101DE00000BF0C37BD4680BC704700BF00100240EA
:101DF0000020024080B487B000AFF860B9607A601C
:101E000001237B6104E07B697A6802FB03F37B6159
:101E10007B69BA68B2FBF3F27B689A42F3D229E09D
:101E20007B69BA68B2FBF3F33B617A69BB68B3FBC9
:101E3000F2F102FB01F29B1ABB607A697B6892FBAC
:101E4000F3F37B613B69092B0ADDFB681B68591CB6
:101E5000FA6811603A69D2B23732D2B21A7009E028
:101E6000FB681B68591CFA6811603A69D2B23032BB
:101E7000D2B21A707B69002BD2D100BF1C37BD468D
:101E800080BC704780B588B000AFF860B9607A60F8
:101E9000FB687B617DE0BB681B78252B71D1BB683B
:101EA0000133BB60BB681B78642B1ED0642B06DC3F
:101EB000582B50D0632B0ED0252B58D05DE0732BC0
:101EC0002BD0732B02DC692B0FD056E0752B37D04B
:101ED000782B40D051E0FB685A1CFA607A68111DDB
:101EE00079601268D2B21A7047E07B681A1D7A6076
:101EF0001B68FB61FB69002B07DAFB695B42FB6136
:101F0000FB685A1CFA602D221A70F96907F10C035C
:101F10000A221846FFF76EFF2FE07B681A1D7A60D1
:101F20001B68BB6107E0FB685A1CFA60BA69511C68
:101F3000B96112781A70BB691B78002BF3D11CE0D1
:101F40007B681A1D7A60196807F10C030A2218468B
:101F5000FFF750FF11E07B681A1D7A601B68194675
:101F600007F10C0310221846FFF744FF05E0FB6859
:101F70005A1CFA6025221A7000BFBB680133BB608F
:101F800007E0FB685A1CFA60BA68511CB960127805
:101F90001A70BB681B78002B7FF47DAFFB680022B2
:101FA0001A70FB681A467B69D31A18462037BD465B
:101FB00080BD0EB480B585B000AF786007F1200316
:101FC000BB60BA68F9697868FFF75CFFF860FB6886
:101FD00018461437BD46BDE8804003B0704780B551
:101FE00084B000AFF860B9607A60FB68002B05D060
:101FF000BB68002B02D07B68002B01D100230BE0D3
:1020000010220021F86803F027FDFB687A685A6007
:10201000FB68BA681A60012318461037BD4680BDB8
:1020200080B588B000AFF860B9607A60BB68FB61CA
:10203000FB68002B0DD0FB681B68002B09D0FB68E8
:102040005B68002B05D0BB68002B02D07B68002B9F
:1020500001D1002347E0F86800F0B0F8B8617A6871
:10206000BB69934228BF13467B607B68002B01D17C
:10207000002338E0FB685A68FB68DB68D21A7B688B
:10208000934228BF13467B61FB681A68FB68DB68D4
:1020900013447A69F969184603F0D3FCFB68DA68DF
:1020A0007B691A44FB68DA607A687B69D31A7B60C3
:1020B0007B68002B0BD0FB681868FA697B691344B6
:1020C0007A68194603F0BDFCFB687A68DA60FB6841
:1020D000DA68FB685B689A4202D3FB680022DA6028
:1020E0007A697B68134418462037BD4680BD80B5A9
:1020F00088B000AFF860B9607A60BB68FB61FB68CC
:10210000002B0DD0FB681B68002B09D0FB685B68B7
:10211000002B05D0BB68002B02D07B68002B01D1BF
:10212000002347E0F86800F07FF8B8617A68BB697F
:10213000934228BF13467B607B68002B01D10023AC
:1021400038E0FB685A68FB689B68D21A7B68934248
:1021500028BF13467B61FB681A68FB689B681344C1
:102160007A691946F86903F06CFCFB689A687B6928
:102170001A44FB689A607A687B69D31A7B607B6833
:10218000002B0BD0FA697B69D018FB681B687A6852
:10219000194603F056FCFB687A689A60FB689A68F7
:1021A000FB685B689A4202D3FB6800229A607A69F6
:1021B0007B68134418462037BD4680BD80B487B085
:1021C00000AF78607B68002B07D07B681B68002B12
:1021D00003D07B685B68002B01D100231FE07B6884
:1021E000DB683B617B689B68FB603A69FB689A42ED
:1021F00003D17B685B687B610FE0FA683B699A42B8
:1022000004D9FA683B69D31A7B6106E07B685A6897
:10221000F9683B69CB1A13447B617B69013B184623
:102220001C37BD4680BC704780B487B000AF786073
:102230007B68002B07D07B681B68002B03D07B6872
:102240005B68002B01D100231DE07B68DB683B61EC
:102250007B689B68FB603A69FB689A4202D1002365
:102260007B610FE03A69FB689A4204D93A69FB68DE
:10227000D31A7B6106E07B685A683969FB68CB1A20
:1022800013447B617B6918461C37BD4680BC704790
:1022900080B500AF074B1B7883F00103DBB2002B46
:1022A00004D0FEF735FE034B01221A7001231846B5
:1022B00080BD00BFB806002080B588B000AF786050
:1022C0003960204B1B7883F00103DBB2002B01D077
:1022D000FFF7DEFF7B681C4A934205D97A683B68AA
:1022E00013441A4A934201D9002327E07B6823F460
:1022F0007F7323F00303BB617A683B6813447B61FF
:102300007B6903F2FF3323F47F7323F003033B6104
:10231000BB69FB610DE0F869FEF70CFE0346FB7339
:10232000FB7B042B01D0002308E0FB6903F58063ED
:10233000FB61FA693B699A42EDD3012318462037C5
:10234000BD4680BDB8060020FF0F0108001002083E
:1023500080B58AB000AFF860B9607A60434B1B78F3
:1023600083F00103DBB2002B09D0FFF791FF034696
:1023700083F00103DBB2002B01D0002371E0FB6886
:102380003B4A934205D9FA687B681344394A934221
:1023900001D9002365E0FB6803F00103002B01D0A5
:1023A00000235EE0BB68002B02D07B68002B01D1CC
:1023B000002356E0FB687B62BB683B627B68FB6185
:1023C0004BE0FB69012B29D93B6A1B781AB23B6AA7
:1023D00001331B781B021BB213431BB27B837B8B25
:1023E0001946786AFEF7D8FD03467B767B7E042B80
:1023F00001D0002335E07B6A1B88BB82BA8A7B8BC5
:102400009A4201D000232CE07B6A02337B623B6A54
:1024100002333B62FB69023BFB611EE03B6A1B78B7
:102420009BB263F0FF037B837B8B1946786AFEF7D0
:10243000B3FD03467B767B7E042B01D0002310E0A6
:102440007B6A1B88FB82FB8ADBB23A6A1278934272
:1024500001D0002305E00023FB61FB69002BB0D114
:10246000012318462837BD4680BD00BFB8060020AE
:10247000FF0F01080010020880B487B000AFF860B9
:10248000B9607A60FB68164A934205D9FA687B689E
:102490001344144A934201D900231CE0BB68002B6B
:1024A00002D07B68002B01D1002314E0FB683B6164
:1024B00000237B610AE0BA687B69134439697A6951
:1024C0000A4412781A707B6901337B617A697B68F0
:1024D0009A42F0D3012318461C37BD4680BC704792
:1024E000FF0F01080010020880B483B000AF03465C
:1024F0003960FB7197F90730002B0BDA0D49FB7936
:1025000003F00F03043B3A68D2B21201D2B20B447B
:102510001A7609E0084997F907303A68D2B21201F1
:10252000D2B20B4483F8002300BF0C37BD4680BCF9
:10253000704700BF00ED00E000E100E080B582B030
:1025400000AF78607B68B3F1807F01D3012311E095
:102550000A4A7B6823F07F43013B53600F214FF011
:10256000FF30FFF7C1FF054B00229A60034B0722A3
:102570001A60002318460837BD4680BD10E000E011
:1025800080B400AF024B1B681846BD4680BC704744
:10259000BC06002080B400AF044B1B680133034A23
:1025A000136000BFBD4680BC704700BFBC06002062
:1025B00080B584B000AF7860FFF7E2FFF86000BF3D
:1025C000FFF7DEFF0246FB68D21A7B689A42F7D318
:1025D00000BF1037BD4680BD80B582B000AF4FF45C
:1025E0008030FEF71DFEFEF749FE0346FB71FB79C6
:1025F000012B28D11020FEF773FC0220FEF754FCBB
:102600000020FEF7BBFE0020FEF7F0FE4FF48060D6
:10261000FEF7D0FE4FF4E0114FF48030FEF756FE87
:102620000120FEF771FE00BF3920FEF7E7FF0346E9
:10263000002BF9D00220FEF777FE00BFFEF790FED8
:102640000346082BFAD1FFF7E3FA00BF0837BD466F
:1026500080BD000080B500AF0420FEF709FC0A4BE6
:102660001B680A4AA2FB03239B091846FFF766FF73
:102670000346002B00D0FEE70F214FF0FF30FFF79D
:1026800033FF00BF80BD00BF14000020D34D621097
:1026900080B582B000AF01210820FEF773FF01234F
:1026A000BB800323BB711023FB713B1D19460548FA
:1026B000FEF7ECFC01210348FEF7A4FD00BF08373C
:1026C000BD4680BD000C014080B582B000AF012145
:1026D0001020FEF757FF4FF40053BB801023FB710F
:1026E0000323BB713B1D19460348FEF7CFFC00BF17
:1026F0000837BD4680BD00BF0010014080B483B0E4
:1027000000AF0346FB71084997F907305B09FA7976
:1027100002F01F02012000FA02F241F8232000BF5C
:102720000C37BD4680BC704700E100E080B483B048
:1027300000AF03463960FB7197F90730002B0BDAC5
:102740000D49FB7903F00F03043B3A68D2B2120142
:10275000D2B20B441A7609E0084997F907303A6873
:10276000D2B21201D2B20B4483F8002300BF0C375F
:10277000BD4680BC704700BF00ED00E000E100E016
:1027800080B58AB000AF01210420FEF7FBFE0121D5
:102790004FF48040FEF7F6FE01214FF40030FEF7C3
:1027A0000FFF0423BB84032387F82630182387F800
:1027B000273007F1240319463F48FEF767FC08233A
:1027C000BB84042387F8273007F1240319463A48CD
:1027D000FEF75CFC4FF40073BB84032387F82630BC
:1027E000182387F8273007F1240319463248FEF7EB
:1027F0004DFC4FF48063BB84042387F8273007F136
:10280000240319462C48FEF741FC4FF480722B49F3
:102810002B48FFF7E4FB4FF480722A492A48FFF760
:10282000DEFB4FF4E1337B610023BB830C23FB838E
:1028300000237B8300233B8400233B8307F11403A5
:1028400019462248FEF714FF012240F225511F4885
:10285000FEF7E7FF01212620FFF768FF2620FFF79C
:102860004DFF01211948FEF7BDFF4FF4E1337B60B6
:102870000023BB810C23FB8100237B8100233B824F
:1028800000233B813B1D19461148FEF7F1FE012252
:1028900040F225510E48FEF7C4FF02212520FFF724
:1028A00045FF2520FFF72AFF01210948FEF79AFF7F
:1028B00000BF2837BD4680BD00080140C00600208B
:1028C000C0070020D0070020D008002000440040AE
:1028D0000038014080B582B000AF0346FB71FB1D9C
:1028E000012219460348FFF79BFB00BF0837BD468E
:1028F00080BD00BFC007002080B582B000AF034696
:10290000FB71FB1D012219460348FFF789FB00BF3D
:102910000837BD4680BD00BFD008002080B582B01A
:1029200000AF78600B467B807B881A467968044844
:10293000FFF7DDFB03469BB218460837BD4680BD56
:10294000D008002080B500AF0348FFF76DFC0346B8
:102950009BB2184680BD00BFD008002080B582B071
:1029600000AF0346FB7100BF80210848FEF7C0FF9F
:102970000346002BF8D0FB799BB219460348FEF7BB
:1029800097FF00BF0837BD4680BD00BF0044004030
:1029900080B582B000AF0346FB7100BF80210848BC
:1029A000FEF7A6FF0346002BF8D0FB799BB2194631
:1029B0000348FEF77DFF00BF0837BD4680BD00BF5E
:1029C0000038014080B584B000AF78600B467B8052
:1029D0000023FB8109E0FB897A6813441B781846C1
:1029E000FFF7D6FFFB890133FB81FA897B889A4286
:1029F000F1D300BF1037BD4680BD000080B500AFE9
:102A000040F203520021044803F026F8034B002251
:102A10001A8000BF80BD00BFE0080020640E0020C7
:102A200080B582B000AF78601D4B93F80235092B5A
:102A300001D900232FE01A4B93F80035DB01184A27
:102A400013447F227968184603F08EF8144B93F8EC
:102A50000035134ADB0113447F3300221A70104BF8
:102A600093F800355A1C0F4B83FB02139910D317B0
:102A7000C91A0B469B000B445B00D11ACAB2084B23
:102A800083F80025064B93F802350133DAB2044B84
:102A900083F80225012318460837BD4680BD00BFD4
:102AA000E00800206766666680B582B000AF786097
:102AB0000B467B801C4B93F80235002B01D1002381
:102AC0002DE0194B93F80135DB01174A99187B88E3
:102AD000013B1A46786803F047F87B88013B7A6827
:102AE000134400221A70104B93F801355A1C0F4BF7
:102AF00083FB02139910D317C91A0B469B000B4492
:102B00005B00D11ACAB2084B83F80125064B93F833
:102B10000235013BDAB2044B83F802250123184643
:102B20000837BD4680BD00BFE008002067666666C6
:102B300080B5DCB002AF01F0BFFB0346002B4CD0E8
:102B4000BC4B1B78002B48D0BA4B00221A70BA48F5
:102B500000F0C5F9FFF7F6FE0346A7F85A31B7F8BB
:102B60005A3107F15000B54A802102F07DFF07F18C
:102B70005003184600F0B3F90023C7F864310EE0A3
:102B8000D7F864310133C7F86431AD4B1B680133AA
:102B9000AB4A136097F85431184601F0B9FB07F5BA
:102BA000AA7301211846FFF7B9FE0346002BE7D1AF
:102BB000D7F86431002B0DD007F1D000D7F864317D
:102BC000A04A802102F050FF07F1D003184600F020
:102BD00086F902E09C4800F082F90023C7F86031D2
:102BE000C3E0D7F860310133C7F86031974B1B68F9
:102BF0000133964A136001F05FFB0346002B0AD0B5
:102C00008F4B1B6801338E4A136097F85531184675
:102C100001F07EFBA9E097F855313E2B0DD18C4B8E
:102C20001B88002B09D18B4B3E221A70894B002246
:102C30005A708848FFF7F4FE97E097F855310D2B4E
:102C400003D097F855310A2B75D1814B1B88002B87
:102C500000F08B807E4B1B881A467E4B00219954D6
:102C60007D497C4802F095FF0346002B5CD07B48F1
:102C700000F035F93B461946764802F037FE034628
:102C8000002B51D03B465B68002B4DDD3B465B681B
:102C9000184601F02DFB012001F01AFB654B0122C3
:102CA0001A703B465B6807F150006D4A802102F0C4
:102CB000DBFE07F15003184600F011F9694B0122C1
:102CC0001A70694B00221A60684800F008F9002366
:102CD000C7F85C310EE0D7F85C310133C7F85C31DE
:102CE000574B1B680133564A136097F85331184607
:102CF00001F00EFB07F2531301211846FFF70EFEF9
:102D00000346002BE7D1D7F85C31002B0CD007F13C
:102D1000D000D7F85C31564A802102F0A5FE07F1B9
:102D2000D003184600F0DBF84A48FFF779FE484B1D
:102D300000221A8019E0464B1B887E2B0BD8444B8F
:102D40001B885A1C91B2424A11801A4697F85511B5
:102D5000404B995409E03F4B002283F87F203D48C7
:102D6000FFF75EFE3A4B00221A8007F2551301214D
:102D70001846FFF7D3FD0346A7F85831B7F8583186
:102D8000002B7FF42EAF01F097FA0346002B42D0C0
:102D9000FFF7D8FD0346A7F85631D7F86031002B6E
:102DA00013D0B7F85631264A126807F1D0000192C5
:102DB0000093D7F860312F4A802102F055FE07F1C9
:102DC000D003184600F08BF82EE02B4B1B68013324
:102DD000294A1360284B1A68284BA3FB02131B09CE
:102DE000322101FB03F3D31A002B1DD1B7F8561182
:102DF000134B1B68204A126807F1D0000192009320
:102E00000B461F4A802102F02FFE07F1D00318461F
:102E100000F065F808E0074B01221A70084B002209
:102E20001A600A4B00221A6000BF07F5B477BD464E
:102E300080BD00BF2800002040B1000874B1000828
:102E4000680E0020A4B10008D8B100086C0E002064
:102E5000640E0020E40D0020FCB1000808B2000858
:102E60002CB20008700E0020740E002064B200081E
:102E7000A8B20008E8B20008780E00201F85EB51C8
:102E800028B3000880B582B000AF78600B467B8025
:102E90007B8819467868FFF707FE0346184608370F
:102EA000BD4680BD80B400AF034B93F80235184691
:102EB000BD4680BC704700BFE008002080B582B0EE
:102EC00000AF78607868FDF743F903469BB2194676
:102ED0007868FFF777FD00BF0837BD4680BD90B525
:102EE00085B000AF78600023FB8109E0FB897A6838
:102EF00013441B781846FFF731FDFB890133FB8132
:102F0000FC897868FDF724F903469C42EED300BFA4
:102F10001437BD4690BD80B582B000AF78600B46D7
:102F20007B807B68002B02D07B88002B01D10023A3
:102F300014E0FFF7B7FF0346002B01D100230DE09B
:102F40007B8819467868FFF79DFF034683F00103ED
:102F5000DBB2002B01D0002300E001231846083724
:102F6000BD4680BD80B582B000AF78607868FFF75D
:102F7000B6FF0348FFF7B3FF00BF0837BD4680BD6B
:102F800070B3000880B582B000AF78607B68002B1A
:102F900008D07868FDF7DCF803461A460021786807
:102FA00002F05AFD00BF0837BD4680BD80B582B033
:102FB00000AF78603960FFF7E3FA02467B68D21A07
:102FC0003B689A422CBF01230023DBB21846083726
:102FD000BD4680BD80B582B000AF78603960294BB6
:102FE00000221A75274B002283F81421254B00225A
:102FF00083F81C21234B00225A70224A7B68D3603D
:10300000204A3B6813611F4B0022A3F816211D4B79
:103010000022C3F81821FFF7B3FA0246194B5A6091
:10302000184B00229A60174B00221A70154B4FF470
:103030000072C3F8A021134B0022C3F89C21114B4E
:103040000022C3F8A4210F4B0022A3F8A8210D4BA6
:103050000022C3F8AC210B4B002283F8B0210A4BAD
:1030600000221A60094B00221A70094B00221A70C4
:10307000084B00221A60084B00221A7000BF083764
:10308000BD4680BDEC300020802E0020852E002023
:10309000842E00208C2E0020902E002080B582B03F
:1030A00000AFB74B1B780A2B00F2C38101A252F884
:1030B00023F000BFE1300008FB3000088131000838
:1030C0009B310008213200083B320008C132000861
:1030D000DB320008613300087B330008213400082C
:1030E000A848FFF7EBFEFFF74BFA0246A44B5A60E5
:1030F000A34B01221A7001239CE10023FB7122E003
:10310000A148FFF72FFFA1499F4802F043F903466A
:10311000002B15D09D4B1B78002B03D09B4B1B78AD
:10312000012B0DD1964B02221A70FFF729FA0246A5
:10313000934B5A600123FB719348FFF723FF0AE08A
:103140009148FFF71FFF4FF480718F48FFF7E3FEB0
:103150000346002BD4D1FB7983F00103DBB2002BB3
:103160000CD0874B5B6842F210711846FFF71EFFC8
:103170000346002B02D0824B02221A70012359E130
:103180008348FFF79BFEFFF7FBF902467C4B5A6032
:103190007B4B03221A7001234CE10023BB7122E018
:1031A0007948FFF7DFFE7949774802F0F3F80346E4
:1031B000002B15D0754B1B78002B03D0734B1B785D
:1031C000012B0DD16E4B04221A70FFF7D9F902467C
:1031D0006B4B5A600123BB716B48FFF7D3FE0AE0CB
:1031E0006948FFF7CFFE4FF480716748FFF793FE01
:1031F0000346002BD4D1BB7983F00103DBB2002B53
:103200000CD05F4B5B6842F210711846FFF7CEFEA0
:103210000346002B02D05A4B04221A70012309E105
:103220005C48FFF74BFEFFF7ABF90246544B5A6080
:10323000534B05221A700123FCE000237B7122E02E
:103240005148FFF78FFE51494F4802F0A3F803465B
:10325000002B15D04D4B1B78002B03D04B4B1B780C
:10326000012B0DD1464B06221A70FFF789F9024651
:10327000434B5A6001237B714348FFF783FE0AE00A
:103280004148FFF77FFE4FF480713F48FFF743FE50
:103290000346002BD4D17B7983F00103DBB2002BF2
:1032A0000CD0374B5B6842F210711846FFF77EFE78
:1032B0000346002B02D0324B06221A700123B9E0DC
:1032C0003548FFF7FBFDFFF75BF902462C4B5A60D0
:1032D0002B4B07221A700123ACE000233B7122E044
:1032E0002948FFF73FFE2949274802F053F80346D3
:1032F000002B15D0254B1B78002B03D0234B1B78BC
:10330000012B0DD11E4B08221A70FFF739F9024626
:103310001B4B5A6001233B711B48FFF733FE0AE049
:103320001948FFF72FFE4FF480711748FFF7F3FDA0
:103330000346002BD4D13B7983F00103DBB2002B91
:103340000CD00F4B5B6842F210711846FFF72EFE4F
:103350000346002B02D00A4B08221A70012369E0B1
:103360000E48FFF7ABFDFFF70BF90246044B5A601E
:10337000034B09221A7001235CE00023FB7032E04A
:10338000EC30002074B300089C2F00209C300020FB
:1033900084B30008A4B30008C0B30008D0B3000889
:1033A0002648FFF7DFFD2649244801F0F3FF0346D6
:1033B000002B15D0224B1B78002B03D0204B1B7801
:1033C000012B0DD11F4B0A221A70FFF7D9F80246C4
:1033D0001C4B5A600123FB701848FFF7D3FD0AE02D
:1033E0001648FFF7CFFD4FF480711448FFF793FDA7
:1033F0000346002BD4D1FB7883F00103DBB2002B12
:103400000CD0104B5B6842F210711846FFF7CEFDEE
:103410000346002B02D00B4B0A221A70012309E04D
:10342000084B012283F8B021064B00221A700023BA
:1034300000E0002318460837BD4680BD9C2F0020C1
:103440009C300020EC30002080B5ADF5027D00AF4F
:10345000354B1B78002B02D0012B15D05DE0381DB9
:10346000324B334A4FF4007102F0FEFA3B1D18460E
:10347000FFF724FDFFF784F802462B4B5A602A4BD6
:1034800001221A70012349E0002387F8073222E065
:103490002848FFF767FD2849264801F07BFF0346CF
:1034A000002B15D0244B1B78002B03D0224B1B780C
:1034B000012B0DD11C4B022283F8B0211A4B0022A4
:1034C0001A70012387F807321A48FFF75BFD0AE0FC
:1034D0001848FFF757FD4FF480711648FFF71BFDA2
:1034E0000346002BD4D197F8073283F00103DBB2F7
:1034F000002B10D00C4B5B6842F210711846FFF79E
:1035000055FD0346002B06D0074B062283F8B02159
:10351000054B00221A70012300E00023184607F52E
:103520000277BD4680BD00BFEC3000200031002096
:10353000E0B300089C2F00209C30002080B5ADF542
:103540000E7D02AFBA4B1B78092B00F2A68201A2B6
:1035500052F823F07D35000897350008233600081F
:103560003D360008C9360008F33600087F370008EA
:10357000E7370008A3380008BD380008AD48FFF75A
:103580009DFCFEF7FDFF0246A94B5A60A84B0122A5
:103590001A70012382E2002387F82F3223E0A64825
:1035A000FFF7E0FCA549A44801F0F4FE0346002B18
:1035B00016D0A24B1B78002B03D0A04B1B78012BFD
:1035C0000ED19B4B02221A70FEF7DAFF0246984B8F
:1035D0005A60012387F82F329748FFF7D3FC0AE09F
:1035E0009548FFF7CFFC4FF480719348FFF793FCA9
:1035F0000346002BD3D197F82F3283F00103DBB2BF
:10360000002B0CD08A4B5B6842F210711846FFF712
:10361000CDFC0346002B02D0854B02221A700123F9
:103620003CE28748FFF74AFCFEF7AAFF0246804BC0
:103630005A607F4B03221A7001232FE2002387F880
:103640002E3223E07C48FFF78DFC7C497A4801F05C
:10365000A1FE0346002B16D0784B1B78002B03D01D
:10366000764B1B78012B0ED1714B04221A70FEF79A
:1036700087FF02466E4B5A60012387F82E326E4850
:10368000FFF780FC0AE06C48FFF77CFC4FF4807188
:103690006948FFF740FC0346002BD3D197F82E3240
:1036A00083F00103DBB2002B0CD0614B5B6842F26C
:1036B00010711846FFF77AFC0346002B02D05C4BD2
:1036C00004221A700123E9E138465E4B5E4A4FF44A
:1036D000007102F0C9F93B461846FFF7EFFBFEF711
:1036E0004FFF0246524B5A60514B05221A7001237C
:1036F000D4E1002387F82D3223E04F48FFF732FC56
:103700004E494D4801F046FE0346002B16D04B4B68
:103710001B78002B03D0494B1B78012B0ED1444B57
:1037200006221A70FEF72CFF0246414B5A60012315
:1037300087F82D324048FFF725FC0AE03E48FFF7A6
:1037400021FC4FF480713C48FFF7E5FB0346002B5A
:10375000D3D197F82D3283F00103DBB2002B0CD0CC
:10376000334B5B6842F210711846FFF71FFC0346AB
:10377000002B02D02E4B06221A7001238EE1334B10
:103780001B68002B0BD13248FFF7A9FB284B062200
:1037900083F8B021264B00221A7000237EE12D4BC6
:1037A0001B68C7F82032294B1B68013BC7F81C3245
:1037B0003846D7F81C320093D7F82032264A8021A9
:1037C00002F052F93B461846FFF778FBFEF7D8FEA9
:1037D0000246174B5A60164B07221A701F4B0122E4
:1037E0001A7001235AE1002387F82C323BE012487B
:1037F000FFF7B8FB1149104801F0CCFD0346002B40
:103800002ED00E4B1B78002B03D00C4B1B78012BBA
:1038100026D1074B08221A70FEF7B2FE0246044B6F
:103820005A60012387F82C320348FFF7ABFB22E0F4
:10383000EC30002074B300089C2F00209C30002046
:10384000C0B3000800310020E0B300088C2E002037
:10385000FCB30008802E002024B40008902E002025
:103860009148FFF78FFB4FF480718F48FFF753FBB0
:103870000346002BBBD197F82C3283F00103DBB257
:10388000002B0CD0894B5B6842F210711846FFF791
:103890008DFB0346002B02D0844B08221A700123B3
:1038A000FCE08348FFF70AFBFEF76AFE02467F4B07
:1038B0005A607E4B09221A700123EFE0002387F83B
:1038C0002B327CE07848FFF74DFB7A49764801F0CF
:1038D00061FD0346002B41D0764B1B780B2B1ED18C
:1038E00007F5047107F5057207F5037300930B469E
:1038F00071496D4802F0ECF80346032B5CD1D7F810
:1039000010329AB2694BA3F81621D7F80C321A4636
:10391000664BC3F81821012387F82B324CE0654B26
:103920001B78002B07D197F82B32002B44D05E4830
:10393000FFF728FB4CE05F4B1B78012B3CD15F4825
:10394000FFF7CDFA594B062283F8B021574B0022DE
:103950001A705548FFF716FB00239FE0584952485C
:1039600002F017F90346002B26D007F5017107F581
:10397000027207F5007300930B464F494A4802F064
:10398000A7F80346032B17D1D7F804329AB2474B56
:10399000A3F81621D7F800321A46444BC3F8182171
:1039A000484B1B68002B04D1D7F800321A46454B10
:1039B0001A60012387F82B323B48FFF7E3FA4FF4F4
:1039C00080713948FFF7A7FA0346002B7FF47AAFDE
:1039D00097F82B32002B54D0344BB3F81631C82B48
:1039E00004D0324BB3F81631CE2B4AD12F4BD3F83B
:1039F0001821354B1B68D31AC7F81832D7F818327C
:103A0000B3F5807F28BF4FF48073C7F824322D4B65
:103A10001B68002B14D0254BD3F81821294B1B68A9
:103A20009A420DD1284B1B68002B09D01F4BD3F8AD
:103A30001831B3F5807F28BF4FF48073C7F8243264
:103A40001A4B0022C3F8AC21184B0022A3F8A8217E
:103A50003846D7F824321D4A402102F005F83B468B
:103A60001846FFF72BFAFEF78BFD02460F4B5A6004
:103A70000E4B032283F8B0210C4B01221A70012354
:103A80000CE01348FFF72BFA084B062283F8B0210D
:103A9000064B00221A70002300E00023184607F5A9
:103AA0000C77BD4680BD00BF9C2F0020EC3000206D
:103AB00054B400089C30002068B4000880B40008AA
:103AC000A0B400088C2E0020802E0020B0B4000886
:103AD000C4B4000880B58AB002AF7E4B1B78002BBF
:103AE00002D0012B15D0EFE07B48FFF7E7F9FEF796
:103AF00047FD0246774B5A60764B01221A70754B90
:103B00000022A3F81621734B0022C3F818210123C9
:103B1000DBE00023FB7780E07048FFF723FA704971
:103B20006E4801F037FC0346002B48D06C4B1B78E5
:103B30000B2B26D107F1100107F1140207F10C033A
:103B400000930B466749654801F0C2FF0346032B0B
:103B500060D13B699AB25F4BA3F81621FB681A4605
:103B60005C4BC3F81821604B1B68002B06D13B69E6
:103B7000C82B03D1FB681A465B4B1A600123FB7705
:103B800048E0574B1B78002B06D1FB7F002B41D020
:103B90005248FFF7F7F949E0514B1B78012B39D117
:103BA0005248FFF79CF94B4B062283F8B021494B52
:103BB00000221A704948FFF7E5F9002385E04C49D7
:103BC000464801F0E6FF0346002B23D0391D07F1DC
:103BD00008023B4600930B464249404801F078FFFB
:103BE0000346032B16D17B689AB23A4BA3F81621F1
:103BF0003B681A46374BC3F818213B4B1B68002B18
:103C000006D17B68C82B03D13B681A46364B1A6035
:103C10000123FB773148FFF7B5F94FF480712F4846
:103C2000FFF779F90346002B7FF476AFFB7F002B7B
:103C300030D0284BB3F81631C82B1FD1254BD3F801
:103C40001831002B1AD0234BD3F81831B3F5005F8D
:103C50000BD92848FFF743F91E4B062283F8B02101
:103C60001C4B00221A7000232FE01A4B032283F80A
:103C7000B021184B00221A70012326E01E48FFF7DE
:103C80002EF9144B062283F8B021124B00221A7031
:103C900000231AE0FEF774FC02460E4B5B68D31A51
:103CA000BB61BB694EF65F2293420BD91348FFF705
:103CB00016F9084B062283F8B021064B00221A7031
:103CC000002302E0012300E0002318462037BD4610
:103CD00080BD00BFEC30002054B400089C2F0020B1
:103CE0009C30002068B400088C2E002080B40008AE
:103CF000A0B40008ECB4000808B5000828B5000816
:103D000080B5F0B002AFB84B1B78012B00F02981D1
:103D1000022B00F06281002B40F05C82B34B1B78D9
:103D200083F00103DBB2002B32D0FEF7B1FA034679
:103D300083F00103DBB2002B08D0AD48FFF7CFF8CA
:103D4000A94B062283F8B021002344E2A64BD3F806
:103D5000183103F2FF3323F47F7323F00303C7F812
:103D6000A031D7F8A011A348FEF7A6FA034683F0C6
:103D70000103DBB2002B08D09F48FFF7B0F89A4B45
:103D8000062283F8B021002325E2984B01221A7005
:103D90009A4B00221A60944B0022C3F8AC21924B3C
:103DA0000022A3F8A821964B00221A70954B0022FE
:103DB0001A608D4BD3F81831B3F5807F28BF4FF4CC
:103DC0008073C7F89C3107F18000D7F89C318E4A88
:103DD000402101F049FE07F180031846FFF76EF815
:103DE000FEF7CEFB0246804B5A607F4B01221A70D1
:103DF0000123F0E18548FFF7B5F807F18003194684
:103E0000824801F073FD0346002B08D007F18003C0
:103E10001B780D2B03D17D48FFF7B4F8A1E007F123
:103E200080031946794801F0B5FA0346002B00F0EB
:103E3000958007F180031B78002B25D1002000F02E
:103E400047FA734B1B68002B03D1674BD3F818312B
:103E500001E06F4B1B68C7F88C31684B1A68D7F8C4
:103E60008C319A4204D3604B02221A700123B2E1D2
:103E70005D4B042283F8B0215B4B00221A7063482B
:103E8000FFF780F80123A6E107F180031B78012BDF
:103E900064D1002000F01CFA5D4B1B68002B03D19D
:103EA000514BD3F8183101E0594B1B68C7F89831D2
:103EB000524B1A68D7F898319A4204D34A4B0222DF
:103EC0001A70012387E14F4B1B68002B02D04D4B2A
:103ED00000221A604A4B1B78042B36D8484B1B78BB
:103EE0000133DAB2464B1A703F4B0022C3F8AC21C3
:103EF0003D4B0022A3F8A821424B00221A603A4B06
:103F0000D3F818213D4B1B68D31AC7F89431D7F862
:103F10009431B3F5007F28BF4FF40073C7F8903198
:103F20003846D7F89031384A402101F09DFD3B4694
:103F30001846FEF7C3FFFEF723FB02462A4B5A60E2
:103F40003248FFF71FF8012345E13248FEF7C7FF6B
:103F5000254B062283F8B02100233CE12B48FFF7D4
:103F600011F84FF480712948FEF7D5FF0346002B66
:103F70007FF440AFFEF704FB02461B4B5B68D31A8D
:103F8000C7F88831D7F888314EF65F22934222D99C
:103F9000002000F09DF91E4B1B68002B03D1124B33
:103FA000D3F8183101E01A4B1B68C7F88431134B62
:103FB0001A68D7F884319A4204D30B4B02221A7044
:103FC000012308E11448FEF78AFF074B062283F815
:103FD000B0210023FFE00123FDE00023C7F8B43146
:103FE000044BC7F8B03161E0EC300020842E002093
:103FF00040B500080010010860B50008802E0020C0
:10400000852E0020882E0020B0B400089C2F0020B0
:104010008C2E002080B5000828B50008704B1A6867
:10402000D7F8B431D31AB3F5007F28BF4FF400732B
:10403000C7F8AC31D7F8AC3103F00103002B0DD039
:10404000D7F8B421D7F8AC311A44654B1B689A42B3
:1040500004D2D7F8AC31013BC7F8AC31D7F8B43152
:10406000604A1344D7F8AC211946D7F8B001FEF7DF
:104070006FF9034683F00103DBB2002B08D05A48E6
:10408000FEF72DFF594B062283F8B0210023A2E052
:10409000D7F8B021D7F8AC311344C7F8B031D7F80E
:1040A000B421D7F8AC311344C7F8B4314C4B1B687A
:1040B000D7F8B4219A42B1D3494B1B68D7F8B42141
:1040C0009A421DD2D7F8B431464A13440122194608
:1040D000D7F8B001FEF73CF9034683F00103DBB2E9
:1040E000002B08D04048FEF7FAFE404B062283F82A
:1040F000B02100236FE0D7F8B4310133C7F8B431F1
:10410000012387F8AB310023C7F8A4313AE0344BE0
:104110001A68D7F8A431D31AB3F5807F28BF4FF4BB
:104120008073C7F88031D7F8A43103F1006303F539
:10413000883307F18001D7F880211846FEF79CF9F3
:10414000034683F00103DBB2002B03D0002387F882
:10415000AB311DE0D7F8A431224A991807F180034A
:10416000D7F88021184601F05DFC0346002B03D0F0
:10417000002387F8AB310BE0D7F8A43103F5807347
:10418000C7F8A431164B1B68D7F8A4219A42BED3B6
:10419000134B1A6897F8AB31002B01D0144B00E099
:1041A000144B384600931346134A802101F05CFCFF
:1041B0003B461846FEF793FE094B1B680B4AC2F8B4
:1041C0009C310A4B052283F8B021084B00221A705B
:1041D000002300E00023184607F5DC77BD4680BDCC
:1041E000802E0020800E0020A0B50008EC300020BA
:1041F000C0B50008C4B50008CCB5000880B582B0D1
:1042000000AF78607B68002B10D07B681B78002B98
:104210000CD0274B1B78002B08D1FF22796825484A
:1042200001F0A2FC224B002283F81321204B93F8CB
:10423000B031062B33D801A252F823F059420008BE
:104240005F420008654200086B42000871420008A6
:10425000774200088B420008FEF720FF24E0FFF7BA
:10426000F3F821E0FFF736FC1EE0FFF749FD1BE005
:10427000FFF764F918E00E4BDB68002B11D00C4BF4
:10428000DB680021002098470BE0094B1B69002BDD
:1042900009D0074B1B6901210020984703E000BFAC
:1042A00002E000BF00E000BF00BF0837BD4680BD90
:1042B000EC3000200031002080B400AF034B1B78AD
:1042C000DBB21846BD4680BC704700BF7C0E0020A4
:1042D00080B483B000AF0346FB71044AFB791370CE
:1042E00000BF0C37BD4680BC704700BF7C0E00206D
:1042F00080B483B000AF78607B689AB2034BA3F8B8
:10430000A82100BF0C37BD4680BC7047EC300020B0
:1043100080B483B000AF0346FB71224B1B68B3F53A
:10432000005F38D2204BB3F8A831002B07D01E4BCA
:10433000D3F8AC311C4AB2F8A82193422DD21B4BC2
:104340001B7883F00103DBB2002B12D0154B1B68E6
:10435000002B0ED0144BD3F8AC21124B1B689A42A1
:1043600007D2114BD3F8AC3101330F4AC2F8AC314C
:1043700014E00C4B1B680E49FA79CA54094B1B68B0
:104380000133084A1360084BD3F8AC310133064AB5
:10439000C2F8AC3102E000BF00E000BF0C37BD4600
:1043A00080BC7047802E0020EC300020902E002032
:1043B000800E002080B582B000AF78603960284A56
:1043C0007B68C2F8E031264A3B68C2F8E431244BEE
:1043D000002283F8D121FEF7D3F80246204BC3F820
:1043E000D4211F4B002283F8D0211D4B0022C3F89B
:1043F000D8211B4B002283F8DC21194B00221A70B4
:10440000174B00229A70164B002283F88420144B1D
:104410003C2283F84421124B40F25B72A3F88220C5
:104420000F4B002283F8C4200D4B002283F8042197
:104430000B4B002283F84821094B0022A3F8CC2122
:10444000074B0022C3F8C821054B002283F8CE2178
:10445000034B002283F8CF2100BF0837BD4680BD43
:10446000A032002080B582B000AF78603960FEF7DE
:1044700087F802467B68D21A3B689A422CBF012318
:104480000023DBB218460837BD4680BD80B582B038
:1044900000AF78603960182200210A4801F0DCFA88
:1044A000084A7B68D360074A3B681361054B0022CA
:1044B0001A75FEF765F80246024B5A6000BF0837CE
:1044C000BD4680BD8834002080B582B000AFD24B9D
:1044D0001B78642B00F2BD8301A252F823F000BFC9
:1044E000754600089B4600083747000857470008F4
:1044F000F347000813480008DB480008FB480008A1
:1045000097490008B7490008534A0008734A000851
:10451000454B0008654B0008534C0008534C0008FD
:10452000534C0008534C0008534C0008534C0008EF
:10453000014C0008534C0008534C0008534C000831
:10454000534C0008534C0008534C0008534C0008CF
:10455000534C0008534C0008534C0008534C0008BF
:10456000534C0008534C0008534C0008534C0008AF
:10457000534C0008534C0008534C0008534C00089F
:10458000534C0008534C0008534C0008534C00088F
:10459000534C0008534C0008534C0008534C00087F
:1045A000534C0008534C0008534C0008534C00086F
:1045B000534C0008534C0008534C0008534C00085F
:1045C000534C0008534C0008534C0008534C00084F
:1045D000534C0008534C0008534C0008534C00083F
:1045E000534C0008534C0008534C0008534C00082F
:1045F000534C0008534C0008534C0008534C00081F
:10460000534C0008534C0008534C0008534C00080E
:10461000534C0008534C0008534C0008534C0008FE
:10462000534C0008534C0008534C0008534C0008EE
:10463000534C0008534C0008534C0008534C0008DE
:10464000534C0008534C0008534C0008534C0008CE
:10465000534C0008534C0008534C0008534C0008BE
:10466000534C0008534C0008534C0008534C0008AE
:104670004F4C0008684B00225A706848FEF72FFC28
:104680006748FEF71BFCFDF77BFF0246624B5A6052
:10469000614B01221A700023E3E20023FB712BE03F
:1046A0006048FEF75FFC60495E4800F073FE034619
:1046B000002B1ED05C4B1B78002B0DD1564B0222D9
:1046C0001A70FDF75DFF0246534B5A600123FB71E0
:1046D0005448FEF757FC16E0534B1B78012B08D1CA
:1046E0004D4B14221A700123FB714E48FEF74AFC11
:1046F00009E04C48FEF746FC80214A48FEF70BFCD7
:104700000346002BCCD1FB7983F00103DBB2002BF5
:104710000FD0414B5B6842F210711846FFF7A2FEC2
:104720000346002B05D04148FEF7D9FB3A4B142233
:104730001A70002395E23E48FEF7D1FB3D48FEF794
:10474000BDFBFDF71DFF0246334B5A60324B03227F
:104750001A70002385E20023BB712BE03148FEF77D
:1047600001FC31492F4800F015FE0346002B1ED0F6
:104770002D4B1B78032B0DD1274B04221A70FDF70C
:10478000FFFE0246244B5A600123BB712548FEF709
:10479000F9FB16E0244B1B78012B08D11E4B142289
:1047A0001A700123BB711F48FEF7ECFB09E01D489E
:1047B000FEF7E8FB80211B48FEF7ADFB0346002B0C
:1047C000CCD1BB7983F00103DBB2002B0FD0124BAD
:1047D0005B6842F210711846FFF744FE0346002B57
:1047E00005D01548FEF77BFB0B4B14221A700023F3
:1047F00037E21248FEF773FB1148FEF75FFBFDF747
:10480000BFFE0246044B5A60034B05221A70002378
:1048100027E200237B7141E088340020F8B50008CE
:1048200008B60008942E0020142F002010B60008AF
:1048300020B6000830B600083CB600084CB60008A8
:1048400060B60008B248FEF78DFBB249B04800F0F0
:10485000A1FD0346002B1ED0AE4B1B78042B0DD1BF
:10486000AD4B06221A70FDF78BFE0246AA4B5A602A
:1048700001237B71A648FEF785FB16E0A54B1B784C
:10488000012B08D1A44B14221A7001237B71A0487C
:10489000FEF778FB09E09E48FEF774FB80219C48F8
:1048A000FEF739FB0346002BCCD17B7983F0010363
:1048B000DBB2002B0FD0984B5B6842F210711846A8
:1048C000FFF7D0FD0346002B05D09448FEF707FB09
:1048D000914B14221A700023C3E19148FEF7FFFAAE
:1048E0009048FEF7EBFAFDF74BFE02468A4B5A6002
:1048F000894B07221A700023B3E100233B712BE0A0
:104900008348FEF72FFB8349814800F043FD0346AF
:10491000002B1ED07F4B1B78002B0DD17E4B082225
:104920001A70FDF72DFE02467B4B5A6001233B7146
:104930007748FEF727FB16E0764B1B78012B08D152
:10494000754B14221A7001233B717148FEF71AFB54
:1049500009E06F48FEF716FB80216D48FEF7DBFA91
:104960000346002BCCD13B7983F00103DBB2002B53
:104970000FD0694B5B6842F210711846FFF772FD69
:104980000346002B05D06848FEF7A9FA624B1422B3
:104990001A70002365E16548FEF7A1FA6448FEF746
:1049A0008DFAFDF7EDFD02465B4B5A605A4B09222A
:1049B0001A70002355E10023FB702BE05448FEF7EA
:1049C000D1FA5449524800F0E5FC0346002B1ED0B2
:1049D000504B1B78002B0DD14F4B0A221A70FDF75C
:1049E000CFFD02464C4B5A600123FB704848FEF74E
:1049F000C9FA16E0474B1B78012B08D1464B14220D
:104A00001A700123FB704248FEF7BCFA09E04048E7
:104A1000FEF7B8FA80213E48FEF77DFA0346002BE8
:104A2000CCD1FB7883F00103DBB2002B0FD03A4BE3
:104A30005B6842F210711846FFF714FD0346002B25
:104A400005D03C48FEF74BFA334B14221A70002372
:104A500007E13948FEF743FA3848FEF72FFAFDF729
:104A60008FFD02462C4B5A602B4B0B221A700023F1
:104A7000F7E00023BB702BE02548FEF773FA2549C9
:104A8000234800F087FC0346002B1ED0214B1B78E7
:104A9000002B0DD1204B0C221A70FDF771FD024640
:104AA0001D4B5A600123BB701948FEF76BFA16E0E4
:104AB000184B1B78012B08D1174B14221A700123B5
:104AC000BB701348FEF75EFA09E01148FEF75AFA88
:104AD00080210F48FEF71FFA0346002BCCD1BB788C
:104AE00083F00103DBB2002B0FD00B4B5B6842F26B
:104AF00010711846FFF7B6FC0346002B05D010488E
:104B0000FEF7EDF9044B14221A700023A9E000BF50
:104B1000942E0020142F0020883400206CB600084A
:104B20007CB6000890B600089CB60008ACB6000839
:104B3000C0B60008D0B60008E0B60008F8B6000815
:104B400014B700084948FEF7CAF94948FEF7B6F914
:104B5000FDF716FD0246474B5A60464B0D221A7070
:104B600000237EE000237B702BE04348FEF7FAF938
:104B70004249414800F00EFC0346002B1ED03F4B3B
:104B80001B78002B0DD13B4B64221A70FDF7F8FC0B
:104B90000246384B5A6001237B703748FEF7F2F922
:104BA00016E0364B1B78012B08D1324B14221A70B9
:104BB00001237B703048FEF7E5F909E02E48FEF747
:104BC000E1F980212C48FEF7A6F90346002BCCD151
:104BD0007B7883F00103DBB2002B0FD0254B5B68A1
:104BE00042F210711846FFF73DFC0346002B05D03A
:104BF0002348FEF774F91F4B14221A70002330E08B
:104C00001C4B5B780133DAB21A4B5A70194B5B7844
:104C1000032B0FD91B48FEF762F9164B1B69002BBB
:104C200004D0144B1B69012100209847114B6422CA
:104C30001A700AE01448FEF752F90E4B00221A705F
:104C4000FDF79EFC02460B4B5A60002309E001234E
:104C500007E000BF074B1B78642B0CBF0123002328
:104C6000DBB218460837BD4680BD00BF24B7000838
:104C700040B7000888340020942E0020142F002014
:104C80004CB700085CB7000874B7000880B500AFE7
:104C90001C4B1B7D012B15D0022B20D0002B00D0EC
:104CA0002DE0FFF711FC0346002B23D0154B01220A
:104CB0001A75144B00221A70FDF762FC0246114B64
:104CC0005A6017E000F032F80346002B14D00D4B69
:104CD0001B78642B10D10B4B02221A750CE0094B88
:104CE0001B78652B0AD00848FEF7F9F8054B6522BA
:104CF0001A7003E000BF02E000BF00E000BF00BF89
:104D000080BD00BF8834002080B7000880B400AFA9
:104D1000054B1B7D022B0CBF01230023DBB2184681
:104D2000BD4680BC704700BF8834002080B582B08B
:104D300000AFCC4B1B78642B00F29F8201A252F88B
:104D400023F000BFD94E0008FF4E0008A14F000815
:104D5000C14F000891500008B1500008535100089D
:104D6000735100087B5200087B5200087B520008F8
:104D70007B5200087B5200087B5200087B520008DF
:104D80007B5200087B5200087B5200087B520008CF
:104D90007B520008295200087B5200087B52000811
:104DA0007B5200087B5200087B5200087B520008AF
:104DB0007B5200087B5200087B5200087B5200089F
:104DC0007B5200087B5200087B5200087B5200088F
:104DD0007B5200087B5200087B5200087B5200087F
:104DE0007B5200087B5200087B5200087B5200086F
:104DF0007B5200087B5200087B5200087B5200085F
:104E00007B5200087B5200087B5200087B5200084E
:104E10007B5200087B5200087B5200087B5200083E
:104E20007B5200087B5200087B5200087B5200082E
:104E30007B5200087B5200087B5200087B5200081E
:104E40007B5200087B5200087B5200087B5200080E
:104E50007B5200087B5200087B5200087B520008FE
:104E60007B5200087B5200087B5200087B520008EE
:104E70007B5200087B5200087B5200087B520008DE
:104E80007B5200087B5200087B5200087B520008CE
:104E90007B5200087B5200087B5200087B520008BE
:104EA0007B5200087B5200087B5200087B520008AE
:104EB0007B5200087B5200087B5200087B5200089E
:104EC0007B5200087B5200087B5200087B5200088E
:104ED0007B52000877520008624B00225A706248E9
:104EE000FDF7FDFF6148FDF7E9FFFDF749FB0246CD
:104EF0005C4B5A605B4B01221A700023C5E1002312
:104F0000FB712EE05A48FEF72DF85A49584800F038
:104F100041FA0346002B21D0564B1B78002B0DD1B4
:104F2000504B02221A70FDF72BFB02464D4B5A6084
:104F30000123FB714E48FEF725F819E04D4B1B7815
:104F4000012B0BD14C48FDF7CAFF464B14221A70B7
:104F50000123FB714648FEF715F809E04448FEF7C7
:104F600011F880214248FDF7D6FF0346002BC9D136
:104F7000FB7983F00103DBB2002B0FD0394B5B6868
:104F800042F210711846FFF76DFA0346002B05D068
:104F90003A48FDF7A4FF334B14221A70002374E142
:104FA0003748FDF79CFF3748FDF788FFFDF7E8FA23
:104FB00002462C4B5A602B4B03221A70002364E1EB
:104FC0000023BB712EE02A48FDF7CCFF2949284871
:104FD00000F0E0F90346002B21D0264B1B78002B74
:104FE0000DD1204B04221A70FDF7CAFA02461D4B60
:104FF0005A600123BB711E48FDF7C4FF19E01D4B29
:105000001B78012B0BD12048FDF769FF154B1422AB
:105010001A700123BB711648FDF7B4FF09E014486C
:10502000FDF7B0FF80211248FDF775FF0346002B06
:10503000C9D1BB7983F00103DBB2002B0FD0094B40
:105040005B6842F210711846FFF70CFA0346002B1A
:1050500005D00E48FDF743FF024B14221A700023BF
:1050600013E100BF88340020A0B70008B0B70008E3
:10507000942E0020142F0020C0B70008D4B70008D9
:10508000E8B70008FCB7000820B8000834B80008EA
:105090008048FDF724FF8048FDF710FFFDF770FA08
:1050A00002467E4B5A607D4B05221A700023ECE0CD
:1050B00000237B712EE07A48FDF754FF7949784848
:1050C00000F068F90346002B21D0764B1B78002BAB
:1050D0000DD1724B06221A70FDF752FA02466F4B41
:1050E0005A6001237B716E48FDF74CFF19E06D4B50
:1050F0001B78012B0BD16C48FDF7F1FE674B142296
:105100001A7001237B716648FDF73CFF09E0644893
:10511000FDF738FF80216248FDF7FDFE0346002BB6
:10512000C9D17B7983F00103DBB2002B0FD05B4B3D
:105130005B6842F210711846FFF794F90346002BA2
:1051400005D05A48FDF7CBFE544B14221A700023A9
:105150009BE05748FDF7C3FE5648FDF7AFFEFDF74D
:105160000FFA02464D4B5A604C4B07221A7000232F
:105170008BE000233B710023FB702EE04848FDF7D5
:10518000F1FE4D49464800F004FD0346002B01D0D6
:1051900001233B714349424800F0FCF80346002BD1
:1051A00018D0404B1B78002B05D10123FB703C48E5
:1051B000FDF7E8FE0EE03B4B1B78012B0AD13F4880
:1051C000FDF78DFE354B14221A703548FDF7DAFED7
:1051D00000235AE03248FDF7D5FE80213048FDF724
:1051E0009AFE0346002BC9D13B79002B0AD0FB78ED
:1051F000002B07D03248FDF772FE284B64221A704C
:10520000012342E0254B5B6841F288311846FFF7E5
:1052100029F90346002B05D02A48FDF760FE1F4BF5
:1052200014221A70002330E01C4B5B780133DAB291
:105230001A4B5A70194B5B78032B0FD92248FDF794
:105240004EFE164B1B69002B04D0144B1B69012129
:1052500000209847114B64221A700AE01B48FDF7A2
:105260003EFE0E4B00221A70FDF78AF902460B4BE8
:105270005A60002309E0012307E000BF074B1B78B9
:10528000642B0CBF01230023DBB218460837BD4650
:1052900080BD00BF48B800085CB800088834002012
:1052A000942E0020142F00206CB8000880B800084D
:1052B00094B80008A4B80008B4B80008C0B8000842
:1052C000D4B80008F4B8000808B9000824B90008E8
:1052D00080B582B000AF78603960134A7B68D360D4
:1052E000114A3B681361104B00221A70FDF748F910
:1052F00002460D4B5A600C4B00229A600A4B00226A
:105300005A70094B00221A75074B002283F8282097
:10531000054B002283F8C8200448FDF7CFFD00BFED
:105320000837BD4680BD00BFA034002034B9000856
:1053300080B582B000AF786039600F4B00221A70E0
:105340000D4B00225A70FDF71BF902460A4B5A60BA
:10535000094B00229A60084A7B68D360064A3B6882
:105360001361054B00221A75034B002283F8282095
:1053700000BF0837BD4680BD6C35002080B582B0C7
:1053800000AF7860786800F025FB034618460837C0
:10539000BD4680BD80B598B000AF786039607B684D
:1053A000002B02D03B68002B01D1002392E2502257
:1053B0000021386800F050FB3B680E221A707868B4
:1053C000FAF7C6FEF86502E0FB6D013BFB65FB6D7D
:1053D000002B0DD0FB6D013B7A6813441B780D2B1D
:1053E000F2D0FB6D013B7A6813441B780A2BEBD09B
:1053F000FB6D002B01D100236CE2FB6D012B08D962
:105400007B681B78412B04D17B6801331B78542BBC
:105410000AD0FB6D022B09D903229B49786800F062
:1054200091FB0346002B01D1002353E2FB6D022BBD
:105430000DD17B681B784F2B09D17B6801331B781A
:105440004B2B04D13B6800221A70012342E2FB6D12
:10545000052B0CD105228D49786800F073FB0346BB
:10546000002B04D13B6801221A70012332E2FB6D4C
:105470000A2B21D90B228649786800F063FB03468A
:10548000002B19D17B680B33BB6502E0BB6D013388
:10549000BB65BB6D1B78202BF8D0BB6D1B78092B2F
:1054A000F4D0B86DFFF76AFF02463B685A603B686C
:1054B00002221A7001230DE2FB6D052B19D9062279
:1054C0007449786800F03EFB0346002B11D1FB6D58
:1054D0000B2B0ED97B68073305226F49184600F065
:1054E00031FB0346002B04D13B6803221A700123D1
:1054F000F0E1FB6D052B3DD906226849786800F084
:1055000021FB0346002B35D17B6806337B653B6866
:105510004FF0FF325A603B684FF0FF329A6002E072
:105520007B6D01337B657B6D1B783A2BF8D07B6DEF
:105530001B78202BF4D07B6D1B78092BF0D0786D75
:10554000FFF71CFF02463B685A602C21786D00F083
:10555000EBFAB862BB6A002B07D0BB6A013318466E
:10556000FFF70CFF02463B689A603B6804221A7002
:105570000123AFE1FB6D062B3DD90722484978682E
:1055800000F0E0FA0346002B35D17B6807333B651A
:105590003B684FF0FF325A603B684FF0FF329A6031
:1055A00002E03B6D01333B653B6D1B783A2BF8D035
:1055B0003B6D1B78202BF4D03B6D1B78092BF0D072
:1055C000386DFFF7DBFE02463B685A602C21386DD0
:1055D00000F0AAFA78627B6A002B07D07B6A01335D
:1055E0001846FFF7CBFE02463B689A603B680522EF
:1055F0001A7001236EE1FB6D042B35D90522294970
:10560000786800F09FFA0346002B2DD17B680533A4
:10561000FB6402E0FB6C0133FB64FB6C1B783A2BF0
:10562000F8D0FB6C1B78202BF4D0FB6C1B78092B7B
:10563000F0D0F86CFFF7A2FE02463B685A602C21BE
:10564000F86C00F071FA38623B6A002B07D03B6AB5
:1056500001331846FFF792FE02463B689A603B68AA
:1056600006221A70012335E1FB6D092B1ED90B228E
:105670000D49786800F066FA0346002B16D13B68A6
:1056800007221A70012325E18CB9000890B900089F
:1056900098B90008A4B90008ACB90008B4B900086A
:1056A000BCB90008C4B90008CCB90008FB6D052BD3
:1056B00047D906228949786800F044FA0346002B4E
:1056C0003FD12221786800F02FFAF861FB69002BA6
:1056D00032D0FB6901332221184600F025FAB86167
:1056E000BB69002B28D0BB69FA6901329B1ABB64E5
:1056F000BB6C3F2B01D93F23BB643B6803F1100017
:10570000FB690133BA6C194600F09BF93A68BB6C2F
:105710001344103300221A702C21B86900F004FAE7
:1057200078617B69002B07D07B6901331846FFF74E
:1057300025FE02463B685A603B6808221A70012326
:10574000C8E0FB6D052B50D906226549786800F04A
:10575000F9F90346002B48D17B6806337B640023AC
:105760003B640023FB630023BB6319E07B6C1B7865
:10577000222B12D13B6C01333B643B6C032B03D1D6
:105780007B6C0133FB6308E03B6C042B05D1FB6BA6
:10579000002B02D07B6CBB6306E07B6C01337B6427
:1057A0007B6C1B78002BE1D1FB6B002B18D0BB6B03
:1057B000002B15D0BA6BFB6BD31A7B637B6B3F2B33
:1057C00001D93F237B633B6810337A6BF96B184632
:1057D00000F037F93A687B6B1344103300221A70DB
:1057E0003B6809221A70012374E0FB6D052B25D953
:1057F00006223C49786800F0A5F90346002B1DD12C
:105800007B6806333B6302E03B6B01333B633B6BDE
:105810001B783A2BF8D03B6B1B78202BF4D03B6BDA
:105820001B78092BF0D0386BFFF7A8FD02463B68C8
:105830005A603B680A221A7001234BE0FB6D0B2B68
:1058400047D90C222849786800F07CF90346002BE0
:105850003FD17B680C33FB6202E0FB6A0133FB62E1
:10586000FB6A1B783A2BF8D0FB6A1B78202BF4D00C
:10587000FB6A1B78092BF0D0F86AFFF77FFD024620
:105880003B685A602C21F86A00F04EF938613B6998
:10589000002B19D03B6901331846FFF76FFD024614
:1058A0003B689A603B6901332C21184600F03CF9B3
:1058B000F860FB68002B07D0FB6801331846FFF740
:1058C0005DFD02463B68DA603B680B221A700123DB
:1058D00000E0002318466037BD4680BDD8B90008F7
:1058E000E0B90008E8B90008F0B9000880B586B052
:1058F00000AF786039607B68002B02D03B68002BDA
:1059000001D100235DE07868FAF722FC786102E0BB
:105910007B69013B7B617B69002B0DD07B69013B7F
:105920007A6813441B780D2BF2D07B69013B7A68AF
:1059300013441B780A2BEBD07B69002B01D1002389
:105940003FE07B69092B3BD90A222049786800F0A7
:10595000F9F80346002B33D17B680A333B6102E040
:105960003B6901333B613B691B783A2BF8D03B69BB
:105970001B78202BF4D03B691B78092BF0D0052233
:105980001349386900F0DEF80346002B02D13B6969
:1059900005333B613869FFF7F1FCF860FB68002BC9
:1059A00006D13B6800225A603B680D221A7005E060
:1059B0003B68FA685A603B680C221A70012300E0C9
:1059C000002318461837BD4680BD00BF00BA000846
:1059D0000CBA00080A22002100F088B970B5002531
:1059E0000C4E0D4CA41BA410A54209D105F086FB5A
:1059F00000250A4E0A4CA41BA410A54205D170BD77
:105A000056F8253098470135EEE756F82530984787
:105A10000135F2E764BD000864BD000864BD0008FC
:105A200068BD000810B501390244904201D1002040
:105A300010BD10F8013B11F8014FA342F5D0181B1F
:105A400010BD10B5431E0A44914200D110BD11F89B
:105A5000014B03F8014FF7E703460244934200D19C
:105A6000704703F8011BF9E70CB430B5174B0C1E57
:105A70009DB01D6808DA8B234FF0FF302B601DB0FE
:105A8000BDE8304002B070474FF40273ADF81430F7
:105A90000CBF234604F1FF33049307934FF6FF73C3
:105AA00002900690ADF81630209A21AB02A9284644
:105AB000019300F031F9431CBCBF8B232B60002CF9
:105AC000DDD00022029B1A70D9E700BF2C00002015
:105AD0000EB44FF4017230B59CB01FAC54F8045BA7
